:020000040800F2
:1000000038FB0020CD010008071600085B1300082C
:10001000C11400085B0500085B39000800000000FF
:100020000000000000000000000000008D34000807
:10003000B10F000800000000910100080936000817
:10004000E7010008E7010008E7010008E7010008F0
:10005000E7010008E7010008E7010008E7010008E0
:10006000E7010008E7010008E7010008E7010008D0
:10007000E7010008E7010008E7010008E7010008C0
:10008000E7010008E7010008E7010008E7010008B0
:10009000E7010008E7010008E7010008E7010008A0
:1000A000E7010008E7010008E7010008E701000890
:1000B000E701000871360008E7010008E7010008C1
:1000C000E7010008E7010008E7010008E701000870
:1000D000E7010008A5370008E7010008E70100086C
:1000E000B50F0008E7010008E7010008E701000874
:1000F000E7010008E7010008E7010008E701000840
:10010000E7010008E7010008E7010008E70100082F
:10011000E7010008E7010008E7010008E70100081F
:10012000E7010008E7010008E7010008E70100080F
:10013000DFF80CD000F0D4F900480047C59800085B
:1001400038FB00200138FDD170470000EFF310802C
:1001500072B6704780F31088704772B606484FF049
:10016000FF010170002080F3098804484FF080519E
:10017000C0F8001062B6FEE722ED00E004ED00E0FA
:1001800002484FF0805101607047000004ED00E02C
:1001900072B6EFF3098028B1203880E8F00F0949E2
:1001A0000968086000B5DFF8200080475DF804EBBF
:1001B00090E8F00F203080F309884EF0040E62B60C
:1001C0007047000070000020491A00080648804768
:1001D00006480047FEE7FEE7FEE7FEE7FEE7FEE72C
:1001E000FEE7FEE7FEE7FEE71136000831010008F2
:1001F0002DE9F05F0546002092469B46884606465C
:10020000814640241BE0284641464746224600F0EE
:1002100020F953465A46C01A914110D31146184648
:10022000224600F007F92D1A67EB01084F462246D7
:100230000120002100F0FEF817EB00094E41201EBE
:10024000A4F10104DFDC484631462A464346BDE8B6
:10025000F09F2DE9F0410024061B254671F10006B0
:1002600005DA01240027D0EB070067EB0101161E19
:1002700073F1000605DA0027D2EB0702012567EBD0
:100280000303FFF7B5FF86460E4617469C46AC4271
:1002900004D00025D0EB050E65EB010624B100204B
:1002A000D2EB000760EB030C704631463A466346DA
:1002B000BDE8F081A0F14101192900D82030704734
:1002C00010B5431A934209D28318881803E010F836
:1002D000011D03F8011D521EF9D210BD40EA0103B1
:1002E0009B0703D009E008C9121F08C0042AFAD2EC
:1002F00003E011F8013B00F8013B521EF9D210BD9A
:10030000D2B201E000F8012B491EFBD27047002257
:10031000F6E710B513460A4604461946FFF7F0FF04
:10032000204610BDCAB2401E10F8011F8A4202D0FA
:100330000029F9D100207047421C10F8011B002948
:10034000FBD1801A704710B5002200E0521C835C7C
:100350008C5CA34201D1002BF8D1D8B2E1B2401A93
:1003600010BD30B504460020034600E05B1C9342FC
:1003700003D2E05CCD5C401BF8D030BD30B5054603
:100380000020034600E05B1C934205D2EC5CC85C95
:10039000201A01D1002CF6D130BD30B480EA010220
:1003A00002F0004530F0004221F0004013D090B13F
:1003B000C30DD40DC2F31601C0F31600E41A41F4C4
:1003C000000140F400027D34914201D3641C00E03E
:1003D0004900002C02DA30BC002070474FF40000C6
:1003E0000023914201D3891A034340084FEA410197
:1003F000F7D151B1914202D14FF0004105E002D254
:100400004FF0010101E06FF0010103EBC4502844FB
:1004100030BC00F02EB896230022114600F032B80E
:10042000002801DBC0F10040002901DBC1F10041DF
:1004300081427047202A04DB203A00FA02F10020B2
:1004400070479140C2F1200320FA03F31943904012
:100450007047202A04DB203A21FA02F0002170477D
:1004600021FA02F3D040C2F120029140084319461C
:1004700070470029A8BF7047401C490008BF20F002
:100480000100704710B4B0FA80FC00FA0CF050EA9A
:10049000010404BF10BC704749B1CCF1200421FA1B
:1004A00004F411FA0CF118BF012121430843A3EB16
:1004B0000C01CB1D4FEA00614FEA102042BF002023
:1004C00010BC704700EBC35010440029A4BF10BCFF
:1004D0007047401C490008BF20F0010010BC704765
:1004E000064C074D06E0E06840F0010394E8070081
:1004F00098471034AC42F6D3FFF71EFE9CB00308B9
:10050000BCB0030870B58C1810F8015B15F0070338
:1005100001D110F8013B2A1106D110F8012B03E09C
:1005200010F8016B01F8016B5B1EF9D12B0705D4A4
:100530000023521E0DD401F8013BFAE710F8013BED
:10054000CB1A921C03E013F8015B01F8015B521E09
:10055000F9D5A142D8D3002070BD00BFFEE770B529
:1005600000254FF4803404E0802001F025FC00B128
:1005700003E0201EA4F10104F6D100BF0CB9032052
:1005800070BD40F2FF5001F0D1FB2846F8E70000B3
:1005900070B5044605E01548456B05F0450000B10F
:1005A00000E0F8E700BF042001F006FC20B10420C1
:1005B00001F0BCFB032070BD012001F0FDFB20B168
:1005C000012001F0B3FB0120F5E708480069A042D3
:1005D00001D01020EFE740F2FF500449886308463D
:1005E000406908210840C0B2E5E7000000800140F2
:1005F00070B500264FF4803505E01148446B04F0D7
:10060000450000B103E0281EA5F10105F5D100BFAA
:1006100015B104F0040028B10326042001F086FB84
:10062000304670BD012001F0C7FB18B10126012042
:1006300001F07CFB40F2FF5001F078FB3046F0E720
:100640000080014010B505E00B48446B04F0450004
:1006500000B100E0F8E700BF042001F0ADFB20B1DD
:10066000042001F063FB032010BD40F2FF5001F0B5
:100670005DFB0020F8E70000008001402DE9F0411B
:1006800005460E464FF0000805E01F48476B07F08F
:10069000450000B100E0F8E700BF042001F08CFB4A
:1006A00028B1042001F042FB0320BDE8F0810120C5
:1006B00001F082FB20B1012001F038FB0120F4E7BA
:1006C00011480069A84201D01020EEE740F2FF5027
:1006D00001F02CFB0C48446904F4604018B9200C6C
:1006E00030804046E1E704F4005008B11320DCE715
:1006F00004F4804008B11020D7E704F4004008B1AA
:100700000F20D2E74046D0E70080014070B50026B8
:100710004FF4803505E00F48446B04F0450000B10C
:1007200003E0281EA5F10105F5D100BF15B104F0C5
:10073000040028B10326042001F0F8FA304670BD09
:1007400004F0400018B10026402001F0EFFA3046D6
:10075000F5E700000080014000B5282000F03EF9D8
:100760000246292000F03AF942EA00222A2000F04D
:1007700035F942EA00422B2000F030F942EA0062EB
:10078000104600BD70B505467948406940F4807058
:10079000774948610846806940F020008861084632
:1007A000806940F0400088610846806940F0800020
:1007B00088610846806940F4807088616D480068EF
:1007C0006D4908406D4908436A4908600846006859
:1007D00000F0FF2040F0BB10091F08606848006867
:1007E0004FF0BB3066490860081F006820F0704079
:1007F00040F03040091F08606248006862490840C4
:10080000624908435F4908606148406820F0FF0082
:1008100040F0B3005E4948605A480830006840F430
:10082000006058490831086001220B21052000F0C2
:10083000EFFB022328220021012000F0F1FD00201F
:100840004FF020418860C860524908604FF0204056
:10085000806840F480504FF02041886008468068EE
:1008600040F0100088600846C06840F44070C860DE
:100870000846C068C8600846C06840F00100C8600B
:100880006FF07040C1F80C010846806840F001002C
:10089000886041480468082040490870002048806A
:1008A000812048700220087100213C48417181710B
:1008B000210CC171210A01724472FF2037498872EC
:1008C000FF213648C172017341738173C173017492
:1008D000417400F091F9642003F074FFFFF73CFFCE
:1008E00004462F48844201D0012070BD0DB900207C
:1008F000FBE72A49087800F039FA0021084600F0A1
:1009000063FA0021022000F05FFA3F21082000F086
:100910005BFA3821092000F057FA00210A2000F084
:1009200053FA00212F2000F04FFA2C21012000F073
:100930004BFA0F21FE2000F047FA80212D2000F015
:1009400043FA1648001D00F0F5F914480A3000F08B
:10095000FFF93121052000F037FA8021FF2000F057
:1009600033FA0E484178FF2000F02EFA0020BCE751
:10097000001002400414014000F0FF00BB0B00BB5C
:1009800004180140041C0140FF0F0FFF0080B0005D
:10099000002001400C0100A0E8F7FF1F80070020A5
:1009A000460A009070B505460C4645F040010C2003
:1009B00000F00AFAE1B20D2000F006FA210A0E203A
:1009C00000F002FA0A210B2000F0FEF9322003F0B9
:1009D000F9FE00210B2000F0F7F970BD0146034835
:1009E00001804FF0C840B0F800017047FE0000647D
:1009F0002DE9FE430024611E5748006800F0D2FD37
:100A000000BFF020FFF7EAFF5448008800F0FF081D
:100A1000B8F1000F7ED0B8F1010F11D950A002F04B
:100A20009FFF0021052000F0CFF98021FE2000F07B
:100A3000CBF94948006800F0D9FD2046BDE8FE83A7
:100A4000F2204649891E08804FF0C840B0F80001E6
:100A50000290881C008801904FF4C172BDF8041008
:100A6000002009F0A8FB04468CB125460CE06F6815
:100A70006E8906E04FF0C840B0F800013880BF1C16
:100A8000B61E002EF6DC2D68002DF0D110E0BDF86A
:100A900004103CA002F064FF6F46BDF8046005E05E
:100AA0004FF0C840B0F800013880B61E002EF7D1D4
:100AB000BDF8080000F43F4040B9BDF804004028EC
:100AC00004DBBDF80400B0F5C06F3FDDBDF80810D1
:100AD00032A002F045FFBDF8080000F4807010B1AC
:100AE00032A002F03DFFBDF8080000F4007010B124
:100AF00032A002F035FFBDF8080000F4004010B14C
:100B000032A002F02DFFBDF80400B0F5C06F0BDD80
:100B100033A000E00EE002F023FF0121002000F0EE
:100B200053F9052003F04EFE14B1204609F00EFDE6
:100B3000002466E70221FE2000F046F981202D49BD
:100B4000487008464178FF2000F03EF902480068EE
:100B500000F04CFD204671E73800002000010064E1
:100B6000646D393030302072783A207278206572A6
:100B7000726F722C2073746F702064657669636580
:100B80000D0A000070627566C4DAB4E6C9EAC7EB04
:100B9000CAA7B0DC3A25640D0A00000072785F73C2
:100BA00074617475733A2523780D0A007278206693
:100BB00069666F206572726F720D0A007278206329
:100BC0007263206572726F720D0A00007278206C79
:100BD000656E677468206572726F720D0A0000009E
:100BE0007278206C656E67746820746F6F2062691C
:100BF000670D0A008007002010B500201B4908601F
:100C00000A2003F0DFFD01201949C1F8A00164208A
:100C100003F0D8FD01211E2000F0D6F800211F208E
:100C200000F0D2F80321002000F0CEF800BF192018
:100C300003F0C8FD0020FFF7D1FE00F001000028FE
:100C4000F5D10021084600F0BFF80321002000F094
:100C5000BBF800BF192003F0B5FD0020FFF7BEFE72
:100C600000F001000028F5D110BD0000A0012442D1
:100C700000002442F8B5044600270026711E2A48C9
:100C8000006800F08FFC8021FF2000F09DF8F82024
:100C90002649088025461BE06889B84216DD38469B
:100CA000791C8FB26A68125C3046711CCEB20DF8A6
:100CB0000020022E0CD19DF800009DF8011040EAA2
:100CC00001201A49891C0880002601E02D680027B0
:100CD000002DE1D1012E04D19DF800001349891C9B
:100CE0000880217AFC2000F06FF82089010AFD209D
:100CF00000F06AF80121022000F066F800BFFE2033
:100D0000FFF76CFE00F002000028F8D00221FE2060
:100D100000F05AF806484178FF2000F055F80248E4
:100D2000006800F063FCF8BD38000020FE0000649D
:100D30008007002010B50446002306E0E15C03F1C3
:100D4000100000F041F8581CC3B2062BF6DB10BDB2
:100D500010B50446002306E0E15C03F1160000F044
:100D600033F8581CC3B2082BF6DB10BD70B506462D
:100D7000092E1BD2DFE806F0050C1A1A08101A1A01
:100D800015000024212511E04FF4807441250DE069
:100D90004FF40054812509E04FF4045440F201154A
:100DA00004E04FF4805440F2E11500BF00BF21463B
:100DB0000020FFF7F7FD29460420FFF7F3FD00218F
:100DC0001F2000F001F870BD034A10804FF0C842A8
:100DD000A2F8001170470000FE00006470B50A48D8
:100DE0000588FE20FFF7FAFD04462146FE20FFF7A6
:100DF000EBFF04F0010018B10448006802F07BFB2F
:100E00000148058070BD0000FE0000643400002031
:100E100021B1026842F00102026004E002684FF66C
:100E2000FE731A400260704701684FF6FE7211406F
:100E300001600021016041608160C1604B498842CE
:100E400008D14A490839496841F00F01474A083A30
:100E500051608AE045491431884208D14349083934
:100E6000496841F0F001414A083A51607DE03F494C
:100E70002831884208D13D490839496841F47061F8
:100E80003A4A083A516070E038493C31884208D10A
:100E900036490839496841F47041344A083A51608A
:100EA00063E032495031884208D1304908394968F5
:100EB00041F470212D4A083A516056E02B496431C3
:100EC000884208D129490839496841F47001274A04
:100ED000083A516049E025497831884208D12349D0
:100EE0000839496841F07061204A083A51603CE095
:100EF0001F49884206D1011F096841F00F01021FF6
:100F0000116032E01A491431884208D11849091F8A
:100F1000096841F0F001164A121F116025E01449DA
:100F20002831884208D11249091F096841F47061CB
:100F30000F4A121F116018E00D493C31884208D158
:100F40000B49091F096841F47041094A121F1160D9
:100F50000BE007495031884207D10549091F09684C
:100F600041F47021024A121F1160704708000240CC
:100F70000804024010B50022026847F6F0739A4355
:100F80000C6A8B6823430C6923434C6923438C69A7
:100F90002343CC6923434C6A23438C6A23431A437B
:100FA0000260CB6843600B6883604B68C36010BD10
:100FB0007047000010B54FF4006000F015F850B114
:100FC0004FF4006000F00AF801E0FFF707FF024865
:100FD00000680028F9D010BD2C8123420149086027
:100FE0007047000014040140014600200022074B16
:100FF0001B6803EA0102054B14331B680B4013B155
:101000000AB1012000E00020704700000004014008
:1010100070B504460B46CE1701EB9676C6F38700F3
:10102000CE1701EB9676B610A1EB8606B606350E06
:101030001C4B9B6943F001031A4EB3614FEAB63370
:1010400053F820300F26AE40B343174E46F82030F9
:10105000334653F8203004FA05F61E43124B43F88A
:101060002060124B1B6801268E4033430F4E3360C5
:1010700002F0010343B10D4B0C331B6801268E4077
:1010800033430A4E0C36336002F0020343B1074B80
:1010900008331E6801238B401E43044B08331E6037
:1010A00070BD000000100240080001400004014033
:1010B0002DE9FC4107460D46002600240020009043
:1010C000019008205B49086010204860402088603B
:1010D0000020C8604FF480600861084600F09EFE62
:1010E0001020FFF755FA044614B12046BDE8FC81F4
:1010F0005148008800044F4908603720486040206C
:1011000088600020C8604FF480600861084600F0E5
:1011100085FE3720FFF73CFA04460CB12046E5E790
:101120004FF0FF3045490860082048603020886053
:101130000220C8600020086101204861084600F0D4
:1011400011FE00203B490860332048604020886041
:101150000020C8604FF480600861084600F05EFE21
:101160003320FFF715FA04460CB12046BEE70CE029
:101170004FF4001000F020FE38B100F049FE4DF8A9
:101180002600761C022E00D306E02D48406B40F26C
:101190002A6108400028EBD000BF082000F00CFEB8
:1011A00020B1082000F0C2FD04209FE7022000F0DB
:1011B00003FE20B1022000F0B9FD022096E72020B6
:1011C00000F0FAFD20B1202000F0B0FD06208DE7F0
:1011D0004FF4007000F0F0FD28B14FF4007000F003
:1011E000A5FD072082E740F2FF5000F09FFD009828
:1011F0000006009901F47F4140EA0120009901F4C2
:101200007F0140EA1120009940EA1160686001986E
:101210000006019901F47F4140EA0120019901F49F
:101220007F0140EA1120019940EA116028602046C0
:101230005CE70000B007002044000020C407002045
:10124000008001402DE9F0410246002500260020E3
:1012500000230024002791F803C00CF00F0591F83B
:1012600003C00CF0100CBCF1000F03D091F802C0C9
:101270004CEA050591F800C0BCF1000F31D01468AC
:1012800000202BE04FF0010C0CFA00F3B1F800C085
:101290000CEA03069E4220D183004FF00F0C0CFA9B
:1012A00003F7BC4305FA03FC4CEA040491F803C0BD
:1012B000BCF1280F06D14FF0010C0CFA00FCC2F86B
:1012C00014C00AE091F803C0BCF1480F05D14FF0FB
:1012D000010C0CFA00FCC2F810C0401C0828D1D345
:1012E0001460B1F800C0BCF1FF0F34DD5468002079
:1012F0002EE000F1080C4FF0010808FA0CF3B1F8E9
:1013000000C00CEA03069E4221D183004FF00F0C6F
:101310000CFA03F7BC4305FA03FC4CEA040491F809
:1013200003C0BCF1280F05D100F1080C08FA0CF835
:10133000C2F8148091F803C0BCF1480F07D100F146
:10134000080C4FF0010808FA0CF8C2F81080401C95
:101350000828CED35460BDE8F08100BFFEE772B626
:10136000704762B670470000002004E00021044A84
:1013700022F81010401CB0F5706FF7D370470000D2
:10138000588200201CB5044600200190009021489E
:1013900000880004204908600D20486040208860D3
:1013A0000020C8604FF480600861084600F036FDF8
:1013B0001A48406B009002E01848406B009000987B
:1013C00000F045000028F7D0012000F0F5FC20B126
:1013D000012000F0ABFC01201CBD042000F0ECFC5F
:1013E00020B1042000F0A2FC0320F5E70B480069BF
:1013F0000D2801D01020EFE740F2FF5000F096FCDE
:101400000648406901900198C0F3432020700020F5
:10141000E2E7000044000020B00700200080014007
:101420002DE9F0410746884614461D46284600F03F
:1014300033F8C5F1040007FA00F60F20284100EA4E
:101440000800064306F00F06E21704EBD2625211C1
:10145000920002F1E022D2F800212146E31704EBCA
:10146000D3635B11A4EB431C012303FA0CF31A436F
:101470002046E31704EBD3635B119B0003F1E023E9
:10148000C3F800210348005D40EA061001490855F1
:10149000BDE8F08100E400E00146072323EA0102F1
:1014A0001202054B18684FF6FF031840034B184310
:1014B0001043014B186070470CED00E00000FA0586
:1014C00000BFFEE710B58C2000F0ECF904460CB923
:1014D000002010BD24600020A06060602046F8E776
:1014E00070B504460E4615460CB9002070BD681C48
:1014F000D0B900BF204600F037F80128FAD000F03C
:1015000087F96168481CC11700EBD1614911A0EB54
:101510004111616004F10C00616850F821003060F5
:1015200000F086F90120E1E715B1284600F058FAED
:10153000204600F019F8012814D000F069F961681C
:10154000481CC11700EBD1614911A0EB411161604A
:1015500004F10C00616850F82100306000F068F977
:101560000120C3E70020C1E70146D1E90102904212
:1015700001D1012070470020FCE710B5012000F0E8
:1015800091F904460CB9002010BD002020702046BF
:10159000FAE710B5044604B910BD204600F06EF914
:1015A00000BFF9E770B504460D460CB9002070BDC8
:1015B000681C58B900BF20780028FCD100F028F939
:1015C0000120207000F034F90120F0E715B1284621
:1015D00000F006FA207838B900F01AF901202070DE
:1015E00000F026F90120E2E70020E0E710B504460C
:1015F0000CB9002010BD00F00BF90020207000F0A5
:1016000017F90120F6E7704770B5002100230F227B
:10161000C47804B3154C246804F4E064C4F5E064B1
:10162000210AC1F10403CA40447804FA03F1847822
:101630001440214309010E4C0678A155047804F0AA
:101640001F050124AC4005786D11AD0005F1E025C2
:10165000C5F8004109E0047804F01F050124AC40FE
:10166000044D0678761145F8264070BD0CED00E07B
:1016700000E400E080E100E002490143024A116019
:10168000704700000000FA050CED00E02DE9FE4F68
:1016900006460F4690461C46DDF830A01C2000F0A0
:1016A00001F98146B9F1000F02D10020BDE8FE8F9B
:1016B000A00000F0F7F8054625B9484600F0DEF82E
:1016C0000020F3E70021601E05EB800043463A4608
:1016D000CDE9014100903146484600F00BF838B999
:1016E000284600F0CBF8484600F0C8F80020DDE7B7
:1016F0004846DBE72DE9F05F054689469246984665
:101700000A9C15B90020BDE8F09F0CB90020FAE74B
:1017100000F0A4F80746002F01DA0020F3E70B9849
:10172000A4EB800B26464FF080702060201F0446FB
:10173000C0F800902D49201F044601604FF012317F
:10174000201F044601604FF00331201F0446016052
:101750004FF00231201F044601604910201F04464B
:101760000160201F0446C0F800A04FF01131201F77
:10177000044601604FF01031201F044601604FF015
:101780000931201F044601604FF00831201F044634
:1017900001604FF00731201F044601604FF0063111
:1017A000201F044601604FF00531201F04460160F0
:1017B0004FF00431201F044601602C600020E860D7
:1017C00028616D6101202876B8F10A0F01DD4FF024
:1017D0000A0885F81980C5F804B0AE600C98A876A0
:1017E000034840F8275001208DE70000011A000847
:1017F00058A00020F8B504460D4616461F460020A6
:101800003B463246294600902046FFF73FFFF8BD91
:1018100010B5FEF79BFC0449086004480078401CA2
:101820000249087010BD0000780000207C000020F4
:1018300010B50848007800280BDD06480078401EE7
:10184000044908700846007818B903480068FEF794
:1018500081FC10BD7C00002078000020002106E003
:10186000054850F8210008B908467047491C10295E
:10187000F6D34FF0FF30F8E758A0002010B504462B
:10188000204602F08DF810BD00BF00BFFEE700004B
:1018900010B5FFF769FD00200149087010BD000078
:1018A0007D00002010B50446204602F097F810BDD8
:1018B00070B51C480068401C1A49086000242DE0DF
:1018C000194850F8240040B3174850F82400007E0F
:1018D000012822D1144850F82400006970B1FEF7A5
:1018E00035FC0546104850F824000069401E0E499A
:1018F00051F8241008612846FEF72CFCFEF726FC60
:101900000546094850F82400C068401C064951F8B3
:101910002410C8602846FEF71DFC641C102CCFD391
:1019200070BD00006C00002058A0002010B50348D6
:10193000007808B1FEF724FC10BD00007D000020F7
:1019400010B50448007818B1FFF7B2FFFFF7EEFFBB
:1019500010BD00007D00002010B540230A220021A8
:101960000548FFF747FF00B910BD01200349087083
:10197000FEF7F3FB00BFF7E7891800087D000020A1
:1019800001480068704700006C00002070B5FEF749
:10199000DDFB0546002415E00F4850F824000F49F0
:1019A000096888420DD10D4909684868FFF766FF4C
:1019B0000A480068FFF762FF0020074941F8240049
:1019C00002E0641C102CE7D300BF2846FEF7C2FBE0
:1019D000FEF7D6FB70BD000058A000207400002068
:1019E00070B50446FEF7B2FB054604480068046182
:1019F0002846FEF7AFFBFEF7C3FB70BD7400002066
:101A000010B510480068807E10B9FFF7BFFF18E0DE
:101A10000C48006890F8240010B9FFF7B7FF10E0F9
:101A200008480068C06907490968C968441A002C59
:101A300002DD2046FFF7D4FF0248006801F052FEA5
:101A400000BF10BD7400002010B5002100223E48E8
:101A50000068807E012811D13B48006890F825007D
:101A600001280BD13848006880683C38374B1B6828
:101A700018600020344B1B6883F825003448006848
:101A800070B30020002128E0324B53F82130304C55
:101A90002468A34201D101201EE001281BD12D4B57
:101AA00053F82130BBB12B4B53F821301B7E012B57
:101AB00011D1284B53F821301B6963B9244B1B68A3
:101AC0005B7E244C54F82140647EA34203D1214B19
:101AD00053F8212030E000BF491C1029D4D300BFA7
:101AE00000201B4B1860002123E01A4850F8210009
:101AF000E8B1184850F82100007E012817D1154898
:101B000050F82100006990B91AB1107E08B110692F
:101B100018B1104850F821200AE0507E0D4B53F8C0
:101B200021305B7E984202DD0A4850F8212000BF38
:101B3000491C1029D9D300BF044802600248026042
:101B400003480260106810BD74000020700000207F
:101B50008000002058A0002029B1064A52690243A3
:101B6000044B5A6104E0034A52698243014B5A61B3
:101B7000704700000010024029B1064A92690243F2
:101B8000044B9A6104E0034A92698243014B9A61D3
:101B9000704700000010024030B5002100220024F0
:101BA00000232D4D6D6805F00C0121B1042905D0ED
:101BB000082923D105E0294D056022E0274D056065
:101BC0001FE0254D6D6805F47012234D6D6805F416
:101BD0008034022505EB92421CB9214D5543056026
:101BE0000BE01D4D6D6805F400351DB11C4D5543CE
:101BF000056002E0194D5543056002E0174D056090
:101C000000BF00BF144D6D6805F0F0010909154DC6
:101C10006B5C0568DD4045600F4D6D6805F4E06163
:101C2000090A104D6B5C4568DD4085600A4D6D68A2
:101C300005F46051C90A0B4D6B5C4568DD40C56019
:101C4000054D6D6805F44041890B074D6B5CC56817
:101C5000B5FBF3F5056130BD0010024000127A00BB
:101C600000093D00560000206600002010B58023CA
:101C7000052200210148FFF7BDFD10BDC136000857
:101C80007CB50546002400200090019000260DB18F
:101C9000022600E000262248406900F0007008B1EA
:101CA0000E207CBD1F49098888B26946FFF700FAFB
:101CB00004460CB12046F4E7019800F4802060B39C
:101CC0001848008800041849086037204860402000
:101CD00088600020C8604FF480600861084600F00A
:101CE0009DF83720FEF754FC04460CB12046D8E797
:101CF0000D48066006200C4948604020886000209E
:101D0000C8604FF480600861084600F087F806203C
:101D1000FEF73EFC04462046C3E72520C1E700004D
:101D20000080014044000020B00700200149886382
:101D300070470000008001400149086070470000C2
:101D4000A00030420146034A506820F0FF000843DB
:101D500050607047008001400149086070470000F2
:101D60008C05304200210A4B02685A6242689A622E
:101D70001A46D16A21F0F701D0E902231A43036918
:101D80001A4343691A431143014AD1627047000064
:101D90000080014000200649086048608860C860F3
:101DA00048628862C862034888630020C86370473D
:101DB00000800140FF07C00001460020034A526B2B
:101DC0000A400AB1012000E0002070470080014075
:101DD0000248006800F003007047000000800140E6
:101DE00000210A4A516847F6FF629143027D8368E9
:101DF0001A4343681A43C3681A4303681A430369C2
:101E00001A431143014A51607047000000800140AD
:101E10000148006870470000808001400021094BA4
:101E200002689A601A46D1686FF30A01D0E901236B
:101E30001A43C3681A4303691A431143014AD16024
:101E400070470000008001400549096821F0030146
:101E5000034A116011460968014311607047000090
:101E60000080014001490860704700008080014007
:101E700070B58CB006460C46154601210220FFF7CE
:101E80006BFE1348FEF7D0FF00211148FEF7C0FF9C
:101E90001048019002960395A00804900020059038
:101EA0008020069080000790800008900020099014
:101EB0004FF400500A9000200B9001A90448FFF74E
:101EC00059F800210248FEF7A3FF0CB070BD0000D6
:101ED000440402408080014070B504460025164845
:101EE0000078032801D1272070BD1348007838B14D
:101EF00011480078012803D00F480078022818D133
:101F0000022C01D32720EFE7E0B2FFF7B9FE054628
:101F10007DB90A48406820F4C05008494860084626
:101F20004068A1B240EAC1200449486008464068C0
:101F300048602846D8E700004000002000800140AB
:101F4000F0B5014600200022BE4B1B7881F85630C8
:101F5000BD4B1B88A1F85430BC4B1B681A0E93096B
:101F60000B70C2F383034B7002F003038B70B74B0B
:101F70001B68C3F30742CA70B44B1B88C3F3072224
:101F80000A71B24B1A784A715B681A0E1301CB8042
:101F9000AE4B5B68C3F30742CB8843EA1213CB8096
:101FA00002F00F030B72A94B9B88C3F30722D309DE
:101FB0004B72C2F380138B72C2F34013CB72C2F325
:101FC00000130B7300234B739E4B1B783BB19D4B4F
:101FD0001B78012B03D09B4B1B78032B4FD193070E
:101FE0001B0D0B61994B1A790B6943EA82030B6154
:101FF000964B9B681A0E0B6943EA92130B61C2F36E
:10200000C2030B7502F007034B75904B9B68C3F33B
:10201000074253098B75C2F38203CB7593075B0F9D
:102020000B768A4B1B89C3F307220B7E43EAD2133C
:102030000B760B695B1C0024C1E912340B7E9B1CE0
:10204000012404FA03F3DC17D1E91256A5FB037C43
:1020500006FB03C305FB0433C1E912730C7A0123A9
:10206000A3400B650024D1E912650B6DA6FB037C30
:1020700005FB03C306FB0433C1E912732EE0714B69
:102080001B78022B2AD1714B1A7993069B0A0B619C
:102090006E4B9B681A0E0B6943EA02230B616B4B74
:1020A0009B68C3F307420B6913430B61674B1B89A2
:1020B000C3F307220B695B1C4FF40074A3FB0446B7
:1020C0004FF480630025A4FB037C06FB03C304FBE1
:1020D0000533C1E912734FF400730B65C2F380132B
:1020E00001F8193F93065B0E4B70584B1A7A4B78E8
:1020F00043EAD2134B7002F07F038B70534BDB68C3
:102100001A0ED309CB70C2F341130B71C2F38203D1
:102110004B7193071B0F8B714C4BDB68C3F307426A
:102120008B7943EA92138B71C2F34013CB71002376
:102130000B7202F001034B72444B9B89C3F30722DD
:10214000D3098B72C2F38013CB72C2F340130B73AB
:10215000C2F300134B73C2F381038B7302F00303CA
:10216000CB733A4B1A7B53080B7401234B74384BD7
:102170001B681A0ECA741939354B1B68C3F3074222
:102180001402CC85324B1B88C3F30722CB8D13433B
:10219000CB852F4B1A7814060C635B681A0E0B6BF9
:1021A00043EA02440C632A4B5B68C3F307420B6BA0
:1021B00043EA02240C63264B9B88C3F307220B6B74
:1021C00013430B63224B1A7934235A54204B9B68D8
:1021D0001A0E35235A541E4B9B68C3F3074214064C
:1021E0008C631B4B1B89C3F307228B6B43EA0244AE
:1021F0008C63174B1A7A8B6B43EA02248C63144B63
:10220000DB681A0E8B6B13438B63114BDB68C3F3D4
:1022100007423C235B5C43EA12143C235C541307E3
:102220001C0DCC870A4B9B89C3F30722CB8F13432A
:10223000CB87074B1A7B540840235C54012441236D
:102240005C54F0BD4000002044000020DC0700206A
:10225000EC0700207CB50025002401213020FFF789
:102260008BFC012140F20240FFF776FC4FF4F8505E
:10227000ADF8000018208DF8030003208DF802004F
:1022800069463048FEF7DEFF0420ADF80000182054
:102290008DF8030003208DF8020069462A48FEF7F6
:1022A000D1FF8020ADF8000048208DF80300032006
:1022B0008DF8020069462448FEF7C4FFFFF76AFD67
:1022C00031208DF8040000208DF805008DF80600FF
:1022D00001208DF8070001A8FFF796F900F0E4F857
:1022E000044614B900F036F804461CB91748FFF745
:1022F00027FE044634B91549B1F85410080400F01B
:10230000B7FC04461CB90120FFF7E6FD04461CB1EA
:102310000F480078032812D10C4890F8560020B1DD
:102320000A4890F85600012801D1162500E0102532
:102330002846FFF707FD002000F0B2FC04462046C7
:102340007CBD000000100140001401400008002086
:102350004000002038B5002401200090FFF738FD30
:1023600008B9252038BD4A480078042821D000202B
:102370004849086002204860C02088600020C8608A
:102380004FF4806008610846FFF748FDFEF730F91A
:1023900004460CB12046E5E73F4840693F490860E4
:1023A0003D48806948603C48C06988603A48006A96
:1023B000C8603748007858B135480078012807D000
:1023C00033480078062803D031480078022816D117
:1023D00000203049086003204860402088600020C9
:1023E000C8604FF4806008610846FFF717FD694632
:1023F0000320FEF743F904460CB12046B2E7244817
:102400000078032816D1BDF80000000421490860B7
:1024100003204860402088600020C8604FF480603E
:1024200008610846FFF7FAFCFEF7E2F804460CB133
:10243000204697E716480078042827D0BDF800000A
:1024400017490860BDF8000000041249086009201F
:102450004860C02088600020C8604FF48060086138
:102460000846FFF7DBFCFEF7C3F804460CB1204634
:1024700078E7094840690B49086007488069486067
:102480000548C06988600448006AC860002069E7A0
:1024900040000020B007002000800140EC07002031
:1024A00044000020DC0700202DE9F047002700242D
:1024B00000260025A046A146B2206F4908750020DD
:1024C000086048608860C8604FF480400861084632
:1024D000FFF786FC0320FFF7B7FC0120FFF72CFC79
:1024E0004FF47A7002F06EF900BF12E000206349E9
:1024F000086048608860C8604FF4806008610846E2
:10250000FFF78CFCFEF72BF8044604B903E0781CB7
:10251000C7B24A2FEADB00BF14B12046BDE8F087FE
:102520004FF4D57055490860082048604020886005
:102530000020C8604FF4806008610846FFF76EFC19
:10254000FEF7E4F8044624B901204D4908704FF025
:102550008049002049490860372048604020886051
:102560000020C8604FF4806008610846FFF756FC01
:102570003720FEF70DF80446002C4BD134E0002044
:102580003E49086037204860402088600020C860CD
:102590004FF4806008610846FFF740FC3720FDF7E4
:1025A000F7FF04460CB12046B8E7364849EA000078
:1025B0003249086029204860402088600020C860B7
:1025C0004FF4806008610846FFF728FCFEF73AF8F0
:1025D00004460CB12046A1E72B484669012080EA59
:1025E000D67080F001086D1CB8F1000F03D14FF6D2
:1025F000FF708542C3D34FF6FF70854202D31B2480
:1026000020468BE706F08040061E32D002201C498F
:1026100008702EE01CE01D48184908600120486041
:10262000402088600020C8604FF480600861084640
:10263000FFF7F4FBFEF706F804460CB120466DE701
:1026400011484669012080EAD67080F001086D1CAF
:10265000B8F1000F03D14FF6FF708542DBD34FF680
:10266000FF70854202D31B24204657E7032004490C
:102670000870204652E7000098070020B0070020AD
:102680004000002000001080008001400080FF809A
:102690002DE9F84F8146174698460A9C4FF0000AEC
:1026A000D3464D464FF0FF36B9F1000F02D1262038
:1026B000BDE8F88F00208249C8628248007802286D
:1026C00005D10402780A40EAC8574FEA682800207A
:1026D0007D4988604860401E0860012048610020F4
:1026E000C86008610846FFF73DFB7548406900F087
:1026F000007008B10E20DBE7002C21DDB4F5006F7F
:102700001EDC601E2040D8B9204601F067FD009015
:102710006E48046010206D494860402088600020A9
:10272000C8604FF4806008610846FFF777FB10200F
:10273000FDF72EFF8246BAF1000F03D05046B7E7EF
:102740002620B5E7009800015F498860084644608C
:102750004FF0FF300860012048610220C86000206F
:1027600008610846FFF7FEFA5848076011205749EC
:102770004860402088600020C8604FF48060086195
:102780000846FFF74BFB1120FDF702FF8246BAF126
:10279000000F01D050468BE74D48007800285AD1F1
:1027A000FEF7DDFD18E04FF40040FFF705FB78B1C0
:1027B0004FF0000B06E042488030006845F82B00DF
:1027C0000BF1010BBBF1080FF5D32035414E03E0AF
:1027D0000EB904206CE7761E3948406B40F22A613E
:1027E00008400028DFD00820FFF7E6FA20B10820D3
:1027F000FFF79CFA04205BE70220FFF7DDFA20B127
:102800000220FFF793FA022052E72020FFF7D4FAC4
:1028100020B12020FFF78AFA062049E74FF4007024
:10282000FFF7CAFA28B14FF40070FFF77FFA0720CC
:102830003EE703E0FFF7ECFA28602D1D4FF400108F
:10284000FFF7BAFA0028F5D1FEF78BFD40F2FF50F2
:10285000FFF76CFA31E01E48007801282DD10022E4
:1028600021464846FFF704FB00201B4908701B491E
:1028700008701B4908701248C06B40F22A310843A7
:102880000F49C8630120FFF767FA00E0761E15487C
:10289000006800F4005038B91148007820B90E489B
:1028A000007808B9002EF1D10EB9042000E70A48DB
:1028B000007810B1084890F800A05046F8E60000F3
:1028C0000080014040000020C4070020B007002025
:1028D00048000020FFFF7F004A0000204900002040
:1028E0004B000020000402402DE9FE4F83460E46B7
:1028F000914600200290002534462148007818B106
:10290000680240EAD45564020BF00300F0B14FF0C6
:10291000000A18E04FF4007000904FEA4A200719AF
:1029200045EBE0733A461748FFF7B2FE02904FF4CA
:10293000007214495846FDF7C3FC0BF5007B0AF101
:10294000010000F0FF0ACA45E4DB16E0B9F1010F0F
:1029500009D14FF4007022462B4600905846FFF7ED
:1029600097FE029009E04FF4007022462B46CDE915
:102970000009584600F008F802900298BDE8FE8F62
:1029800040000020580800202DE9FF5F17469846B8
:10299000DDE90E464FF00009CA464FF0FF35A94960
:1029A000009808600020A849C862A848007802285A
:1029B00005D10402780A40EAC8574FEA6828002087
:1029C000A34988604860401E0860012048610020DB
:1029D000C86008610846FFF7C5F99B48406900F0E8
:1029E000007018B10E2004B0BDE8F09F002C21DD6E
:1029F000B4F5006F1EDC601E2040D8B9204601F0FF
:102A0000EDFB8346934804601020924948604020C3
:102A100088600020C8604FF4806008610846FFF7B6
:102A2000FDF91020FDF7B4FD8146B9F1000F03D088
:102A30004846D8E72620D6E7012E70D906FB04F0D9
:102A4000B0F1007F01D32620CDE74FEA0B1080497B
:102A5000886006FB04F048604FF0FF3008600120FA
:102A600048610220C860002008610846FFF77AF933
:102A7000784807601220774948604020886000202D
:102A8000C8604FF4806008610846FFF7C7F912205C
:102A9000FDF77EFD8146B9F1000F01D04846A2E75F
:102AA0006D48007800287DD1FEF759FC1EE04FF4F8
:102AB0000040FFF781F9A8B14FF0000A08E0624832
:102AC000803000685F49096841F82A000AF1010A6C
:102AD000BAF1080FF3D35B48006820305949086009
:102AE0005E4D03E00DB904207DE76D1E5648406B36
:102AF00040F22A3108400028D9D00820FFF75CF9BD
:102B000020B10820FFF712F904206CE70220FFF73C
:102B100053F928B10220FFF709F9022063E78EE09C
:102B20002020FFF749F920B12020FFF7FFF8062009
:102B300059E74FF40070FFF73FF928B14FF40070E8
:102B4000FFF7F4F807204EE709E0FFF761F93D4988
:102B5000096808603B480068001D3A4908604FF466
:102B60000010FFF729F90028EFD14FF48070FFF72C
:102B700023F920B33548007838B13448007801286B
:102B800003D032480078022819D10020314908606A
:102B90000C204860402088600020C8604FF48060AE
:102BA000086100E012E00846FFF738F90C20FDF755
:102BB000EFFC8146B9F1000F01D0484613E7FEF75C
:102BC000D0FB40F2FF50FFF7B1F838E02248007820
:102BD000012834D106FB04F100220098FFF748F9E0
:102BE00000201F49087001201E49087000201E495E
:102BF00008701548C06B40F22A3108431249C86377
:102C00000846C06A40F00800C86200E06D1E174820
:102C1000006800F4005008B9002DF7D10DB9042068
:102C2000E1E600BF1048007818B90D480078002888
:102C3000F8D00B48007810B1094890F80090484649
:102C4000D1E600004C000020008001404000002040
:102C5000C4070020B007002048000020FFFF7F00CD
:102C60004A000020490000204B00002000040240E0
:102C700010B5044609480460072008494860402010
:102C800088600020C8604FF4806008610846FFF744
:102C9000C5F80720FDF77CFC10BD0000B007002040
:102CA00001460020012900D011B9024B197000E043
:102CB00026207047480000202DE9FF5F86B01746A8
:102CC0009846149D0026002005900490002481461B
:102CD0000390824602900195DDF818B0DDF818B037
:102CE000BBF1000F03D126200AB0BDE8F09F002001
:102CF000C449C862C44988604860401E0860012019
:102D000048610020C86008610846FFF72BF8BD48FD
:102D1000406900F0007008B10E20E5E7BB4800787C
:102D2000022805D10502780A40EAC8574FEA682808
:102D3000002D1FDDB5F5006F1CDC681E2840C8B9EA
:102D4000284601F04BFA0590B14805601020B049C3
:102D50004860402088600020C8604FF480600861AF
:102D60000846FFF75BF81020FDF712FC06461EB17F
:102D70003046B9E72620B7E7A64800880004A449F2
:102D800008600D204860402088600020C8604FF433
:102D9000806008610846FFF741F80D20FDF7F8FB59
:102DA00006460EB130469FE79648406903904FF0C3
:102DB000FF341BE0641E97480088000494490860B3
:102DC0000D204860402088600020C8604FF480607B
:102DD00008610846FFF722F80D20FDF7D9FB0646EB
:102DE0000EB1304680E7874840690390039800F4AD
:102DF000807008B9002CDDD10CB9292074E7844813
:102E00000760182082494860402088600020C86020
:102E10004FF4806008610846FFF700F81820FDF7BE
:102E2000B7FB06460EB130465EE700207A490870CF
:102E30000598000174498860084645604FF0FF30EE
:102E40000860012048610020C86008610846FEF75C
:102E500089FF4FF0FF347148007800287BD1FEF7DE
:102E60007EFA43E04FF48040FEF7A6FFC8B3019816
:102E7000A0EB0900202821D20198A0EB090000F066
:102E8000030020B90198A0EB0900800804E0019834
:102E9000A0EB09008008401C02904FF0000A09E0F6
:102EA000DBF80000FEF7DEFF0AF1010A0BF1040B6C
:102EB00009F1040902988245F2D30FE04FF0000AAD
:102EC00005E05BF82A00FEF7CDFF0AF1010ABAF12E
:102ED000080FF6D30BF1200B09F120096FF04044E5
:102EE00004E0FFE70CB90420FEE6641E4548406B91
:102EF00040F21A6108400028B4D00820FEF75CFFB9
:102F000020B10820FEF712FF0420EDE60220FEF7B4
:102F100053FF20B10220FEF709FF0220E4E6102053
:102F2000FEF74AFF20B11020FEF700FF0520DBE688
:102F30004FF40070FEF740FF30B14FF40070FEF721
:102F4000F5FE0720D0E606E0FEF70BFA40F2FF5050
:102F50002C4988633EE03148007801283AD110229C
:102F600029460698FEF784FF00202D4908702A495B
:102F700008702C4908702348C06B40F21A3108438E
:102F80002049C8630846C06A40F00800C86200E0F3
:102F9000641E2548006800F4005008B9002CF7D1E1
:102FA0001CB9FFF757F904209EE64FF0FF3400E00C
:102FB000641E1C48007820B91948007808B9002C14
:102FC000F6D10CB904208FE61548007810B11448EA
:102FD000007889E640F2FF50FEF7A8FE04A8FEF74D
:102FE000D1F9064603E004A8FEF7CCF906463EB93F
:102FF0009DF810000728F6D09DF810000628F2D0A2
:10300000304671E600800140C407002040000020E7
:10301000B0070020440000204900002048000020A4
:103020004A0000204B000020000402402DE9FE4F22
:103030000646894692460020029000254C462148CB
:10304000007818B1680240EAD455640206F0030023
:10305000F0B14FF0000B18E04FF4007231461A48FF
:10306000FDF72EF94FF4007000904FEA4B2007193E
:1030700045EBE0733A461448FFF71EFE029006F552
:1030800000760BF1010000F0FF0BD345E4DB16E006
:10309000BAF1010F09D14FF4007022462B4600907F
:1030A0003046FFF709FE029009E04FF40070224617
:1030B0002B46CDE9000A304600F008F8029002984D
:1030C000BDE8FE8F40000020580800202DE9FF5F7A
:1030D00084B0DDE91247002600200390029000250D
:1030E00080468146019007FB04FBDDF810A0DDF867
:1030F00010A0BAF1000F03D1262008B0BDE8F09F60
:103100000020D849C862D84988604860401E0860DD
:10311000012048610020C86008610846FEF722FED1
:10312000D048406900F0007008B10E20E5E7CF48B4
:103130000078022808D10402DDE90601400A40EACD
:10314000C1504912CDE90601002C1FDDB4F5006F16
:103150001CDC601E2040C8B9204601F03FF80390F7
:10316000C34804601020C2494860402088600020A5
:10317000C8604FF4806008610846FEF74FFE1020DB
:10318000FDF706FA06461EB13046B6E72620B4E73C
:10319000012F6FD907FB04F0B0F1007F01D3262087
:1031A000ABE7B248007838B1B0480078012803D0C6
:1031B000AE48007802282DD1AE4800880004AC4902
:1031C000086037204860402088600020C8604FF4C5
:1031D000806008610846FEF721FE3720FDF7D8F928
:1031E00006460EB1304688E7A14807601720A0497F
:1031F0004860402088600020C8604FF4806008610B
:103200000846FEF70BFE1720FDF7C2F906460EB181
:10321000304672E7964906980860192048604020B9
:1032200088600020C8604FF4806008610846FEF79F
:10323000F5FD1920FDF7ACF906460EB130465CE706
:10324000039800018849886007FB04F048604FF04C
:10325000FF300860012048610020C860086108460E
:10326000FEF780FD84480078002871D1451EFEF7E6
:1032700076F840E0DEE07B48406B00F48040A8B385
:10328000ABEB080020281ED2ABEB080000F00300D7
:1032900018B9ABEB0800800803E0ABEB080080082E
:1032A000401C01904FF0000909E0DAF80000FEF739
:1032B000D9FD09F101090AF1040A08F1040801988D
:1032C0008145F2D30FE04FF0000905E05AF82900DC
:1032D000FEF7C8FD09F10109B9F1080FF6D30AF1AB
:1032E000200A08F120086FF0404504E0FFE70DB91F
:1032F000042002E76D1E5B48406B40F21A31084023
:103300000028B8D00820FEF757FD20B10820FEF7AE
:103310000DFD0420F1E60220FEF74EFD20B1022053
:10332000FEF704FD0220E8E61020FEF745FD20B17F
:103330001020FEF7FBFC0520DFE64FF40070FEF7DF
:103340003BFD30B14FF40070FEF7F0FC0720D4E6EF
:103350002CE04FF48070FEF72FFD00B34348007857
:1033600038B142480078012803D04048007802284C
:1033700015D100203E4908600C204860402088603C
:103380000020C8604FF4806008610846FEF746FDE3
:103390000C20FDF7FDF806460EB13046ADE6FDF710
:1033A000E0FF40F2FF50FEF7C1FC43E032480078F6
:1033B00001283FD107FB04F110220498FEF758FDC5
:1033C00000202E49087001202D49087000202D4949
:1033D00008702448C06B40F21A3108432149C86381
:1033E0000846C06A40F00800C8624FF0FF3500E0B0
:1033F0006D1E2548006800F4005008B9002DF7D173
:103400001DB9FEF727FF042077E64FF0FF3500E0F7
:103410006D1E1C48007820B91848007808B9002DA6
:10342000F6D10DB9042068E61448007810B11348AD
:10343000007862E640F2FF50FEF778FC02A8FDF744
:10344000A1FF064603E002A8FDF79CFF06463EB931
:103450009DF808000728F6D09DF808000628F2D04D
:1034600030464AE600800140C407002040000020AA
:10347000B007002044000020480000204A0000203F
:10348000490000204B00002000040240704770B546
:1034900005460E460C20FEF705FA04460CB900203E
:1034A00070BD256066602046FAE770B504460D469B
:1034B0000CB9002070BD681C60B900BF20680028EE
:1034C000FCD0FEF7A5F92068401E2060FEF7B0F999
:1034D0000120EFE715B12846FEF782FA206840B1D7
:1034E000FEF796F92068401E2060FEF7A1F9012042
:1034F000E0E70020DEE710B504460CB9002010BD5F
:10350000FEF786F92068401C2060D4E9000188425B
:1035100001D960682060FEF78BF90120EFE710B554
:1035200000F002F810BD00000CB5002001900090E2
:103530003348006840F480303149086000BF3048AB
:10354000006800F4003000900198401C0190009841
:1035500018B90198B0F5A06FF1D12948006800F4BE
:10356000003010B10120009001E000200090009890
:10357000012843D12348006840F010002149086029
:103580000846006820F0030008600846006840F024
:10359000020008601A4840681949486008464068B7
:1035A00048600846406840F48060486008464068CB
:1035B00020F47C1048600846406840F4E8104860F9
:1035C0000846006840F08070086000BF0C48006842
:1035D00000F000700028F9D00948406820F003008E
:1035E000074948600846406840F00200486000BF54
:1035F0000348406800F00C000828F9D10CBD000019
:10360000001002400020024010B5FEF799F910BDED
:1036100010B51348006840F00100114908600846E1
:103620004068104908400E494860084600680E4945
:1036300008400B4908600846006820F480200860B4
:103640000846406820F4FE0048604FF41F00886080
:10365000FFF765FF4FF000600449086010BD0000EF
:10366000001002400000FFF8FFFFF6FE08ED00E04A
:1036700010B50121064800F012F840B101210448BC
:1036800000F00AF803480068401C0249086010BDB9
:10369000000400403C000020CA430282704730B55D
:1036A0000246002000230024158A05EA01039589BB
:1036B00005EA010413B10CB1012000E0002030BD87
:1036C00010B5044600BF4FF4807306220021034862
:1036D000FEF790F80249086010BD0000ED6B00088D
:1036E0002000002070B50546FEF792F8A868286013
:1036F000E86928610020E860012085F825002C6831
:1037000000062060201F0446296A01602449201F0A
:10371000044601604FF01231201F044601604FF053
:103720000331201F044601604FF00231201F044680
:1037300001604910201F044601600021201F04463B
:1037400001604FF01131201F044601604FF010312D
:10375000201F044601604FF00931201F044601601C
:103760004FF00831201F044601604FF00731201F41
:10377000044601604FF00631201F044601604FF0FF
:103780000531201F044601604FF00431201F04461C
:1037900001602C60FEF74CF8FCF7F2FC70BD0000F5
:1037A000011A000810B540F22551044800F014F841
:1037B00018B1024800F0CCF8C4B210BD0038014086
:1037C00021B1828942F40052828104E082894DF65F
:1037D000FF731A408281704770B5024600240023AF
:1037E0000025002040F66A16B14200D100BFC1F3A7
:1037F000421501F01F03012606FA03F3012D02D141
:103800009689334006E0022D02D1168A334001E04A
:10381000968A33400C12012606FA04F416883440C6
:1038200013B10CB1012000E0002070BDF0B50346DB
:10383000002400260025002040F66A17B94200D176
:1038400000BF1846C1F3421401F01F06012707FA12
:1038500006F5012C01D10C3004E0022C01D110300E
:1038600000E014301AB107682F43076002E00768D0
:10387000AF430760F0BD00002DE9F04786B0054674
:103880000E460024A24600BFA1460027B08900B121
:1038900000BF2F462C8A4CF6FF700440F08804438A
:1038A0002C82AC894EF6F3100440B088318908436D
:1038B000718908430443AC81AC8A4FF6FF40044051
:1038C000B0890443AC8201A8FEF766F91F4887421D
:1038D00002D1DDF810A001E0DDF80CA0A88900F409
:1038E000004040B10AEBCA0000EB0A103168490001
:1038F000B0FBF1F807E00AEBCA0000EB0A103168F0
:103900008900B0FBF1F86420B8FBF0F00401200955
:10391000642101FB1089A88900F4004040B13220E5
:1039200000EBC900B0FBF1F000F00700044308E031
:10393000322000EB09106421B0FBF1F000F00F0021
:1039400004432C8106B0BDE8F08700000038014038
:1039500001468888C0F30800704700BFFEE70000FA
:103960000FB4054B10B503A9044A029800F08CF877
:1039700010BC5DF814FB00007975000850000020B1
:1039800002E008C8121F08C1002AFAD17047704728
:10399000002001E001C1121F002AFBD17047000086
:1039A00070B5024602B970BD0A4D541BE008B0F56F
:1039B000706F00D9F7E7084D35F81030014604E084
:1039C0000025054E26F81150491C1D188D42F7D8C8
:1039D00000BFE8E7580A0020588200202DE9F05F78
:1039E00007464FF00008C2463846FCF714FD8346F0
:1039F0004FF08241FCF7D1FC8146FD082846FCF7D8
:103A00000AFD83464946FCF70BFD00D26D1C0024DD
:103A100012E01B4830F8140040B908F10108A8452D
:103A200002D14FF0010A0AE0641C05E04FF00008E3
:103A3000134830F814000444B4F5706FE9D300BFA4
:103A4000BAF1010F02D1B4F5706F02D30020BDE8C6
:103A5000F09F681E241A26460AE0A64203D10849B0
:103A600021F8145003E00120054921F81600761CC6
:103A70006019B042F1D80348082101FB0400E6E7D1
:103A800058820020580A00202DE9FF4F8DB00F46C4
:103A90000546002606E025280BD0DDE90F129047E9
:103AA0006D1C761C28780028F5D111B03046BDE891
:103AB000F08F0024A246A1460122EC4900E0044315
:103AC00015F8013F203B02FA03F00842F7D12878AD
:103AD0002A2810D06FF02F022878A0F13001092990
:103AE00014D80AEB8A0102EB410144F0020400EB16
:103AF000010A6D1CF0E701CF5FEA000A03D544F428
:103B00000054CAF1000A44F002046D1C28782E28E3
:103B100017D115F8010F44F004042A280ED06FF0D5
:103B20002F022878A0F1300109290AD809EB890170
:103B300002EB410100EB01096D1CF2E757F8049B11
:103B40006D1C28786C280FD006DC4C2817D068280C
:103B50000DD06A2814D104E0742810D07A280FD12F
:103B60000DE044F400140AE044F4801401E044F44D
:103B700040146978814202D104F580146D1C6D1CDB
:103B80002A786E2A1FD00CDC632A31D004DC002A8C
:103B90008BD0582A11D1A3E0642A68D0692A0CD1AD
:103BA00065E0732A2ED004DC6F2A73D0702A04D10A
:103BB0009BE0752A6FD0782A6ED01046DDE90F128F
:103BC0009047761C50E1C4F30250022806D0032827
:103BD00009D0042801CF09D0066045E101CFF117D3
:103BE000C0E9006140E101CF06803DE106703BE1A4
:103BF00017F8040B8DF8000000208DF80100EB464B
:103C0000012003E057F804BB4FF0FF3061074FF08D
:103C1000000102D40DE008F10101884649450FDAA0
:103C20008045F8DB1BF808100029F4D108E008F102
:103C3000010188468142FADB1BF808100029F6D101
:103C4000DDE90F23AAEB08008146214600F036F992
:103C5000304400EB080604E0DDE90F121BF8010B0D
:103C60009047B8F10108F7D221464846F7E00A210B
:103C7000C4F302534FF0000B0891022B04D001CF84
:103C8000C117032B09D00AE0FF1D27F00707F7E84B
:103C9000020108E032E01FE020E000B2C117042B6F
:103CA00001D140B2C117031E71F1000307DA4FF0D2
:103CB000000CD0EB0C006CEB01012D2302E023057E
:103CC00004D52B238DF82430012303E0E30701D032
:103CD0002023F7E7984658E00A2110E010210EE073
:103CE00010204FF0000B08900CE010214FF0000B5B
:103CF00044F004044FF00809089103E008214FF054
:103D0000000B0891C4F30253022B04D001CF002111
:103D1000032B06D006E0FF1D27F00707F7E8020196
:103D200003E080B2042B00D1C0B24FF0000823079B
:103D30002BD5702A07D0DDF820C08CF0100C5CEA7F
:103D40000B0C05D00EE040238DF82430012308E051
:103D500050EA010306D030238DF824308DF8252059
:103D600002239846DDF820C08CF0080C5CEA0B0CAE
:103D70000BD150EA010301D1630706D530238DF83A
:103D800024304FF00108A9F10109582A04D038A2C3
:103D90000B9208AA0A920BE03AA2F9E75B46089A4E
:103DA000FCF726FA0B9B9B5C0A9A521E0A92137030
:103DB00050EA0102F2D10A98ADEB000000F1200BAD
:103DC000600702D524F4803401E04FF00109D945A1
:103DD00002DDA9EB0B0000E0002000EB0B014144E9
:103DE0000890AAEB010AE00306D4DDE90F2321467F
:103DF000504600F063F806444FF0000908E009A9B6
:103E000011F80900DDE90F12904709F10109761C4C
:103E1000C145F4DBE0030CD5DDE90F232146504614
:103E200000F04CF8064404E0DDE90F123020904722
:103E3000761C0899481E08900029F5DC08E00A98CD
:103E40000A990078491C0A91DDE90F129047761C07
:103E5000BBF10001ABF1010BF1DC21465046DDE97D
:103E60000F2300F019F806446D1C1BE60928010019
:103E700030313233343536373839616263646566E0
:103E800000000000303132333435363738394142A2
:103E900043444546000000002DE9F041044600255A
:103EA0001E461746880404D405E039462020B04752
:103EB0006D1C641EF9D52846BDE8F0812DE9F0415E
:103EC000044600251E469046C80301D5302700E071
:103ED0002027880404D505E041463846B0476D1CCC
:103EE000641EF9D52846BDE8F0812DE9F047044667
:103EF0000D4690469946AD1EA06C00EB153AC5F3F1
:103F0000C80605F0070101208840C7B200BF51462E
:103F10000AF1010A204605F083FF10B10120BDE837
:103F2000F08700BF00BF04F15000805D384008B149
:103F3000012000E00020484501D10220EFE704F114
:103F40005000805D784004F1500188550120E070F8
:103F5000A8F10100B0F1000800D1E0E77806000EFA
:103F6000071EE0D10127701C0646B0F5007FD9D3AB
:103F70000026CCE770B504460D460020E070401ED8
:103F8000E0642946204605F04BFF08B1042070BDCF
:103F900004F24E2005F096F94AF65521884201D0E8
:103FA0000320F4E70B2214A104F1500005F0CCFC2F
:103FB00008B90120EBE794F85000E92807D094F8FD
:103FC0005000EB2803D094F85000E82811D10322C8
:103FD0000CA104F1860005F0B7FC08B90020D6E773
:103FE000052209A104F1A20005F0AEFC08B90020E9
:103FF000CDE70220CBE70000EB76904558464154D0
:104000002020200046415400464154333200000035
:10401000024600E0521C107810B110788842F9D1A5
:104020001078704730B502460B46002400211CE092
:104030001A4800EB01100068A8B1184800EB011005
:1040400000681568A8420FD1144800EB01104068C1
:104050009568A84208D1114800EB01108068156BE3
:10406000A84201D103E00124491C0A29E0D300BF82
:104070000A2906D11CB9022B01D0122030BD002024
:10408000FCE733B9054800EB01108089B0F5807F6B
:1040900001D11020F2E70020F0E7000098F60020A0
:1040A000014600200BE0074A02EB001212688A4228
:1040B00004D10022034B03EB00131A60401C0A28B2
:1040C000F1D3704798F600202DE9F84F8246154647
:1040D0001E46DAF800000090DAF8500000F10409FA
:1040E0004FF40072002328463146FCF781F807465A
:1040F0000098B0F80AC0624600233846FCF778F80A
:10410000834600BF59F8044B14B90020BDE8F88F6E
:10411000A34500D204E0ABEB040B09F10409F1E77D
:1041200000BFD9F800005844F0E70246891E106B22
:10413000801E884201D8002070475389506C03FBD1
:104140000100F9E72DE9F04780460C4604F11A001A
:1041500005F0B8F810B10020BDE8F087207800F035
:104160003F00401E00EB800101EBC0054FF001094C
:10417000002621E01849895D081905F0A3F80746D3
:10418000B9F1000F11D0FF2D0BD2384602F0FEFD21
:10419000824629466D1C38F8110002F0F7FD824571
:1041A00001D00020D8E7B94605E04FF6FF708742FE
:1041B00001D00020D0E7761C0D2EDBD3207800F054
:1041C000400038B1B9F1000F04D038F8150008B13B
:1041D0000020C1E70120BFE73C03010801460020A1
:1041E00002E04910421CD0B20129FAD170472DE9F2
:1041F000F04706468A463468BAF1000F0AD1D4F86F
:104200001880B8F1000F02D0206B404516D84FF04F
:10421000010813E05146304603F05EFA0746022FCC
:1042200002D20120BDE8F087781C08B93846F9E7CA
:10423000206BB84201D93846F4E7D046E06908B9A6
:104240000020EFE7207804284ED101224146204685
:1042500002F031FE05460DB1681C08B92846E1E7B9
:1042600001231A4629462046FFF73FFE8146B9F151
:10427000020F01D10120D5E7B9F1010F02D14FF0B2
:10428000FF30CFE7BAF1000F02D10220F0710CE04D
:10429000F079022809D108F10100854205D0B06803
:1042A000A8EB0000B0610320F071F079022869D01A
:1042B0000AF10100854207D1F06910B1F069401C94
:1042C00000E00220F0615DE0F06908B90120F061D2
:1042D0002A465146304602F0CCFD8146B9F1000F26
:1042E00050D10120F0614DE00025D04519D108F1F1
:1042F0000105206BA84200D802252946304603F06C
:10430000EBF90746012F01D0781C08B9384689E738
:104310003FB1A769022F03D3206BB84200D9B8463A
:104320000025E5B9454600BF6D1C206BA84204D8A6
:104330000225454501D9002074E72946304603F09F
:10434000CBF9074607B909E0012F01D0781C08B95D
:10435000384667E74545E7D1002063E700BF4FF0E7
:10436000FF322946204606F035FB8146B9F1000FA1
:1043700008D1BAF1000F05D02A465146204606F072
:1043800029FB8146B9F1000F0DD1A561206B801E7C
:10439000E169814202D8E069401EE061207940F085
:1043A0000100207107E0B9F1010F02D14FF0FF3099
:1043B00000E001200546284634E700002DE9F34FD0
:1043C00085B08146069800680290D9F80000C76859
:1043D000002500BF02A806F0D1FE04900498401CFE
:1043E00018B9062007B0BDE8F08F0498B0F5803FFB
:1043F00005D30498020C28466D1C27F81020049859
:1044000084B2202C03DB2F2C01D05C2C00D111E0D6
:10441000802C06DA214691A0FFF7FAFD08B10620AC
:10442000E0E7FF2D01D30620DCE728466D1C27F8C6
:104430001040CFE700BF02E00298401C02900298B3
:1044400000782F28F8D0029800785C28F4D00299E0
:1044500006980160202C01DA042000E000200646C6
:10446000012D04D1681E37F810002E280BD0022D24
:1044700024D1681E37F810002E281FD1A81E37F847
:1044800010002E281AD1002027F8150080460AE0D7
:10449000A84501D22E2100E0202109F1400000F8BA
:1044A000081008F10108B8F10B0FF1D346F0200114
:1044B00009F1400000F80810002093E708E0681EAA
:1044C00037F81040202C02D02E2C00D002E06D1EB8
:1044D000002DF4D100BF002027F815000DB90620EB
:1044E00080E74FF0000A01E00AF1010A37F81A00EC
:1044F0002028F9D0BAF1000F03D137F81A002E287E
:1045000001D146F0030600E06D1E25B1681E37F8A4
:1045100010002E28F8D10B22202109F1400005F0CF
:1045200085FB4FF00008C3460820039000BF5046AB
:104530000AF1010A37F8104004B964E0202C03D0D6
:104540002E2C04D1AA4502D046F00306EFE70398CB
:10455000804501D2AA4516D103980B2802D146F016
:10456000030650E0AA4501D046F00306AA4500D94B
:1045700049E0AA464FF008080B2003904FEA8B60F1
:104580004FEA106BD3E7802C0ADB46F00206204688
:1045900002F0FCFB4FF46A71019002F0BDFB04468F
:1045A000FF2C10DD0398401E404504D846F003065A
:1045B000DDF80C80BBE72212404608F1010809F142
:1045C00040010A5418E024B1214627A0FFF720FD3E
:1045D00018B15F2446F003060EE0412C03DB5A2C91
:1045E00001DC4BF0020B612C06DB7A2C04DC4BF077
:1045F000010BA4F1200084B2404608F1010809F142
:1046000040010C5493E700BF99F84000E52802D11F
:10461000052089F840000398082803D14FEA8B60F1
:104620004FEA106B0BF00C000C2803D00BF00300CA
:10463000032801D146F0020606F0020048B90BF04B
:10464000010008B146F010060BF0040008B146F076
:1046500008064B2000F809600020C3E6222A3A3CF5
:104660003E3F7C7F000000002B2C3B3D5B5D00004B
:104670002DE9F04704460E4640220021204605F071
:10468000D5FA85202070C02084F820004025002025
:10469000804607464FF0010900BFC12228466D1C25
:1046A0002254002228466D1C225400BFB9F1000F8D
:1046B00006D036F81700B0F1000901D0781CC7B257
:1046C0006019494606F059FBAD1C05F01F00002893
:1046D000ECD108F1010000F0FF0836F817000028BF
:1046E000DBD184F8237008F10100607030460AF0D5
:1046F00099FE8246514604F1240006F03EFBBDE8D7
:10470000F087000001460B48007888420FDC09481A
:104710004078884201DB0120704706488078884253
:1047200005DC0448C078884201DB0120F4E7002062
:10473000F2E7000049030108014610480079884269
:1047400019DC0E484079884201DB012070470B4894
:104750008079884205DC0948C079884201DB012064
:10476000F4E70648007A884205DC0448407A88422B
:1047700001DB0120EAE70020E8E700004903010827
:1047800010B50246531E1A460A2B17D20C4B03EBE8
:1047900002139989B1F5807F00D10021002901DD44
:1047A0004B1E99B2064B03EB0213998121B90023EA
:1047B000034C04EB02142360002000E0022010BD33
:1047C00098F6002010B504464FF47A7104FB01F00E
:1047D00000F001F810BD10B5044604EB4401880058
:1047E000FBF7B0FC10BD2DE9F04104460E46D4F8AD
:1047F00000800021204600F06EFB05465DBB0027CF
:1048000000BF4046A16B05F00BFB054605B121E05A
:1048100098F80000042805D1E06B0078012121EA16
:10482000D01009E0E06B0078E52802D0E06B00785A
:1048300008B9012000E0002020B1781C0746B042F2
:1048400001D107E000270121204600F041F905468B
:10485000002DD6D000BF042D00D107252846BDE885
:10486000F0812DE9F04704468946204606F01CFBFE
:1048700010B10120BDE8F08749462046FFF755FCFE
:104880000746E7644FF40072002104F1500005F080
:10489000CDF960894FF40041B1EB402F01D80846B3
:1048A00001E06089400206464FF0000800E076080B
:1048B000B6F5007F05D9304602F0DFF9B0F1000807
:1048C000F5D0B6F5007F17D932460021404605F0F5
:1048D000ADF9760A002500E035446089A84207D981
:1048E0007A1960783346414600F0BEFB0028F3D0C9
:1048F000404602F0C8F910E004F1500801260025F6
:1049000000E035446089A84207D97A1960783346B7
:10491000414600F0A9FB0028F3D06089A84201D0ED
:104920000120A7E70020A5E72DE9F04F85B0044658
:1049300025680021204600F0CEFA07461FB1384610
:1049400005B0BDE8F08F287804284CD1E8680AF05B
:1049500069FD01903EE0296901F1240004F0B2FCF8
:104960000199884200D035E0286990F8230003902F
:104970004FF0400A002002901FE00AF01F0008B923
:104980000AF1020A296901EB0A0004F09BFC00907D
:1049900002F0FCF98346EA68029932F8110002F04D
:1049A000F5F9834500D00BE00398401EC0B2039098
:1049B0000AF1020A0298401C029003980028DCD1F8
:1049C00000BF039828B9E968029831F8100000B9CF
:1049D00006E000BF0021204600F0EAF8071EBAD02A
:1049E00000BF3846ACE74FF0FF09CDF810904FF00C
:1049F000FF30E06400BF2846A16B05F011FA0746BE
:104A000007B162E0E06B06780EB904275DE0E06B69
:104A1000C07A00F03F0884F80680E52E05D008F043
:104A2000080040B1B8F10F0F05D04FF0FF094FF06B
:104A3000FF30E06442E0B8F10F0F22D14B20005D5F
:104A400000F04000A0BB06F0400038B1E06B407BB6
:104A5000049006F0BF06B146206BE0644E450CD1D1
:104A6000E06B417B0498814207D1E16BE868FFF776
:104A700069FB10B1A9F1010000E0FF2000F0FF097F
:104A80001CE0B9F1000F06D1E06B06F0B5F904990E
:104A9000884200D119E04B20005D00F0010040B9D0
:104AA0000B2204F14001E06B04F04EFF08B90CE06A
:104AB00004E04FF0FF094FF0FF30E0640021204692
:104AC00000F006F80746002F95D000BF384637E7BC
:104AD0002DE9F041044688462768206B00F1200646
:104AE0003878042801D1800601E04FF40010B0426C
:104AF00001D80020A063A06B10B90420BDE8F081AC
:104B0000C6F3080000284AD1A06B401CA063606B6C
:104B100038B93889B0EB561F41D80020A063042073
:104B2000ECE77889401E00EA5620002837D120465D
:104B3000616B02F0D1FD0546012D01D80220DDE7B1
:104B4000681C08B90120D9E7386BA84221D8B8F110
:104B5000000F03D10020A0630420CFE72046616B43
:104B6000FFF745FB05460DB90720C7E7012D01D129
:104B70000220C3E7681C08B90120BFE72946384670
:104B8000FFF76FFE08B10120B8E7E07940F00400BC
:104B9000E071656329463846FFF7C7FAA0632663CC
:104BA000C6F3080107F150000844E0630020A5E7C0
:104BB0002DE9F05F04468846042627684FF0FF0A77
:104BC000D3466CE03846A16B05F02AF9064606B1DB
:104BD00068E0E06B05780DB9042663E038780428B6
:104BE00014D1B8F1000F02D0832D51D15AE0852D98
:104BF0004ED1206BE064204604F08AFB064626B9BD
:104C00003869007900F03F00A0714BE0E06BC07A9A
:104C100000F03F0984F80690E52D0AD02E2D08D02B
:104C200029F02000082801D1012000E000204045A3
:104C300002D04FF0FF0A2BE0B9F10F0F1CD105F0A5
:104C4000400038B1E06B90F80DB005F0BF05AA4602
:104C5000206BE06455450BD1E06B407B584507D194
:104C6000E16BF86805F01CFE10B1AAF1010000E04C
:104C7000FF2000F0FF0A0BE0BAF1000F04D1E06B57
:104C800006F0BAF8584502D04FF0FF30E06409E072
:104C900000212046FFF71CFF064606B102E0A06B8C
:104CA00000288FD100BF0EB10020A0633046BDE8C0
:104CB000F09F2DE9F04F9BB0044626684B20005D25
:104CC00000F0A00018B106201BB0BDE8F08F4FF037
:104CD000000B01E00BF1010BF06830F81B0000281D
:104CE000F8D13078042866D10BF10E000F21B0FB0B
:104CF000F1F000F1020949462046FFF774FD054630
:104D00000DB12846E0E7A9F101002022216B02FB4A
:104D10001010E064E07900F00400002845D0E0794C
:104D200020F00400E071204602F088F805460DB13D
:104D30002846C9E74FF0FF322046616B02F099F830
:104D400005460DB12846BFE7A06870B32146684606
:104D500004F0BEFA05460DB12846B5E77089400259
:104D6000D4E90431181841F10001C4E90401D4E97F
:104D70000473316901F138003A4605F0D0FFD4E9F7
:104D80000473316901F128003A4605F0C8FFE07963
:104D900040F00100316981F82100684605F0F3FF19
:104DA00005460DB128468FE700BFD6E90310FFF78F
:104DB0005FFC002088E70C2204F1400117A804F0F2
:104DC000D5FD9DF8670000F0010028B340214B207D
:104DD00001554FF0010A0EE0534617A904F14000B7
:104DE000F26802F013FC2046FFF79EFD054605B170
:104DF00004E00AF1010ABAF1640FEDD300BFBAF181
:104E0000640F01D107205FE7042D01D028465BE73E
:104E10009DF867104B2001559DF8670000F00200D7
:104E200030B10BF10C000D21B0FBF1F0401C00E0A3
:104E30000120814649462046FFF7D5FC054675BB53
:104E4000A9F10100B0F1000929D0206BA0EB4911B4
:104E5000204600F040F805460DBB04F1400005F087
:104E6000CBFF169000BF3046A16B04F0D9FF05467A
:104E700005B113E009F0FF02E16BF068169B05F045
:104E80004BFE0120F07000212046FFF721FE054671
:104E900025B9A9F10100B0F10009E4D100BFC5B9FD
:104EA0003046A16B04F0BCFF054695B920220021D5
:104EB000E06B04F0BBFE0B2204F14001E06B04F058
:104EC00055FD4B20005D00F01800E16B08730120D8
:104ED000F0702846F8E62DE9F04104460D462668B4
:104EE0003078042801D1800601E04FF40010A84278
:104EF00002D905F01F0010B10220BDE8F081256342
:104F0000A7682FB93078032802DB376C0020E071E6
:104F100047B93089B0EB551F01D80220EDE7306C5E
:104F2000A0631CE070894FEA402811E03946204612
:104F300002F0D2FB0746781C08B90120DDE7022FFA
:104F400002D3306BB84201D80220D6E7A5EB0805A2
:104F50004545EBD239463046FFF7E7F8A063676373
:104F6000A06B08B90220C8E7A06B00EB5520A06336
:104F7000C5F3080106F150000844E0630020BCE7D7
:104F800070B5044600251CB9FDF764F9054601E03B
:104F9000012500BF00BF0DB1012070BD0020FCE75E
:104FA0002DE9F04706468946154646BBB9F1000F84
:104FB00009D0B9F1010F13D0B9F1020F05D0B9F141
:104FC000030F19D106E0002418E04FF40070288088
:104FD000002413E00C48B0F85000288000240DE0B5
:104FE00009484FF400720023D0E912713846FBF7EC
:104FF00030F92860002401E0042400BF00E001240F
:105000002046BDE8F0870000000800202DE9F041AF
:1050100005460E4617461C464FF0000814B90420FA
:10502000BDE8F08195B9E2B239463046FDF75CFC47
:10503000804607E0FDF70EF9E2B239463046FDF74B
:1050400053FC8046B8F1000FF4D102E04FF00108A4
:1050500000BF00BFB8F1000F01D10020E0E7012040
:10506000DEE70146002070472DE9F04105460E4677
:1050700017461C464FF0000814B90420BDE8F08123
:1050800095B9E2B239463046FDF7D0FF804607E0D9
:10509000FDF7E0F8E2B239463046FDF7C7FF80463B
:1050A000B8F1000FF4D102E04FF0010800BF00BFDB
:1050B000B8F1000F01D10020E0E70120DEE7000099
:1050C0000146002051B1CA7A521C022A06DACA7A75
:1050D000521C034B53F8222002B1012070470000FC
:1050E000A000002070B504460D460C4850F834006E
:1050F00078B10A4901EBC4014A6804EB0411084E77
:1051000006EB011101F10F00044951F83430294632
:1051100098470020014941F8340070BDD8A4002010
:1051200098A0002010B5002404E0204600F006F806
:10513000601CC4B2042CF8DB10BD000070B506463C
:1051400006EB06102E4901EB001400BF00BFA07A49
:1051500000284ED0012804D0022815D0032849D1B8
:105160003CE000F0D1F820810220A0720020E07223
:105170000120207300206073304600F019FA0546C4
:105180000DB100BF00BF38E0207B401EC0B22073CD
:1051900018BB607B401CC0B26073042814D1204649
:1051A000FFF78EFF38B1E07A401CE07201202073D7
:1051B000002060730AE000BF00BF00213046FFF707
:1051C00091FF0020A07218E0607B2073304600F051
:1051D000EFF905460DB100BF00BF0EE0206818B121
:1051E0002068401E206018B900BF00BF0020A072D8
:1051F00003E002E000BF00BF00BF00BF70BD0000C1
:1052000098A000202DE9F04706460F4690464446F8
:1052100000BF2146384605F02CFB0546002D03DB78
:105220004FF6FF70844203D14FF6FF70BDE8F08760
:10523000601C84B205F0C000C02802D14FF6FF7098
:10524000F4E721E02146384605F013FB8146B9F129
:10525000000F02DA4FF6FF70E8E73078FBF72AF824
:10526000824609F0FF00FBF725F8824502D04FF691
:10527000FF70DBE74FF6FF70844200D1D6E7601C79
:1052800084B2761C6D1E00BF002DDBDC761C21462F
:10529000384605F0EEFA0546002D02DA4FF6FF70AB
:1052A000C4E7002DB5D14FF6FF70844200D1BDE7B1
:1052B000601C80B2BAE7000070B505460E4605EBEB
:1052C00005100F4901EB00140320A07200BF00BFBE
:1052D00000BF00BF00BF00BF26600A4920688842A7
:1052E00001D908462060211D2846FFF7FBFE2068F3
:1052F00020B9A07A032801D10020A07270BD00005F
:1053000098A00020803A090000BF0E4A1288521C63
:1053100090B20C4A1080002111E001EB01120A4BFF
:1053200003EB0212927A022A07D101EB011203EB7E
:1053300002121289824200D1E7E74A1CD1B2042945
:10534000EBDB70479400002098A0002010B500BF50
:1053500000BF00BF00BF00BF00BF0C48006898B985
:105360002E2009F0AFFE0949086000BF00BF00BF52
:1053700000BF00220868064909F002FD0349002227
:105380000868044909F0D2FE10BD00009800002012
:1053900028F50008995300082DE9F04F89B0174609
:1053A0009A463889102802DA00BF00BFF7E00023D0
:1053B0000C2206A9384605F089F80C2872D1BDF8F0
:1053C000180004F00EFA81460025E4E005EB051014
:1053D000754901EB0016B07A02286FD13089484533
:1053E000FBD1BDF81C0004F0FCF98346BDF81E009B
:1053F00004F0F7F980469DF81A0000F0800010B91B
:1054000000BF00BFCBE0BBF1010F02D000BF00BF67
:10541000C5E0F17A654A52F82110DAF800008842B6
:1054200000D0BCE00C22394606F10F00FFF7EAFE7F
:1054300004464FF6FF718C4202D100BF00BFAEE0C0
:105440002346042202A9384605F040F8042800D07B
:10545000A5E0BDF80A00B0F5807F05D100BFBDF81A
:105460000800B0F5807F02D000BF00BF97E0201D8C
:10547000B0F5803F00DB92E0201D84B29DF81B0058
:1054800000F00F0078B100BF00BF3046FFF718FEF4
:1054900000286FD003207073012030732846FFF777
:1054A0004DFE7CE07AE05DE02146384600F042F9AE
:1054B00004464FF6FF70844201D170E069E0234654
:1054C0000A2203A9384605F001F80A2800D066E050
:1054D00004F10A00B0F5803F00DB60E004F10A004F
:1054E00084B2BDF80E00B0F5807F28D1BDF80C0065
:1054F000B0F5807F22D1BDF81400B0F5806F1DD1CA
:105500002346042201A9384604F0E0FF042800D015
:1055100045E005EB0511244A02EB011101984860B2
:10552000384605F013F8049804F04EF9014600904F
:105530002846FFF7C1FE09B0BDE8F08F00BFBDF8F7
:10554000140004F04EF92044B0F5803F00DB26E063
:10555000BDF8140004F045F9204484B2A8F101001C
:105560001FFA80F8B8F1000F02DD3889A0429BDCF9
:1055700000BF00BF384604F0E9FF00212846FFF7CE
:10558000B1FD002005EB0511074A02EB01118872FD
:10559000D1E7681CC5B2042DFFF618AF00BF38462E
:1055A00004F0D4FF00BFC6E798A00020A0000020B0
:1055B0002DE9F04F89B083460BEB0B10514901EBFD
:1055C000001600BF00BF00BF00BFF07A4E4951F87F
:1055D000200040B900215846FFF784FD0020B0723A
:1055E00009B0BDE8F08F06F10F00FAF7A5FE123002
:1055F00080B24FF4207201460290362004F0DBFDA9
:105600000746002F73D0002006900790089030893D
:1056100004F0E7F8ADF8180001208DF81A00000238
:10562000ADF81C000C2206A9384605F0A5F806F1D5
:105630000F04641E0C2500BF641CA0464FF0000937
:1056400004E009F1010000F0FF09641C20782E2815
:1056500002D020780028F4D1A4EB080080B2049096
:1056600005EB0900401CB0F5803F00DB43E04A46F3
:105670002946384604F0E0FF681C83B241463846AC
:10568000049A05F0B9F805EB0900401C85B22078B2
:105690000028D1D100222946384604F0CDFF681CED
:1056A00085B24FF48070ADF81400ADF816002B46AB
:1056B000042205A9384605F09FF80020039000BF9A
:1056C00000BF35200190F07A0F4901EB8000029075
:1056D0000E4A039952F821003946DDE9013209F0FA
:1056E0002DFD8246384604F031FF02E0FFE74FF01F
:1056F000FF3A504674E7384604F028FF6FF0050083
:105700006EE7000098A00020A00000209800002074
:1057100002280ADA21B1054A0B6842F8203004E079
:10572000024A034B1B6842F820307047A00000205B
:1057300028F500082DE9F04106460F463C4600BF1B
:105740002146621C94B2304605F093F80546002DC0
:1057500000DB1CB94FF6FF70BDE8F08105F0C0001A
:10576000C02800D114E060193189884202DB4FF66D
:10577000FF70F1E7601984B22146304605F079F8F0
:105780000546002D02DA4FF6FF70E5E7002DD7D170
:1057900000BF4FF6FF70844200D1DDE7601C80B28D
:1057A000DAE710B500BF00BFFFF7BCFC10BD0A462A
:1057B00000BF00BF1146C3681B680B60C368196057
:1057C00070470246D068016831B10868D368186034
:1057D00000BF00BF0846704700BF00BF0020FAE7C7
:1057E000002100E0491C0A2905D2064800EB0110FF
:1057F00000680028F6D10A2901D001207047002056
:10580000FCE7000098F600202DE9FE4F054688468B
:1058100016464FF00A09CA460A270024BB46002054
:1058200002900190009000BF68E004EB44005A4AE7
:1058300002EBC000017D0A2F04D119B900BF00BFDF
:10584000274659E0002957D000BF00BFB5B104EB8F
:105850004402514B03EBC2022868526890420DD1BA
:105860003EB104EB44001A4602EBC0008068B0422F
:1058700004D100BF00BF2046BDE8FE8F012928D11A
:1058800004EB4400444A52F8300080B104EB440079
:1058900002EBC000428A029882422DDBA34604EB51
:1058A00044003D4A02EBC000408A029024E004EB31
:1058B0004400394A02EBC000428A019882421BDB55
:1058C000A14604EB4400344A02EBC000408A019038
:1058D00012E0022910DB04EB44002F4A02EBC00067
:1058E000428A0098824207DBA24604EB44002A4A1F
:1058F00002EBC000408A0090601C04B20A2C94DBCA
:1059000008F0020020B90A2F07D108F0010020B9E1
:1059100000BF00BF4FF0FF30AEE70A2F02DA3C466F
:1059200000BF1DE0BAF10A0F04DA544600BF00BF01
:1059300000BF10E0B9F10A0F02DA4C4600BF0AE0DE
:10594000BBF10A0F02DA5C4600BF04E000BF00BFF3
:105950004FF0FF3090E700BF00BF204600F01EF878
:1059600000BF00BF00BF00BF35B104EB44010A4ACD
:1059700002EBC10128684860002004EB4401064A9C
:1059800002EBC101488204EB4400114601EBC00068
:105990008660204670E7000068F1002010B50446DC
:1059A00004EB4400194951F8300070B100BF00BF4A
:1059B00004EB4401154A52F8310001F0EBFD0020E0
:1059C00004EB4401114A42F83100002004EB440189
:1059D0000E4A02EBC101087504EB440102EBC10160
:1059E000488204EB440102EBC101886004EB4401EE
:1059F00002EBC101486004EB4400114601EBC0001A
:105A000003490A68C2608988018210BD68F10020DC
:105A100036F50008F0B587B007460D4600BF0DB952
:105A200007B0F0BD00BF7C682088B0F5807F08D14A
:105A30002079062805D16079042802D160880828D9
:105A400005D000BF00BF384604F080FDE8E7D4F879
:105A50000E000690A0690590686808B9002607E066
:105A600005986968884201D1012000E000200646BF
:105A70000EB1012000E00220034604F1080206A94D
:105A8000284600F01DFBE088B0F5807F03D0B0F51C
:105A9000007F1ED11AE000BF00BF86B1022206AB14
:105AA00004F10800291DCDE90232CDE9001005F10D
:105AB000220302461E31284600F01AFA05E0686803
:105AC00008B900BF01E000BF00BF05E000BF00BF94
:105AD00002E000BF00BF00BF00BF384604F036FD43
:105AE00000BF9DE72DE9FE43044689461546A846BA
:105AF00000BF00BF00BF00BF00BF00BF2146286835
:105B000002F05AFD08B1494F85E0287800F0F00016
:105B1000E02815D101208DF8040000208DF8050043
:105B20005E208DF80600687800F07F008DF8070091
:105B3000A8788DF80800E8788DF8090001AF69E0D1
:105B40002868A1680840D4E90112114088420ED0AB
:105B5000288880B24FF6A961884208D0E06810B169
:105B600004F10C0803E06FF00300BDE8FE83304849
:105B7000007800EB40002F4901EBC000007D0228B7
:105B80001BDB2B48007800EB400001EBC000806875
:105B9000A04212D12649097801EB4101254A02EBC6
:105BA000C101D8F800004968884206D1204802782F
:105BB0004946204600F040F8D7E7002622E006EBF1
:105BC00046001C4901EBC000007D022818DB06EBF3
:105BD000460001EBC0008068A04211D106EB4601EF
:105BE000144A02EBC101D8F800004968884207D185
:105BF0000F48067032464946204600F01DF8B4E7CB
:105C0000701CC6B20A2EDADB4A464146204600F036
:105C10006FF8AAE700BF4FF400603B4604F1220290
:105C200049460090204600F027FB9EE730F500082B
:105C30007802002068F10020F8B505460E461446AB
:105C400000BF00BF04EB4400284901EBC000007D09
:105C5000022839D104EB440001EBC000408AB0F5C2
:105C60008E7F11DD04EB44000A4602EBC000011DEB
:105C7000284600F08FF938BB032004EB44011B4A8F
:105C800002EBC10108751FE004EB4400174901EB6A
:105C9000C000408AB0F5877F16DB04EB44000B465A
:105CA00003EBC00000F10C0204EB440003EBC00066
:105CB000011D284600F07CF930B9032004EB4401B3
:105CC0000A4A02EBC10108754FF40060009004EB32
:105CD0004400064901EBC00000F10C0305F122026B
:105CE0003146284600F0C8FAF8BD000068F10020EF
:105CF0002DE9F04F85B080460E46154608F122008A
:105D000004904FF0FF30039000200290414630682D
:105D100002F052FC38B9307800F0F000E02802D0F0
:105D20000EB1306830B900BF00BF6FF00F0005B092
:105D3000BDE8F08F424601213046FFF765FD814600
:105D4000B9F1000F07DA00BF00BF0DB100BF00BFFF
:105D50004FFA89F0EBE700BF00BF09F0FF0404EB46
:105D60004400614901EBC000007D70B90120029040
:105D700004EB44015C4A02EBC101087504EB4400EA
:105D8000114601EBC000C0F8088000BF00BF0298B8
:105D900000B93DB93146404600F0FCF803900DB91A
:105DA0000398C4E700BF00BF04EB44004E4901EB79
:105DB000C000007D022811DB4C4804704FF40060E5
:105DC000009004EB440001EBC00000F10C032946F5
:105DD0004046049A00F050FA039082E004EB44003D
:105DE000414901EBC000007D01287AD100200190DB
:105DF0002F4609E000BF00BF387B00F0400010B123
:105E00000120019002E03F68002FF3D100BF01980C
:105E100038B12A464FF420710E2004F0E1FA07460B
:105E200003E02F46384604F05CFC002F53D00C20D2
:105E300003F0E4FF8246BAF1000F43D04FF0000BAD
:105E40000020CAF80000CAF8047004EB4400264998
:105E500051F8300080B104EB4401234A52F831007C
:105E60000BF1010B02E000680BF1010B0168002946
:105E7000F9D1C0F800A004E004EB44001A4941F84D
:105E800030A0BBF1030F18D304EB4400164951F8BE
:105E90003000009004EB440051F83000006804EB3F
:105EA0004401114A42F831000099486804F04EFB61
:105EB0000C20009903F068FF00BF00BF00BF002066
:105EC000039007E0384604F041FB00BF00BF4FF0ED
:105ED000FF30039004E000BF00BF4FF0FF3003909D
:105EE00000BF039823E7000068F10020780200203B
:105EF0002DE9FC5F81460E4617469846DDE90CAB5E
:105F00000020019000BF00BF4FF420721C210E2022
:105F100004F051F905462DB900BF00BF4FF0FF3026
:105F2000BDE8FC9F00BF00BF6C6800BF00BF0F98BA
:105F300003F057FCE08000BF00BFD8F80000A0606D
:105F4000B8F80400A081DBF80000C4F81200BBF828
:105F50000400E082DAF80000C4F80E000E98006831
:105F6000A0614FF48070208008206080062020719E
:105F70000420607140F606003B46324629460090F8
:105F8000484600F079F9284604F0E0FA0025019827
:105F9000C6E7000070B504460D4600BF00BF034AC7
:105FA0002946204600F004F870BD000030F50008D6
:105FB0007FB504460D4616460121074A201D04F10F
:105FC00022038DE825000391324619462046FFF74B
:105FD0008FFF04B070BD000036F5000870B500BF3B
:105FE00000BF002466E004EB4400344901EBC0002C
:105FF000057D002D5DD004EB440001EBC000408A1C
:10600000401C04EB44012D4A02EBC101488204EB21
:106010004400114601EBC000408AB0F5967F0DDACE
:1060200004EB440001EBC000007D01280CD104EB1F
:10603000440001EBC000408A052805DB00BF00BF1B
:106040002046FFF7ABFC34E004EB44001B4901EBB6
:10605000C000007D032807D1042004EB4401174A47
:1060600002EBC101087524E004EB4400134901EB85
:10607000C000007D042807D1022004EB44010F4A30
:1060800002EBC101087514E004EB44000B4901EB7D
:10609000C000007D01280CD104EB44020B4603EB49
:1060A000C202111D04EB440203EBC2029068FFF729
:1060B00071FF641C0A2C96DB70BD000068F10020A3
:1060C0002DE9F84F06460D461746994600BF00BF1A
:1060D00000BF00BF5DB1286848B13146286802F0B2
:1060E0006BFA20B9287800F0F000E02805D100BF55
:1060F00000BF6FF00F00BDE8F88F324649462846D2
:10610000FFF782FB0446002C01DA60B2F3E70220BD
:1061100004EB4401214A02EBC101087504EB440081
:10612000114601EBC000866000BF00BF04EB4400D5
:1061300001EBC0003968C160B9880182002004EB1E
:10614000440102EBC10148821FE004EB4400134903
:1061500051F8308004EB4401104AD8F8000042F8AE
:106160003100D8F804A041460C2003F00DFE4FF496
:1061700000603B4606F1220251460090304600F096
:106180007BF8504604F0E2F900BF04EB44000349F9
:1061900051F830000028D8D100BFACE768F10020EA
:1061A0002DE9F04104460E464FF00E0860890E2896
:1061B00000DC59E0E07B18B996F82C00401CE07335
:1061C000656800BF00BFAF89287800F00100B0B15A
:1061D0002878012809D1687888B9A8785E280ED176
:1061E000607B40F01000607309E0062221492846D8
:1061F000FAF7B7F818B9607B40F008006073082F11
:1062000003D0B7F5C16F2AD114E096F8290000F049
:10621000080000B928E04146204604F06BFA20B19E
:1062200000BF00BF00BF00BF1EE03146204602F0A5
:10623000D9FA15E096F8290000F0080000B913E03B
:106240004146204604F056FA20B100BF00BF00BF0F
:1062500000BF09E031462046FFF7DCFB00E003E029
:1062600000BF0020BDE8F081204604F06FF9002057
:10627000F8E7000030F500082DE9F04706460D4626
:1062800017469846DDF82090484603F0AAFA824661
:106290000E21284603F051FF00B117E06C68A4F806
:1062A0000CA0D8F800002060B8F80400A08038687E
:1062B000C4F80600B888608100BF00BF00BF00BFFF
:1062C00029463046B2699047BDE8F08700BF00BF5D
:1062D0006FF00100F8E7000010B5044600BF00BFF2
:1062E000652084F82A006E212B2001550448606146
:1062F0000448A061204603F099F8002010BD00007A
:10630000E55A00088794000804461EE04FF0FF316C
:106310000E480068FDF7C9F80546012D15D112E0B9
:10632000204603F0A9F8074667B12146384622699E
:10633000904706463EB100BF00BF384604F006F95C
:10634000002700E000E0EBE700BFDFE734000020BB
:1063500038B50546284600F0FBF9044684B969467D
:10636000284609F019F8044654B9E86AFEF708FA15
:1063700004460CB9002028600021009808F0FEFFB8
:10638000204638BDF7B582B016460398019001A8A3
:1063900001F06AFA0546002D02DA0B2005B0F0BDC7
:1063A000174850F8254054B12046FDF779FE606942
:1063B00000F05CFC08B90220F0E700202070029891
:1063C00050B1002002990870E8B20299143100F02F
:1063D00041FC08B90220E1E70949029841F825008B
:1063E0000EB90020DAE7002202A903A800F0B6FDEA
:1063F00007463946029808F0C1FF3846CEE700004C
:10640000840200202DE9F74F9AB0044616461CB9C5
:1064100009201DB0BDE8F08F06F03F06324603A903
:106420001BA800F09BFD0546002D7DD1039804902C
:106430004FF48C6000F021FC8346BBF1000F05D1C6
:106440001121039808F09AFF1120E2E70398C0F8A1
:106450000CB00BF500700399086104A81B9900F0BB
:10646000EFFF05468DB99DF85B0000F0800008B194
:1064700006250AE026F0010008B1012000E0002016
:10648000014604A8FDF7CEFD054606F01C000028D5
:106490007ED06DB1042D08D1FFF7A2F918B104A880
:1064A000FEF707FC00E01220054646F008060AE069
:1064B0009DF8160000F0110008B1072503E006F072
:1064C000040000B10825002D41D106F00800002885
:1064D0003DD00398007804283AD1039820602146E3
:1064E000039802F050F803990969881C1E220021C4
:1064F00003F09CFB0399096901F126001A2200218F
:1065000003F094FB20200399096908710399096934
:1065100001F108008D4904F0F6FB01200399096997
:1065200081F8210004A800E007E104F02CFC0546F6
:10653000002D52D1A06800284FD000222046A1682B
:1065400004F02AFB0546A068401E0399886144E0D8
:106550001399039802F066FE0190139901F10E0061
:106560007A4904F0D0FB20201399C87200221399B5
:10657000039804F0B6FB139901F11C00002104F00C
:10658000C2FB01200399C870019830B3039800E062
:1065900012E0C06C0290002204A8019904F0FCFAF9
:1065A0000546D5B9DDE9021003F03AFC054601982D
:1065B000401E0399886110E07DB99DF8160000F037
:1065C000100008B1042508E006F0020028B19DF88B
:1065D000160000F0010000B10725BDB906F0080063
:1065E00008B146F040060398C06CA0641398E064BC
:1065F00026F0010008B1012000E00020014604A8B7
:1066000001F0C2FEE062E06A00B90225002D7CD1F3
:106610000398007804280FD106982062089820F08B
:10662000FF009DF81710084360621798A06221468A
:10663000039801F0A8FF0CE01399039802F0F2FD13
:10664000A060139901F11C0002F0FFFD0021C4E9D4
:10665000040100202065039820600398C088A08072
:1066600084F83060002084F8310060640021A16368
:10667000E1634FF4007204F1540003F0D7FA06F01E
:106680002000002856D00023D4E904105940584077
:1066900001434FD0D4E90401C4E90E0103984089B5
:1066A0004FEA4029D4F808A0D4E9047810E0514614
:1066B000204601F011F88246BAF1010F00D80225F8
:1066C0000AF1010000B90125B7EB090768F10008DC
:1066D0002DB90020B9EB070170EB0800E7D3C4F82F
:1066E00040A095B94FF40072002338464146F9F7AF
:1066F0007FFD00214A404B401A431BD0514603986E
:10670000FDF713FD009008B9022513E04FF4007265
:10671000002338464146F9F76BFD00990844606450
:10672000626C03994878012304F15401FEF76EFC72
:1067300000B10125584600F0A6FA0DB100202060F6
:106740002946039808F01AFE284662E60000214C0C
:106750002DE9F04798B0044616A9204608F01CFE23
:106760000546002D7ED194F8300000F0400000284E
:1067700078D094F8300000F08000B0B1626C1699C7
:106780004878012304F15401FEF76EFC38B1012171
:10679000169808F0F3FD012018B0BDE8F08794F8D2
:1067A000300000F07F0084F83000DFF864A1169814
:1067B0000078042879D1204600F040FB054635B921
:1067C0004FF0FF322046216C00F053FB0546002DB0
:1067D000C8D14FF48C6000F050FA8146B9F1000F37
:1067E00005D11121169808F0C9FD1120D4E716989B
:1067F000C0F80C9009F500701699086121466846AA
:1068000002F066FD0546002D4AD116980069007910
:1068100040F02000169909690871E07940F0010004
:106820001699096981F82100A168169A126902F186
:10683000340004F068FAD4E904731699096901F187
:1068400038003A4604F06BFAD4E9047316990969E2
:1068500001F128003A4604F062FA1699096901F13B
:106860000C0000E04DE0514604F04DFA002016996E
:10687000096948751699096901F11000002104F0B1
:1068800042FA684604F07FFA05464DB9169804F0BE
:10689000C3FA054694F8300000F0BF0084F83000D9
:1068A000484600F0F0F92CE0FFE7A16C169803F0E1
:1068B000B7FA05462DBBE66CF07A40F02000F07286
:1068C0003146A268206804F00CFA06F11C00216928
:1068D00004F019FA514606F1160004F014FA0021EA
:1068E00006F1120004F049FA01201699C8701698B2
:1068F00004F092FA054694F8300000F0BF0084F8E6
:1069000030002946169808F039FD284644E7000073
:106910000000214C2DE9FF4F87B0044615469B46E9
:10692000089803900020CBF8000004A9204608F046
:1069300033FD0590059818B994F83100059038B1E9
:10694000DDE9040108F01AFD05980BB0BDE8F08FF1
:1069500094F8300000F0020028B90721049808F0EC
:106960000DFD0720F1E704980078042807D0A06BFC
:106970004019A16B884202D2A06BC0F1FF3525E11E
:10698000D4E90E014FF400720023CDE90001F9F7BC
:106990002FFC00214A404B401A437DD1D4E90E011F
:1069A0004FF400720023CDE90001F9F721FC0499AE
:1069B0004989491E00EA010ABAF1000F44D10023B7
:1069C000D4E90E1059405840014309D1D4F8088049
:1069D000B8F1000F16D12046FDF709FC804611E002
:1069E000206D50B1D4E90E0102460B46CDE90001FD
:1069F0002046FDF769FB804604E02046216CFDF748
:106A0000F6FB8046B8F1000F00D1E2E0B8F1010FCB
:106A100008D1022084F831000221049808F0AEFC6D
:106A2000022092E708F1010040B9012084F831000A
:106A30000121049808F0A2FC012086E7C4F84080F8
:106A4000A06808B9C4F8088094F8300000F080000D
:106A5000B8B1626C04994878012304F15401FEF73F
:106A600003FB40B1012084F831000121049808F0B3
:106A700085FC012069E794F8300000F07F0084F87D
:106A80003000216C0498FDF750FB074657B90220EF
:106A900084F83100022100E05AE0049808F06EFC0E
:106AA000022052E757444FEA5529B9F1000F32D07E
:106AB0000AEB090004994989884203D9049840895E
:106AC000A0EB0A09049948784B463A460399FEF729
:106AD000CBFA40B1012084F831000121049808F07C
:106AE0004DFC012031E7606CC01B484510D2606C42
:106AF000C01B039A02EB40214FF4007204F15400D2
:106B000002F034FF94F8300000F07F0084F8300089
:106B10004FEA49263CE0606CB84218D0D4E9043111
:106B2000D4E90E20D21A884111D204994878012361
:106B30003A4604F15401FEF769FA40B1012084F8A5
:106B400031000121049808F019FC0120FDE667647A
:106B5000208FC0F30800C0F50076AE4200D92E4663
:106B6000D4E90E014FF400720023CDE90001F9F7DA
:106B70003FFB04F15400104432460290039902F0A6
:106B8000F5FE94F8300040F0800084F8300000BF3B
:106B9000AD1BDBF800003044CBF800000398304414
:106BA0000390D4E90E20921940F10000C4E90E20B0
:106BB000D4E90E31D4E90420D21A884102D2D4E9B2
:106BC0000E0101E0D4E90401C4E90401002D7FF4C1
:106BD000D7AE00BF94F8300040F0400084F8300099
:106BE0000021049808F0CAFB0020AEE6F8B506467E
:106BF0000020009001220FA10F48FFF7C3FB0A22DB
:106C00000EA11148FFF7FEFB054605B1F8BD0424AF
:106C10006B4622460DA10C48FFF77CFE0098A0426F
:106C200003D20948FFF794FBF0E70748FFF790FB12
:106C300000BFEBE7303A000090020020303A66696E
:106C40006C652E7465787400E004002031323334B2
:106C50000000000070B505460C46FAF78EFC206077
:106C6000206808B1012070BD0020FCE710B5044683
:106C70002046FAF78EFC012010BD10B504462046D0
:106C8000FAF710FE10BD10B504462046FAF7F6FDDF
:106C900010BD0000F0B502460E4600200021802AFB
:106CA00001DA104627E0B6F56A7F24D1124B45F28F
:106CB00020570025102414E0A7EB050C05EB5C0120
:106CC0004FEA410C33F81CC0944500D10BE04FEA69
:106CD000410C33F81CC0944501DA0D4600E00F4624
:106CE000641E002CE8D100BF2CB14FF0010C0CEB5E
:106CF000410C33F81C00F0BD0658020810B50446DC
:106D00002046FAF773FC10BD10B504464FF0FF3172
:106D10002046FAF747FC10BD2DE9F04102460F4628
:106D200000200021802A01D290B22BE0B2F5803FF2
:106D300028D2B7F56A7F25D195B2134B45F2205C76
:106D40000026102414E0ACEB060806EB58014FEACD
:106D5000410833F81880A84500D10BE04FEA4108FC
:106D600033F81880A84501DA0E4600E08C46641E10
:106D7000002CE8D100BF2CB14FF0010808EB41080E
:106D800033F81800BDE8F0818203010870B5B0F552
:106D9000803F4DD281B2B1F5805F01DA254E00E02F
:106DA000254E324600BF32F8023B0BB1994200DA61
:106DB0003CE032F8024B2512E4B21E198E4230DD5F
:106DC000092D2CD2DFE805F005090F13171B1F232F
:106DD0002700CE1A32F8161021E0CE1A06F001066E
:106DE0008E1BB1B21BE0A1F11006B1B217E0A1F108
:106DF0002006B1B213E0A1F13006B1B20FE0A1F16B
:106E00001A06B1B20BE001F10806B1B207E0A1F138
:106E10005006B1B203E0A1F5E356B1B200BF00BF26
:106E200004E0002DBFD102EB4402BCE700BF0846DE
:106E300070BD00008AAC03087CAE03082DE9F04168
:106E40000446E079032812D1A568A7690BE06A1C03
:106E50002946206803F0BEFD064616B13046BDE85F
:106E6000F0816D1C7F1E002FF1D10020E071002009
:106E7000F5E72DE9F04104460D46174616E0E369B3
:106E8000012B03D9E369EB1A9B1C00E03B461A4631
:106E9000E369EB1A591C206803F09CFD064616B105
:106EA0003046BDE8F081E069401EE061E0690028FD
:106EB000E5D100BFF5E72DE9F74F05460E46B61EB2
:106EC000286B801EB04200D800263446A2464FF000
:106ED000000B00BFA86C00EB1431284602F0A0FFA5
:106EE00018B14FF0FF30BDE8FE8FC4F3C80904F0BD
:106EF000070101208840C7B200BF00BF05F1500064
:106F000010F8090000EA07087806070E601C04461E
:106F1000296B891E884203D3002400274FF400798F
:106F2000B8F1000F08D10BF10100834602998842A5
:106F300005D10AF10200D6E7A2464FF0000BB44299
:106F400001D10020CFE7002FD8D1012709F101009E
:106F50008146B0F5007FD0D3BCE700002DE9F74FA4
:106F600090B0002111980160109800F07DFC0E9007
:106F70000E98002803DA0B2013B0BDE8F08FF84913
:106F80000E9851F820400CB90C20F5E7204602F08D
:106F900046FA08B90F20EFE711980460129800F044
:106FA000FE001290207878B16078FEF75AF8834698
:106FB0000BF0010040B9129820B10BF0040008B1A9
:106FC0000A20D9E70020D7E7002020700E986070D3
:106FD0006078FDF7D5FF83460BF0010008B1032070
:106FE000CAE7129820B10BF0040008B10A20C3E7E9
:106FF000002739462046FCF7BDFF0646022E01D089
:107000002EDA2DE0002514E04FF4DF7000EB0511BF
:1070100004F1500008440F900F98007920B10F98A8
:10702000083002F012F900E0002007A941F825001D
:107030006D1C042DE8D3002505B16D1E00BF07A807
:1070400050F8257027B139462046FCF793FF00E041
:1070500003200646022E03DB681C05460428EED3F7
:10706000042E01D1012087E7022E01DB0D2083E7EA
:10707000012E70D10B2500E06D1C402D04D204F1CF
:107080005000405D0028F7D0402D01D20D2073E75D
:1070900004F1B80002F016F9B0F5807F01D00D20A0
:1070A0006AE794F8BC1001208840B0F5007F01D059
:1070B0000D2061E704F1980002F0D3F8034608467A
:1070C000D91940F10000CDE90410DDE90410091ED2
:1070D00070F1010001D30D204EE704F1A40002F08D
:1070E000B4F8606394F8BE00A070A078012801D0C5
:1070F0000D2041E794F8BD1001208840608160892F
:1071000008B90D2038E704F1AC0002F09EF8804683
:107110009449884501D90D202EE708F1020020632B
:10712000A76304F1A80002F090F83844606404F109
:10713000A00002F08AF83844E0630021608900FB77
:1071400008F0626C13184941DDE90420D21A884125
:1071500002D20D2010E769E004F1B00002F075F8EA
:10716000206400200546039000BFB5B961890398EB
:10717000814201D80D20FFE62046216CFCF7D5FFA7
:107180000399084401460190204602F049FE08B1E7
:107190000120F1E60398401C039004F15000405D8B
:1071A000812800D104E005F12000C0F30805DCE7E8
:1071B00000BF04F15001294401F1140002F045F828
:1071C0008146B9F1020F02D3206B484501D80D204A
:1071D000D2E66289A9F10200616C02FB0010A06492
:1071E00000BFE06B00EBD911204602F019FE08B198
:1071F0000120C1E609F07F0104F1500202EB810099
:1072000002F023F802900298401C00B907E009F14F
:107210000100814602998842E3D00D20ACE600BF10
:107220004FF0FF30E061A0610426F3E004F15B0061
:1072300002F048F8B0F5007F01D00D209CE604F183
:10724000660002F03FF88246BAF1000F04D104F163
:10725000740001F0FAFF8246C4F834A06020005D9B
:10726000A070A078012804D0A078022801D00D20B9
:1072700082E6A0780AFB00FA5D20005D60816089EB
:1072800018B16089411E084008B10D2074E604F170
:10729000610002F017F82081207A00F00F0008B199
:1072A0000D2069E604F1630002F00CF80D900D98D2
:1072B00020B904F1700001F0C8FF0D9004F15E00E8
:1072C00002F000F80690069808B90D2054E60698DA
:1072D0005044218900EB11100C90DDE90C01814232
:1072E00001D20D2048E6DDE90C10401A6189B0FB9F
:1072F000F1F8B8F1000F01D10D203DE600261A4843
:10730000804500D803264FF6F570804500D8022648
:1073100040F6F570804500D801260EB90D202BE609
:1073200008F102002063A76306983844E0630C98D4
:1073300038446064032E19D104F17A0001F0C2FFD1
:1073400008B10D2018E6208908B10D2014E604F1DB
:107350007C0001F07AFF2064206B80000B901BE022
:1073600084020020FDFFFF7FF5FFFF0F208908B991
:107370000D2001E6E06B50442064022E02D1206B08
:10738000400008E094F8300000F00100216B01EBB0
:10739000410100EB51000B90616B0B9800F2FF1064
:1073A000B1EB502F01D20D20E6E54FF0FF30E06148
:1073B000A06180202071032E2CD104F1800001F007
:1073C00081FF012826D1791C204602F029FD08BB47
:1073D0000020207104F24E2001F074FF4AF655217E
:1073E000884217D104F1500001F02FFF1149884263
:1073F00010D104F50D7001F028FF0F49884209D122
:1074000004F50E7001F021FFE06104F50F7001F04A
:107410001CFFA061267009480088401C80B2074903
:107420000880E080002020622046FCF739FE002022
:10743000A2E5000052526141727241618C0200204B
:10744000F3B597B004462568189800782F2806D021
:10745000189800785C2802D0286AA0600DE002E04D
:107460001898401C1890189800782F28F8D0189871
:1074700000785C28F4D00020A0600020E06128782B
:1074800004281FD1A068E8B1686A2062A86A606217
:10749000E86AA0622146684601F01AFF064616B166
:1074A000304619B0F0BD296901F1380001F0CDFE78
:1074B0000021C4E90401286990F8210000F00200CD
:1074C000E07100BF18980078202808D280214B2056
:1074D000015500212046FDF7FEFC064649E000BFAD
:1074E00018A92046FCF76AFF064606B140E0204690
:1074F000FDF71AFA06464B20075D96B1042E0FD110
:1075000007F0200040B107F0040000B9E8E780214F
:107510004B200155002603E007F0040000B90526C2
:1075200026E007F0040000B122E0A07900F010008E
:1075300008B905261CE0287804280ED1A06820622E
:10754000206920F0FF00E17908436062E06CA062EE
:107550002146284601F017F809E0208EC0F3080202
:1075600005F150001118284601F05CFEA060B7E755
:1075700000BF304695E7000000BF054A128802F0C0
:107580004002002AF9D0C2B2014B1B1D1A8070477D
:107590000038014070B5044600BF00BF0AE0254630
:1075A000246800BF00BF686802F0D0FF29460C20A5
:1075B00002F0EAFB002CF2D170BD0146D1E90102D4
:1075C000801A70477047000070B505460E4605B139
:1075D00016B96FF00F0070BD0B4C11E030466168BA
:1075E000F8F7B1FE58B9A0682860E0686860E06804
:1075F000A8600020E860207C28740020EBE7246865
:10760000002CEBD1A01FE6E7000301082DE9FF4F96
:1076100083B0804691461E460B224046049902F0F4
:10762000A5F9052E18D9374611E039F802BB002517
:107630000BE0584667F35F0007464FEA6B0B07F411
:10764000803008B1234847406D1C102DF1D3B9F8A4
:1076500000000028E9D13E46072500BF06F00F00D4
:1076600000F1300ABAF1390F03DD0AF1070000F02A
:10767000FF0A28466D1E01A901F800A03609002E58
:10768000ECD17E20485500240AE018F80400FDF7EC
:1076900039F820B1681EA04200D107E0641C641CC8
:1076A000AC4203D218F804002028EED100BF00BF7E
:1076B000082D04D228466D1C01A9085C00E020209A
:1076C0002146641C08F80100082CF1D307B0BDE87E
:1076D000F08F0000211001002DE9FC5F06460C46EA
:1076E0003568022C02D3286BA04202D84FF0010962
:1076F000B7E04FF0FF392878012806D0022830D0B3
:10770000032841D004287CD152E0274607EB5707D5
:10771000E86B00EB5721284602F082FB00B19FE0A6
:1077200038467F1CC0F3080105F1500010F80180B5
:10773000E86B00EB5721284602F072FB00B18FE0A6
:10774000C7F3080105F15000405C48EA002804F046
:10775000010010B14FEA181001E0C8F30B00814698
:107760007EE0E86B00EB1421284602F059FB00B1E3
:1077700076E040F2FF1101EA440205F15001501891
:1077800001F0A0FD81466BE0E86B00EBD4112846C8
:1077900002F046FB00B163E040F2FF1101EA84020F
:1077A00005F15001501801F050FD20F0704957E0EC
:1077B0000022D6E9041051405040014301D0B06886
:1077C00008B9F07990BBB068A4EB000AD6E90420B0
:1077D000521E60F10000CDE900204FF4007200233A
:1077E000DDE90001F8F704FD6989B0FBF1FBF079F0
:1077F00002280AD1DA4508D8DA4503D16FF00040F3
:1078000001E02AE0601C81462AE0F079032805D1D6
:10781000B069504502D904F1010921E0F07902284C
:1078200019D0F06918B16FF0004913E014E0E86B6B
:1078300000EBD411284602F0F3FA00B110E040F258
:10784000FF1101EA840205F15001501801F0FDFC1E
:1078500020F0004904E000BF00BF4FF0010900BF65
:1078600000BF4846BDE8FC9F70B504464FF0FF30AE
:1078700026683146324601B970BD00BF12F8013B9F
:10788000202B01D33A2BF9D13A2B11D102250E78B6
:10789000302E08DB0E78392E05DC8E1C964202D184
:1078A0000E78A6F13005022D01DA28462260E3E7C2
:1078B000014E307800BFDFE78E0200202DE9F04155
:1078C00007460D46164600BF00BF06B91DB96FF04A
:1078D0000500BDE8F0810121284606F05BFA00F0C2
:1078E0004DFB044624B900BF00BF4FF0FF30F0E766
:1078F000E5612146284603F067FD0949284606F060
:107900001DF80849284603F0C8FF04220649284606
:1079100005F0ACF90549284606F037FA0020D8E70B
:10792000157E0008FD790008B17D0008537F00082E
:1079300070B506460C46606928B92146304600F00D
:1079400055F8002070BD6069FFF737FE0546002D31
:1079500007DC00BF00BF2146304600F047F800209A
:10796000F0E700BF00BF0120ECE770B504460D460C
:1079700000222946204600F001F870BD2DE9F041B3
:1079800007460C46164600BF00BF0021384603F0EC
:107990001BFD0021384605F0D1FF0021384603F0D9
:1079A0007CFF00221146384605F060F90021384678
:1079B00006F0EBF914B1204600F0FCFA2EB138467F
:1079C00003F080FC0020BDE8F081384603F05AFD4A
:1079D000054635B100BF00BF04220349384605F013
:1079E00045F92846EFE70000B17D000870B5044670
:1079F0000D4629462046FFF7B8FF70BD70B5044616
:107A00000E46254600BF00BF15B1284600F0D2FA49
:107A100070BD00002DE9F74F84B082464FF0000B97
:107A20000027002003900598F8F786FC0646002EF4
:107A300059D0701E0599085C2F2854D142490598E9
:107A4000884201D1012E4ED1701E3F2801D93F201E
:107A500000E0701E04463CB122463B480599F8F709
:107A60002FFC002038490855002538E01CB3C4F12C
:107A70003F0002900298D8B1344951F83500F8F728
:107A80005BFC0190DDE90110884201D2029800E020
:107A9000019800902D4A52F835102B4A1019009A7F
:107AA000F8F70EFC002100982044274A115400BF2B
:107AB000DFF8949002E0254850F8359000BF00BFF1
:107AC00049465046FFF780FD8046B8F1000F05D1CA
:107AD000CDF81490D34600BF00BF02E06D1C052D09
:107AE000C4D300BF00BFBBF1000F19D13F210598DF
:107AF000F8F718FC074617B1002038707F1C00BF4C
:107B000000BF50460599FFF75FFD8046B8F1000FB2
:107B100001D1D34604E005A9504600F019F8834688
:107B2000BBF1000F04D105A9504600F011F88346BF
:107B30000020CDE9000759465046DDE9053200F046
:107B400039F807B0BDE8F08F58F60020140301089B
:107B500070B506460C460EA0206030462168FFF73F
:107B600033FD054695B10DA0206030462168FFF732
:107B70002BFD054655B10CA0206030462168FFF76B
:107B800023FD054615B10020206070BD3046FCE79E
:107B90002F3430342E68746D6C0000002F34303474
:107BA0002E68746D000000002F3430342E7368741A
:107BB0006D6C00002DE9F04704460D4616469A46C6
:107BC000DDE908892DB300BF00BF65612868A061A9
:107BD00000BF00BF68686062002084F8280000BF12
:107BE00000BFE6B16069007C00F00100B8B10DA1F2
:107BF000626AA06901F041FE07464FB1391DA269D2
:107C0000881AA1690144A161616A091A616200BF11
:107C100005E000206061A061606284F82800002017
:107C2000BDE8F0870D0A0D0A000000002DE9F74FAE
:107C300084B00C46049E00BF00BF00BF00BF606957
:107C400008B9A06930B100BF00BF6FF0070007B0EE
:107C5000BDE8F08F00BF00BF206A18B900BF00BFA9
:107C6000266205E000BF00BF3146206A02F086FBB5
:107C7000304602F036FD206A006898B1206A00891B
:107C800040F2FF31884202DA206A008901E040F2C6
:107C9000FF30814600234A463E49206A02F016FC26
:107CA0003C4F08E07768B6F80A90708931898842BD
:107CB00001D000BF00BFB9F1070F57DB4A4636A11C
:107CC000384601F0DAFD8246BAF1000F4ED00020AE
:107CD000039000BF00BF042230A13846F8F74EFBE6
:107CE00010B9FD1C00BF06E00020387100BF00BFC6
:107CF0006FF00F00ABE7681CC01BA9EB000080B25F
:107D0000029028A1681C029A01F0B7FD8046B8F1E4
:107D1000000F07D120A1681C029A01F0AEFD804639
:107D200001200390681CA8EB000080B20190B8F11C
:107D3000000F18D0A84516D94A461BA1384601F0B5
:107D40009CFD78B1681C0090002028700022DDE9BD
:107D50000001425400BF00BF2046039A0099FFF77C
:107D600059FE74E701E000BF00BF00BF206A02F0C7
:107D70002EFB8346206A0089B0F5806F05DABBF1DF
:107D8000050F02DC6FF0040061E700BF00BF6FF079
:107D90000F005CE758F200200D0A00004745542010
:107DA00000000000200000000D0A0D0A0000000085
:107DB0002DE9F04105460E462C4600BF00BF4CB9E8
:107DC00000BF00BF00213046FFF7CFFD074600206F
:107DD000BDE8F08114F8280F401C207014F8280921
:107DE000042807D100BF00BF21463046FFF7BDFD84
:107DF0000020EDE7606958B100BF00BF2146304662
:107E000000F059F820B100BF00BF304604F0B0FBCD
:107E10000020DDE72DE9F04780460E4615469946DD
:107E2000444600BF00BFB9F1000F01D105B18CB9C4
:107E300035B12989304605F0A4FD284602F086FBBD
:107E40000CB900BF00BF21463046FFF78EFD002071
:107E5000BDE8F0872989304605F093FD606918BBBD
:107E6000324621462846FFF7E1FE074600BF00BF25
:107E7000781D30B1206A20B1206A02F067FB002033
:107E80002062284602F062FB37B900BF00BF2146DE
:107E9000304600F010F806E007F1100018B921464E
:107EA0003046FFF762FD04E000BF00BF284602F045
:107EB0004DFB0020CCE770B505460C46002600BF00
:107EC00000BF0CB9002070BD606A30B92146284659
:107ED000FFF72EFD08B90020F5E72146284600F0FF
:107EE00014F80646606A60B96069FFF766FB00280F
:107EF00007DC00BF00BF21462846FFF777FD0020C2
:107F0000E1E700BF00BF3046DDE7F8B506460C46A6
:107F100000274FF6FF71606A884201D2606A01E073
:107F20004FF6FF7080B2009000236A463046A16988
:107F300000F051F8054655B90127BDF80010A069B9
:107F40000844A061BDF80010606A401A60623846BB
:107F5000F8BD2DE9F04105460E4617462C4600BFF8
:107F600000BF14B90020BDE8F081002084F828008B
:107F700021463046FFF79FFF0020F4E710B52C2084
:107F800001F0C2FD044614B1204600F01DF8204661
:107F900010BD10B50446606920B16069FFF712FB9F
:107FA00000206061206A20B1206A02F0CFFA002030
:107FB000206210BD10B504462CB12046FFF7E9FF42
:107FC000204601F0E1FC10BD10B504462C212046EE
:107FD000F8F79DF910BD2DE9F04705468946904612
:107FE0009A4600BF00BFB8F8004014B90020BDE8B1
:107FF000F087B5F86460A64200DA3446688E400423
:10800000060CB44200DD344600BF00BF00BF53463B
:1080100022464946284606F060FA0746781C78B999
:10802000B5F8640018B1B5F86600082801DB012432
:1080300004E0204604EBD071C1F34F0400BF00BF41
:10804000781C08B9012CE0DC27B900BF00BFA8F8F4
:10805000004004E000BF00BF0020A8F80000384640
:10806000C5E710B500BF00BF2E2004F032FA044669
:1080700000BF00BF5021204600F002F810BD0000F4
:1080800070B504460D46B4B10121204605F082FECC
:108090002A460949204603F09BF9064600BF00BF67
:1080A000FF21204604F05EF9044600BF00BF0349EB
:1080B000204603F00EF970BD28F50008BD780008D1
:1080C00070B505460C4622460321284600F006F905
:1080D00070BD00002DE9F04F85B004468A467E4809
:1080E00080680390039800780007870E142F02DA47
:1080F00000BF00BFE6E06089042802D200BF00BFD5
:10810000E0E06068057860684078049015B1082D5B
:1081100071D100E0D1E0DFF8C09109F114096E4897
:10812000007D00F0F000E02802D100BF00BFCDE0EC
:10813000694A1168506900F03FFA10B100BF00BFF2
:10814000C4E000BF00BF2089082802D200BF00BFE2
:10815000B8E0204600F080F938B100BF00BF2046EB
:1081600002F0F4F905B0BDE8F08F07F10E012046EA
:1081700001F0E3FF98B3208938441FFA80FB20897F
:10818000584502DD00BF00BFA0E04FF42072594601
:108190000E2002F010F88046B8F1000F02D100BFA7
:1081A00000BF93E0B8F80A1007F10800814205D239
:1081B00000BF00BF404602F0C9F987E03A46D8F850
:1081C00004000399F8F77CF83946404602F092FA29
:1081D00030B100BF00BF404602F0B8F976E010E0D1
:1081E0002146404602F014F930B100BF00BF4046BE
:1081F00002F0ACF96AE04CE0204602F0A7F94446F0
:1082000008E007F10E01204602F074FA10B100BF39
:1082100000BF5BE066683946204601F08EFF08B17A
:1082200000BF35E0D4F80480D9F80000C8F80C008D
:1082300029480069C8F810000020307070884FF697
:10824000F771884203DD70880930708002E0708821
:1082500008307080FF2088F808000020A8F80A0085
:108260003946404600F0EEF8A8F80A000120002147
:10827000FF230A46CDE9010A00914946204600F055
:10828000C5FB8346BBF1000F01D000BF00BF00BF9C
:1082900013E0032D0ED00B2D0CD00C2D0AD0042D85
:1082A00008D0052D06D00D2D04D00E2D02D0112D95
:1082B00000D000BF00BF00BF00BF00BF204602F0DB
:1082C00045F94FE7204602F041F94BE7204602F01E
:1082D0003DF900BF46E70000F8A400202DE9FF4764
:1082E0000746884691464FF420722421222001F04F
:1082F00062FF05461DB900BF00BFBDE8FF8700BF94
:1083000000BFD7F804A000BF00BF00BF00BF00BF80
:1083100000BF00BF00BF00BF00BF6C6884F80080D2
:1083200084F801900020A080E08079686A6802F1FA
:1083300008001C22F7F7C4FFDAF80C00039003A82A
:1083400000F036FD064686B100206080698920462F
:1083500000F078F8608001200021FF2303AACDE916
:1083600001060091284600F051FB284602F0EEF885
:1083700000BFC2E770B505460C4622460B212846D1
:10838000FFF7ACFF70BD000010B502460B460021A0
:1083900016E02B4800EB011000681468A0420ED1D3
:1083A000274800EB011040689468A04207D1244898
:1083B00000EB01108068146BA04200D102E0491C60
:1083C0000A29E6D300BF0A2922D1002100E0491C76
:1083D0000A2905D21A4800EB011000680028F6D1DE
:1083E0000A2901D1002010BD154C04EB01141068BE
:1083F0002060134C04EB011490686060104C04EB97
:108400000114106BA06000200D4C04EB0114A0813E
:10841000012B06DB0A4800EB0110808908B100201F
:10842000E1E713B14FF4807004E0054800EB011060
:108430008089401C024C04EB0114A081481CD2E747
:1084400098F6002030B504460D462946204601F036
:10845000E5F9C04380B230BDF0B5064600270024E0
:10846000354619E06989686801F0D8F90444A0B27A
:1084700000EB1444688900EBD0714910A0EB410176
:1084800049B10FB9012000E000200746E0B2C4F373
:10849000072141EA00242D68002DE3D127B1E0B285
:1084A000C4F3072141EA0024E04380B2F0BD2DE986
:1084B000F0470746884691461E46DDF820A03568FD
:1084C000ACB24FF6FF7000EA15400444DAF80050F1
:1084D000A8B204444FF6FF7000EA15400444A0B26D
:1084E00000EB1444A0B200EB144423464A46414634
:1084F000384600F002F8BDE8F0872DE9F04706465F
:108500000F4690461C464FF0000935461DE000BF5F
:1085100000BF6989686801F081F90444A0B200EBEA
:108520001444688900EBD0714910A0EB410159B1A6
:10853000B9F1000F01D1012000E000208146E0B236
:10854000C4F3072141EA00242D68002DDFD1B9F1E1
:10855000000F04D0E0B2C4F3072141EA00243846FA
:1085600001F03FF90444404601F03BF90444A0B255
:1085700000EB1444A0B200EB144400BF00BFE04382
:1085800080B2BDE8F08770B505460C46296901F157
:10859000340000F05AFEA060296901F1380000F0B3
:1085A00060FEC4E90401286990F8210000F002008F
:1085B000E0710020E06170BD18B502460092D04322
:1085C00000B10AB9012018BD91F8290000F002009D
:1085D00008B90020F7E74868904201D10020F2E78F
:1085E00000988B681840D1E901342340984208D1A3
:1085F000886822EA00008C68E343984201D1012098
:10860000E1E70020DFE700002DE9F74F8CB00446DA
:1086100088464FF00009B8F82010A1F11400C117E6
:1086200000EB5171C1F3CF0A1420059060680990E6
:10863000099D287800F00F001421B1EB800F04D0C1
:108640006FF005000FB0BDE8F08F00BF60891428FF
:1086500002DA6FF00500F5E700BFE88801F0C1F825
:1086600004900498C0F30C000790049800F40050A4
:108670000390208914381FFA80FBA7E04FF6FF70A3
:1086800000EACA00584501DD584603E04FF6FF7086
:1086900000EACA0008904FF4207214210E2001F065
:1086A0008AFD064606B997E000BF00BF1422706835
:1086B0000999F7F705FE756808980A9047E06189FF
:1086C0000598081A80B2029000BF00BF02990A986C
:1086D000884201DA0A9800E002988146B9F1000F59
:1086E00003D100200590246831E000F0BFFB07466D
:1086F0001FB9304601F02AFF6EE061680598084412
:108700003B4641224946CDE90009002001F009FE1F
:108710000B900B9830B9384600F0ADFB304601F0B5
:1087200015FF59E0204601F0DCFF7C612C483861E0
:1087300030460B9901F022FE0A98A0EB090080B2A6
:108740000A900A9810B100200590246800BF0A988A
:108750000028B4D10598484480B20590B8F82000AC
:108760001438584501DB012000E0002006900798EE
:10877000C0F30C000490069808B1039818B104984F
:1087800040F400500490049801F02BF8E880089918
:10879000143188B201F025F8688000206881142126
:1087A0002846FFF74FFE6881D8F81430314640461E
:1087B0000E9A9847304601F0C9FE0898ABEB0000CE
:1087C0001FFA80FB0798504480B20790BBF1000F5E
:1087D0007FF454AF002035E74FF0FF3032E7000060
:1087E000059200082DE9F04706460F46756828787F
:1087F0000421B1EB201F07D000BF00BF304601F0BD
:10880000A5FE0020BDE8F087287800074FEA9068B1
:10881000688800F0E6FF81463189494503DD494615
:10882000304601F01EFF7089404505DB3089484520
:1088300002DBB8F1140F13DAB8F1140F01DA00BF3C
:1088400000BF7089404501DA00BF00BF308948454C
:1088500001DA00BF00BF304601F078FE0020D1E70A
:1088600041462846FFF7EEFD30B100BF00BF30465D
:1088700001F06CFE0020C5E7286953494861E868AB
:1088800008610846007D00F0F000E0280AD197F862
:10889000290000F0010018B1786808B13C461CE0DE
:1088A00000241AE0384600F093F808B13C4614E082
:1088B00000244548007D7F280FD04448046809E023
:1088C000BC4200D105E0204600F082F800B103E090
:1088D00000BF2468002CF3D100BF3B49086939462A
:1088E000FFF76AFE28B93848007C00F0F000E02865
:1088F00006D100BF00BF304601F028FE002081E70E
:1089000034B900BF00BF304601F020FE002079E7F7
:10891000E8884FF63F71084048B100BF00BF3046BD
:1089200000F030F906460EB900206BE7756800BF0D
:1089300000BF00BF00BF24480460476085602878FE
:108940000007800E204988814146304601F0D2FE62
:10895000687A01280DD0062806D011280ED1394694
:10896000304606F06FFA24E03946304603F08CF8C2
:108970001FE039463046FFF7ADFB1AE0124948695F
:108980002146FFF719FE70B90F48007D00F0F00096
:10899000E02808D00FFA88F1304601F024FE0221C9
:1089A0003046FFF78DFB00BF00BF304601F0CEFD23
:1089B00000BF00BF002004490860486088608881CB
:1089C0000861486100BF1DE7F8A4002010020020E4
:1089D00010B5044600BF00BF94F8290000F0010064
:1089E00080B1606870B1084840696168884205D00C
:1089F000054948692146FFF7DFFD18B100BF00BFF8
:108A0000012010BD0020FCE7F8A400202DE9FE4F56
:108A100007460C4615469846DDE90C9A0E9EA3467D
:108A200025B10CB1206808B906F1040B43462A466B
:108A300059463846CDE9009A029600F003F8BDE8A1
:108A4000FE8F00002DE9FF4F81B00646894698460B
:108A5000DDE90FA7002500BF00BF039800286AD0FA
:108A60004FF0140B1421304601F067FB28B100BF12
:108A700000BFA81E05B0BDE8F08F746800BF00BF3E
:108A800084F8088084F809A04AEA08200006000C4F
:108A90004AEA082140EA1120054403980068206151
:108AA000208A80B20544206905EB104558464FEAFC
:108AB000EB710BEB9171C1F3870141F04001217023
:108AC0000E98607021780E9840EA01200006010C93
:108AD00022780E9840EA022041EA102005443089AD
:108AE00000F07FFE6080608805440020E08023481D
:108AF000008800F076FEA080A08805441F4800880A
:108B0000401C1E490880B9F1000F03D11C480068C1
:108B1000E06002E0D9F80000E060A08980B205447E
:108B2000E06805EB1045A8B200EB154505EB1545CF
:108B3000ED4365810CE07089142804DA00BF00BFA2
:108B40006FF0010096E7746820690090CDF80CD0B2
:108B500000BF00BF388C48B13089398C884205DDB0
:108B600039463046039AFFF74FFD83E700BF00BF49
:108B70007B6931463846039A98477BE77A020020A2
:108B800028F500082DE9F14F84B00498456828784D
:108B900000F00F001421B1EB800F02D000BF00BF26
:108BA000FAE0E88800F01DFEC0F30C004FF6FF71FC
:108BB00001EAC00A688800F014FE0746287800071A
:108BC000810E02910299B94200DDE5E00298381A5F
:108BD00087B2049801F0FBFB0646734801888819A8
:108BE0000A280CDD3146284600F0AAFA20B16E486A
:108BF000008830440A2802DD00BF00BFCCE06B488B
:108C0000046813E06069E968884209D1A0692969AC
:108C1000884205D1A089A988884201D1012000E0BD
:108C2000002010B100BF00BF02E02468002CE9D191
:108C300000BF34B93146284600F006FA044694B91C
:108C4000AAE0E88800F0CDFDC0F30C0058B9E08937
:108C500000F0C7FDC0F30C0028B11422294604F12E
:108C60000800F7F72DFBE888012121EA5010019058
:108C7000019850B10AEB070188B2504503DB4FF66B
:108C8000EB71884200DD7CE000BF2046019A049928
:108C900000F0FAF883460BF1010000B971E0424898
:108CA0000088304440490880019850B10AEB070120
:108CB00088B2A083A17F41F00101A17700BF00BF6E
:108CC00000BFBBF1010F58D1A08B143080B20090CF
:108CD00060684068D0F8009060684568142204F12C
:108CE00008012846F7F7ECFA009800F07AFD688052
:108CF0000020E880688114212846FFF7A3FB6881E3
:108D0000606804900DE0D9F80400039014214846EF
:108D100001F0F0FC4946049801F030FB0398D0F8CC
:108D20000090B9F1000FEED120480068844202D1D2
:108D30004FF000080EE01D48D0F8008006E0D8F89B
:108D40000000A04200D104E0D8F80080B8F1000F84
:108D5000F5D100BF4146204600F060F9049801F0CB
:108D600036FB064600BF00BF0F480088801B0E4937
:108D70000880049805B0BDE8F08F00BF00BF002058
:108D8000F8E700BF00BF606828B900BF00BF00213E
:108D9000204600F043F900BF00BF00BF049801F077
:108DA000D5FB0020E6E70000800200207C020020C6
:108DB00010B502462248016821E091F8290000F030
:108DC0000100D8B191F82900C0F38000B0B1486823
:108DD000A0B110688B681840D1E901342340984253
:108DE00001D1084610BD91F8290000F0020028B911
:108DF0001068CB68984201D10846F3E7096800295A
:108E0000DBD110480068A0B10E48006890F8290036
:108E100000F0010068B10B48006890F82900C0F329
:108E2000800030B107480068406810B110787F2892
:108E300003D100BF00BF0020D4E702480068D1E79B
:108E400010020020140200202DE9F84304460D46CC
:108E500016461F46DDF820803B463246294620460E
:108E6000CDF80080FFF723FBBDE8F88310B505209F
:108E700000F0C4FF10BD10B5044600BF00BF21467E
:108E8000052000F081FF10BD2DE9F74F84B00746A3
:108E90008846002501200190D8F80400029002992C
:108EA000488800F09EFC8346029800780007800EF8
:108EB00003900398584503DD681E07B0BDE8F08FA6
:108EC0000398ABEB00001FFA80FB0299C88800F002
:108ED00088FCC0F30C004FF6FF7101EAC00A00BF26
:108EE00000BFD8F8044000202060A4F804A00AEBDA
:108EF0000B00E080E088504502DA4FF0FF30DCE7FD
:108F0000D7F804903EE0D9F80460A088B188884280
:108F100020DAC4F800909DB1A088E988884203DB7C
:108F2000E088B188884202DD4FF0FF30C5E7C5F820
:108F30000080E888A18888420BD00020019008E0DA
:108F4000E088B188884202DD4FF0FF30B5E7C7F80E
:108F500004801AE0A088B188884202D14FF0FF3027
:108F6000ABE7A088F188884202DA4FF0FF30A4E72F
:108F70002DB1E888B188884201D000200190D6F850
:108F800000903546B9F1000FBDD100BFB9F1000F17
:108F90000FD155B100BF00BFC5F80080E888A18897
:108FA000884206D00020019003E000BF00BFC7F850
:108FB0000480069818B9B87F00F0010060B30198EA
:108FC00020B3786818B178684068808810B10020B4
:108FD00001901BE02546D4F800900BE0D9F804403E
:108FE000E888A188884202D00020019005E025464B
:108FF000D4F80090B9F1000FF0D100BF019828B16A
:1090000000BF00BF00BF00BF00BF00BF019808B194
:10901000012052E7002050E700204EE770B50446DB
:109020000D4608480068A04203D106492068086040
:1090300003E000BF00BF206828602146042000F044
:10904000A3FE70BD7C02002070B505460E460420CC
:1090500000F0D4FE044674B93146284600F070F89A
:10906000B04203DB042000F0C9FE04461CB900BF77
:1090700000BF002070BD20212046F7F748F90F20DF
:10908000E0770648006820600448046014222946FE
:1090900004F10800F7F714F92046EBE77C02002002
:1090A0002DE9F04704468946002600BF00BFB9F10C
:1090B000000F01D000BF00BF6068D0F80480B8F88E
:1090C0000400C0B96568D8F800006060142204F19B
:1090D00008016868F7F7F4F801212846FFF74AF914
:1090E000284601F074F9074600BF00BFF01986B2A8
:1090F000284601F02BFA656810E0D5F80480AA46EE
:10910000D8F80050504601F062F9074600BF00BF92
:10911000F01986B2504601F019FA00BF002DECD1CB
:1091200049462046FFF77AFF00BF00BF034800888A
:10913000801B024908803046BDE8F087800200208D
:109140002DE9F84F05468946002700BF0026B246A4
:109150000020009083461B48046821E06069E968AC
:10916000884207D1A0692969884203D1A089A988CA
:10917000884201D0012000E0002068B10BF1010B12
:109180001EB92646CDF800A006E0E07FF17F8842B8
:1091900002DC2646CDF800A0206800B1A246246873
:1091A000002CDBD12EB130460099FFF779FF8046C5
:1091B00047444F4502DABBF1010FC7DC3846BDE832
:1091C000F88F00007C02002070B500260C4804686F
:1091D00013E0E07F002807DDE07F401EE07700BF5E
:1091E00000BF2646246808E000BF00BF254624686B
:1091F00031462846FFF754FF00BF002CE9D170BD6F
:109200007C02002070B505462C4600BF00BF00BFA1
:1092100000BF606910B1606901F098F92046FFF75E
:109220002AFE70BD70B505460C4604F11A0000F028
:1092300049F806462878032805D104F1140000F007
:1092400041F846EA0046304670BD0146C8788A7843
:1092500042EA00204A7842EA00200A7842EA0020E6
:10926000704770B50246D3790024250245EA13649D
:10927000907940EA0323250245EA1364507940EAD5
:109280000323250245EA1364107940EA03232502EB
:1092900045EA1364D07840EA0323200240EA1364CD
:1092A000917841EA0323210241EA1364507840EAAD
:1092B0000323250245EA1364117841EA0323184683
:1092C000214670BD014648780A7842EA002070477E
:1092D00070B504460D4628682060286AA06095F89D
:1092E0002400E071686A20F0FF000021C4E9040155
:1092F0000020E061A86AE0642046E16CFBF7EBFD2A
:1093000006461EB9204600F003F80646304670BDFA
:109310002DE9F047044620680669A16B206800F03B
:109320007FFD054615B12846BDE8F087E06B007863
:10933000852801D00220F7E720223046E16B00F0BB
:1093400015FB7078401C4FEA4018B8F1600F02D34B
:10935000B8F5187F01D90220E6E700212046FBF787
:10936000B7FB0546042D00D102250DB12846DBE7E9
:10937000A16B206800F054FD05460DB12846D3E7E7
:10938000E06B0078C02801D00220CDE7202206F152
:109390002000E16B00F0EAFA96F823002C300F2150
:1093A000B0FBF1F0B8EB401F01D20220BCE7402730
:1093B00000BF00212046FBF78BFB0546042D00D1A2
:1093C00002250DB12846AFE7A16B206800F028FD0B
:1093D00005460DB12846A7E7E06B0078C12801D00B
:1093E0000220A1E7B7F5187F04D2F0192022E16B23
:1093F00000F0BCFA07F1200007464045D9D3B7F585
:10940000187F0AD8304605F0F0FF8146B01CFFF700
:1094100059FF814501D0022086E7002084E710B57E
:1094200004466069FDF770FC10BD0000014606208F
:1094300081F828000F48007881F822000D48427812
:10944000232042540B488278242042540948C27891
:109450002520425407480279262042540548427983
:109460002720425440F2DC5008840E2081F8290065
:10947000002070473807002070B50546F7F7B8FAA6
:109480000446204670BD70B505460C462046F7F7E9
:10949000F1FB002070BD0000C0218171A822C271C3
:1094A000012202726A224272154909790170144937
:1094B000497941701249897981701149C979C1701E
:1094C0000F49097A01710E49497A4171C0218172AF
:1094D000A822C272002202731E224273FF218173EE
:1094E000FF22C273027400224274C0218174A82238
:1094F000C2740022027501224275002181757047F5
:109500008007002010B588B001210020F9F7BFFFC7
:1095100084490860F8F731F88349086000F012F9CF
:109520000120F7F72FF910B1022008B010BD00217B
:10953000084605F0DFFA7D48FFF7AEFF7B48807AEA
:1095400001067A48C07A41EA00417848007B41EA46
:1095500000207649497B084302067448807A010658
:109560007248C07A41EA00417048007B41EA00201D
:109570006E49497B084300F47F4042EA00226B4871
:10958000807A01066948C07A41EA00416748007B59
:1095900041EA00206549497B084300F47F0042EA24
:1095A00010226248807A01066048C07A41EA004190
:1095B0005E48007B41EA00205C49497B084342EA5F
:1095C000106007905948807B01065848C07B41EAEB
:1095D00000415648007C41EA00205449497C084338
:1095E00002065248807B01065048C07B41EA004198
:1095F0004E48007C41EA00204C49497C084300F475
:109600007F4042EA00224948807B01064748C07BF0
:1096100041EA00414548007C41EA00204349497C39
:10962000084300F47F0042EA10224048807B010694
:109630003E48C07B41EA00413C48007C41EA0020B2
:109640003A49497C084342EA106006903748807CDA
:1096500001063648C07C41EA00413448007D41EAB9
:1096600000203249497D084302063048807C0106CB
:109670002E48C07C41EA00412C48007D41EA002090
:109680002A49497D084300F47F4042EA00222748E6
:10969000807C01062548C07C41EA00412348007DCA
:1096A00041EA00202149497D084300F47F0042EA55
:1096B00010221E48807C01061C48C07C41EA004103
:1096C0001A48007D41EA00211848407D014342EAE2
:1096D0001160059016481749002205ABCDE900211D
:1096E000029006AA07A9144800F0B4FB04462CB166
:1096F000114800F001FD104800F006FD0F480490ED
:1097000004A90020FCF704F8F8F782F84FF400737E
:10971000062200210A48F8F76DF8F8F789F80020CA
:1097200003E7000034000020380000203807002044
:109730008DEB0008D962000850070020DF05050501
:10974000B997000810B543F61C442046F8F7AAF86C
:10975000044908600846006808B9012010BD0020CF
:10976000FCE70000A80000202DE9F0410446254652
:109770006868804701F042FC06460D492868096880
:109780004718B81BB0F1004F01D3012000E00020C2
:1097900030B1296888192246064901F071FC04E0BD
:1097A00022460449384601F06BFCBDE8F081000018
:1097B000680200206997000810B504460148FCF7CC
:1097C000A3FD10BD500700200146080601F47F42AA
:1097D00040EA022001F47F0240EA122040EA1160D0
:1097E000704701460806000C40EA1120704710B58A
:1097F000002400BF00BF00BF00BF01F0F1FB00F07C
:109800001DF900F0D5FA00F021FC05F019FB02F07B
:1098100039F9FBF79BFD01F07BFC10BDF8B505465F
:109820000A462B4600200090002103F0010636B1C5
:10983000002A04DD13F8010B8DF80100521E1C46AE
:1098400003E034F8027B3944921E012AF9DC002A35
:1098500002DD20788DF80000BDF80000014488B2D8
:1098600000EB114188B200EB114126B1C8B2C1F33F
:10987000072747EA002188B2F8BD2DE9F0410546E7
:109880000E4690463046F6F757FD074617B928466C
:10989000BDE8F0812C460CE020783178884207D171
:1098A0003A4631462046F6F769FD08B92046EFE70B
:1098B000641C207820B1E01905EB08018842EBD93F
:1098C0000020E5E74FF4A060F7F7D6FE4FF4E13053
:1098D00005F006FAF7F7DCFF184800684FF47A72D3
:1098E000B0FBF2F1B1F1807F00D31DE021F07F40A9
:1098F000401E4FF0E022506150170F22002807DA77
:1099000013071D0E0E4B00F00F04241F1D5503E01E
:1099100013071C0E0B4B1C5400BF00204FF0E0221D
:1099200090610720106100BFFFF7ECFDFEF799FB87
:10993000F8F79CF9F8F710F800BFFEE700000020E8
:1099400018ED00E000E400E0F0B503461D460C46CB
:10995000002000BF15F8017B14F801CBA7EB0C0029
:10996000561E321E01D00028F4D0F0BD30B503469B
:109970000C463AB100BF14F8015B03F8015B551EB9
:109980002A1EF8D130BD000070B5054615B900BFDC
:1099900000BF70BD05F0030030B100BF00BF00BFC5
:1099A00000BF00BF00BFF4E7A5F108041F4800682E
:1099B000844205D305F10C001D490968884206D987
:1099C00000BF00BF00BF00BF00BF00BFE1E7002134
:1099D000184801F0B7FA207948B900BF00BF154810
:1099E00001F022FB00BF00BF00BF00BFD1E720464F
:1099F00000F05EF848B900BF00BF0E4801F014FB4C
:109A000000BF00BF00BF00BFC3E7002020710A48AD
:109A10000068844201D208480460204600F084FFB8
:109A2000044801F001FB00BFB3E70000AC000020D8
:109A3000B0000020B4000020B800002010B500BF26
:109A400000BF16480068C01C20F0030014490860DD
:109A5000084604684FF47050208000206080207118
:109A60004FF4705000F0AEFF0E4908600120096805
:109A700008714FF470500B4909680880094909685A
:109A8000488007480068084908600121074801F03C
:109A9000B9FA08B100BF00BF10BD0000A800002047
:109AA000AC000020B0000020B8000020B40000206E
:109AB0002DE9F0410446204600F0C2F80546208812
:109AC00000F080FF0646608800F07CFF0746208893
:109AD000B0F5705F10D86088B0F5705F0CD8608802
:109AE000A84202D03888A84206D1064800688642BB
:109AF00005D07088A84202D00020BDE8F081012086
:109B0000FBE70000B00000202DE9F0478046B8F1E7
:109B1000000F02D10020BDE8F08708F1030020F01B
:109B2000030085B20C2D00D20C25B5F5705F01D86D
:109B3000454501DA0020EEE70021394801F002FA3C
:109B40003848006800F07CF806465EE0304600F0D9
:109B500039FF04462079002853D1218806F10800F6
:109B6000081AA8424DD3218806F10800091A05F108
:109B7000140081421DD306F1080028441FFA80F921
:109B800000BF00BF484600F01DFF074600213971A5
:109B9000218839807E80A4F80090012020713888C7
:109BA000B0F5705F07D0388800F00CFFA0F8029085
:109BB00001E0012020711B480068844215D119483A
:109BC000D0F800A004E0BAF8000000F0FBFE8246E6
:109BD0009AF8040018B1144800688245F3D111487E
:109BE000C0F800A000BF00BF00BF0D4801F01CFA84
:109BF00000BF00BF00BF00BF00BF00BF04F10800EE
:109C000089E7304600F0DEFE0688C5F57050B042A8
:109C10009CD8034801F008FA00BF00BF00207AE793
:109C2000B4000020B8000020B000002010B50346AA
:109C300000BF03F8011B541E221EFAD110BD000004
:109C4000014602480088081A80B27047AC00002024
:109C50002DE9F84F81468B460BF1030020F00300FD
:109C600085B20C2D00D20C25B5F5705F01D85D458D
:109C700002DA0020BDE8F88F00BF00BF3E48006850
:109C8000814503D33D480068814505D300BF00BF2F
:109C900000BF00BF4846EDE7A9F108084046FFF7BE
:109CA000CFFF0646B8F80010881B08381FFA80FA64
:109CB00000BF00BF554501DD0020DBE7554501D160
:109CC0004846D7E700212E4801F03CF9B8F80000DB
:109CD00000F078FE0446207920BB00BF00BF20883A
:109CE000009006F10800284487B226480068A04288
:109CF00004D1384600F066FE22490860384600F07C
:109D000061FE044600202071009820806680A8F83B
:109D100000702088B0F5705F03D0208800F052FEFC
:109D2000478023E005F1140050451FD806F10800D4
:109D3000284487B200BF00BF384600F043FE044607
:109D400010480068844201D20E480460002020714F
:109D5000B8F8000020806680A8F800702088B0F570
:109D6000705F03D0208800F02DFE4780044801F08A
:109D70005BF948467EE70000AC000020B000002000
:109D8000B4000020B800002070B504460D4600BFA6
:109D9000112C00DB70BD00BF05B9FBE7034951F88A
:109DA00024002946FBF703FD00BFF3E770F4000829
:109DB00010B5002406E0054951F8240000F008F829
:109DC000601C84B2112CF6D310BD000070F40008A2
:109DD00010B50023C46823608368DB1C23F00301F3
:109DE000002207E0C3681B680B60C36819608388A2
:109DF0001944521CC3889342F4DC10BD70B504466C
:109E000000BF112C01DB002070BD00BF034951F8D9
:109E10002400FBF7D6FC05462846F5E770F4000859
:109E200070B504460D460026E06CA84210D02046CE
:109E300001F03AF806465EB9607801232A4604F13B
:109E40005001FBF7E3F810B14FF0FF350126E56450
:109E5000304670BD2DE9F04704460D4616461F46B4
:109E6000DDE9098ADDF8209000BF14B90020BDE8C3
:109E7000F08700BF00BFB8F1000F01D10020F6E766
:109E800000BF05B9344D06B9334E07B9324F002033
:109E90006060A060E060314860610020208484F848
:109EA0002900C4F81C902E48007884F82C00C4F8CF
:109EB00010A03B4632462946204600F0EDF82046E9
:109EC000C04708B10020D2E700BF94F82C20FF2A39
:109ED00002D1002284F82C200021224A106811E0CF
:109EE00000BF00BF491C00BF00BF90F82C2094F8B1
:109EF0002C309A4205D194F82C20521C84F82C2046
:109F000002E000680028EBD100BF0028DDD194F802
:109F10002C00FE2803D100201149087004E094F8B9
:109F20002C00401C0E4908700E48006820600D4847
:109F3000046000BF00BF00BF00BF00BF00BF00BF84
:109F400000BF00BF00BF00BF00BF00BF00BF00BF19
:109F500000BF20468BE7000028F500088FA000080E
:109F6000180200201002002070B504460D46294654
:109F7000204602F06FFA2946204605F07DF870BDB4
:109F800010B503460868DC68A04201D1012000E05A
:109F9000002040B909B9002000E00868D86000BF7F
:109FA00000BF012010BD0020FCE7F8B505460C46B7
:109FB000164600BF00BF00BF00BF20686968884226
:109FC00001D1012000E00020A0B92068009068685D
:109FD000306000BF00BF69463046FFF7C5FF0CB9CF
:109FE000002000E0206868600121284600F02FF87A
:109FF0000120F8BD0020FCE710B5034608689C6806
:10A00000A04201D1012000E0002040B909B90020A0
:10A0100000E00868986000BF00BF012010BD00206C
:10A02000FCE7000002466AB10748016808E091F8C1
:10A030002C00401CC0B2904201D10846704709680C
:10A040000029F4D10020F9E710020020704770B514
:10A0500004460D4600BF00BF94F8290000F004003C
:10A0600020B194F8290000F0010000B970BD05F09E
:10A07000010050B1606840B194F8290000F0080078
:10A0800018B1211D2046FBF785FF00BFEEE7034610
:10A090006FF00B00704700002DE9F84F80460C462A
:10A0A00015461E464FF00009CA4604B9114C05B9C1
:10A0B000104D06B90F4E0CB1206808B9012000E020
:10A0C0000020074627B16A4621464046FFF76DFF4C
:10A0D0004A4629464046FFF78FFF524631464046E2
:10A0E000FFF74EFF27B96A4621464046FFF75DFF5E
:10A0F000BDE8F88F28F500080249086000BF00BFDE
:10A10000704700001402002010B5044600BF04B9D7
:10A1100010BD00BF94F8290000F0010058B900BF3D
:10A1200094F8290040F0010084F8290000BF0321C1
:10A130002046FFF78CFF00BFEAE770B504460D46E6
:10A1400000222946204600F001F870BD70B5034694
:10A15000154600BF00BF13B1B1F5803F01D3012008
:10A1600070BD09B90020FBE78AB21889104480B29B
:10A17000904201DA0120F3E71E7B06F0800048B12F
:10A180005868441A03F11000844209D200BF00BF8E
:10A190000120E5E715B15868441A01E00120DFE726
:10A1A00000BF00BF5C605889104458811889104472
:10A1B00018810020D4E72DE9FE4F82460D469046D7
:10A1C000574600BF00BFB8F1010F0AD0B8F1410FE8
:10A1D00006D0B8F5C17F0BD0B8F5207F7CD14AE01E
:10A1E00000BF42462946002000F07FF8044677E091
:10A1F000002400200290A94600BF1020FFF7FEFDBA
:10A20000064636B914B1204600F0A0F90020BDE89A
:10A21000FE8FF81C20F00300C0F5007080B24845A6
:10A2200001DD484605E0F81C20F00300C0F5007091
:10A2300080B283460020CDE9008006F1100038444A
:10A24000C01C20F003015B464A46304600F0E5F9A9
:10A2500000BF00BF00BF00BF0CB9344601E0029848
:10A2600006600296A9EB0B001FFA80F90027B9F1EE
:10A27000000FC2DC34E0F81C20F00301E81C20F0E1
:10A280000300084486B206F110001FFA80F9E81CAA
:10A2900020F00300B04204D8E81C20F00300484539
:10A2A00001D90020B3E74846FFF72EFC04460CB95D
:10A2B0000020ACE70020CDE9008004F11000384414
:10A2C000C01C20F003012B462A46204600F0A5F9C9
:10A2D00000BF00BF04E0FFE700BF00BF002096E71B
:10A2E00000BF00BF00BF204691E72DE9FC410646B4
:10A2F0000C46174600BF00BF0F20FFF77FFD054645
:10A3000025B900BF00BF0020BDE8FC810020234626
:10A3100022463146CDE90070284600F07EF92846F5
:10A32000F2E72DE9FC5F06460C4617469846DDE944
:10A330000C9BB24600BF00BF0AF1030020F00300EF
:10A340002044584504D900BF00BF0020BDE8FC9F51
:10A35000B9F1000F06D00AF1030020F0030000EB72
:10A36000090500E000250220234622462946CDE9C2
:10A370000070404600F051F94046E7E710B502464C
:10A3800000BF02B101B910BD00BF104604E003894F
:10A390000C892344038100680368002BF7D100BFB8
:10A3A00000BF00BF00BF03890C8923440381016003
:10A3B00000BFE8E730B505460C4621462846FFF7C2
:10A3C000DDFF204600F08DF900BF00BF30BD014623
:10A3D000002002E0421C90B209680029FAD17047BF
:10A3E0002DE9F04107460D46144621892A46384694
:10A3F000FFF7E1FE064616B90020BDE8F0812146D0
:10A40000304600F005F8804600BF00BF3046F4E754
:10A410002DE9F04105460C460026002700BF00BF8D
:10A4200000BF25B11CB128892189884203DA6FF069
:10A430000F00BDE8F08100BF00BF6889801B618903
:10A44000C91B884203D36089A0EB070802E0688932
:10A45000A0EB06086268D1196A6890194246F5F7C0
:10A460002FFF4644474400BF00BF00BF00BF6089C4
:10A47000B84201D8002724686889B04208D1002674
:10A480002D6800BF1DB914B16FF00F00D1E700BFF8
:10A4900054B160892189884206D100BF206810B17B
:10A4A0006FF00500C5E700BF55B16889298988426A
:10A4B00006D100BF286810B16FF00500B9E700BFF2
:10A4C000002CBAD100BF00BF0020B2E72DE9F05F39
:10A4D0008046894616461D464FF0000AD34600BF07
:10A4E000B8F1000F02D10020BDE8F09F00BF00BF0F
:10A4F000B9F1000F01D10020F6E700BF444620E08B
:10A5000035B16089A84203DC6089281A85B217E05A
:10A510006089401B87B2B74200DD37466268511937
:10A5200009EB0A003A46F5F7CBFE0BEB07001FFAE2
:10A5300080FB0AEB07001FFA80FAF01B86B20025A9
:10A5400024680EB1002CDBD15846CDE72DE9F04749
:10A55000044634B900BF00BF00BF00BF0020BDE803
:10A56000F08700BF00BF002639E000BF00BFA07B1E
:10A57000401E00F0FF0884F80E80B8F1000F2AD1C9
:10A58000276800BF00BF207B00F00F05607B00F054
:10A59000020038B1A14600BF00BF2046D9F8101014
:10A5A000884714E0022D04D121461020FFF7ECFB70
:10A5B0000DE0012D04D121460F20FFF7E5FB06E059
:10A5C0001DB92046FFF7E0F901E000BF00BF701C95
:10A5D000C6B23C4602E000BF00BF002400BF002C12
:10A5E000C3D13046BBE770B504460D46012229466B
:10A5F000204600F001F870BD70B505460C461646C1
:10A60000002C04DA6142284600F074F870BD32462E
:10A6100021462846FFF79AFDF8E770B5DDE90445C5
:10A620000026066041600281438104734573012660
:10A6300086730026C67370BDF8B506460F461546EC
:10A640006A463946304600F078F8044644B16089DD
:10A65000BDF80010884203DDBDF800106068455465
:10A66000F8BD2DE9F04106460F4600BF00BF308916
:10A67000B84201DCBDE8F0813089C01B1FFA80F8C8
:10A680003D46344609E06089281A85B22089A0EB4E
:10A6900008002081246800BF00BF6089A842F2DB67
:10A6A000207B00F00F0080B96089A8420DD0607B4C
:10A6B00000F0020048B9A088001B284481B220465F
:10A6C000FFF7C6FA044600BF00BF6581608920819C
:10A6D000206810B12068FFF739FF0020206000BF1C
:10A6E000C8E730B100BF817B491C817300BF00BF48
:10A6F00000BF704710B5024600BF00BF12B1B1F5F0
:10A70000803F01D3012010BD09B90020FBE78BB2C7
:10A7100000BF5089984201DA0120F4E700BF546875
:10A720005068084450605089C01A50811089C01A7E
:10A73000108100BF00BF0020E5E72DE9F04104468D
:10A740000D46164632462946204600F004F80746D4
:10A750003846BDE8F08130B503460C462146184620
:10A7600003E045894D1BA9B2006810B145898D42AF
:10A77000F7DD02B1118030BD2DE9F04704460E46E9
:10A780001746B9464FF0000A00BF1CB96FF00F0022
:10A79000BDE8F08700BF00BF16B96FF00F00F7E704
:10A7A00000BF00BF2089B84202DA4FF0FF30EFE768
:10A7B00000BF1CB116B12089B84202DA6FF00F0059
:10A7C000E6E7254611E000BF00BFC846688940455E
:10A7D00001D2B5F80A8006EB0A0142466868F5F72F
:10A7E0006FFDA9EB0809C2442D68B9F1000FEAD149
:10A7F00000BF00BF0020CBE72DE9F84F8346884615
:10A80000154699466A4649465846FFF796FF04465C
:10A8100064B32089BDF800102944884226DB2F4606
:10A82000C24600BF00BF6089BDF80010401AA842B0
:10A8300004DA6089BDF80010401A00E0284686B2AC
:10A84000BDF800206168881832464146F5F738FDAA
:10A85000B81B87B2B244002F06DD3A465146206845
:10A86000FFF78AFFBDE8F88F0020FBE74FF0FF30CD
:10A87000F8E7F8B505460E466A4631462846FFF722
:10A880006AFF04464CB16089BDF80010884204DDBF
:10A89000BDF800106068405CF8BD4FF0FF30FBE78A
:10A8A0002DE9F04780460C4604F11A00FEF70AFD38
:10A8B00010B10020BDE8F087207820F04000401E55
:10A8C00000EB800101EBC0054FF00109002619E003
:10A8D0001449895D0819FEF7F5FC0746B9F1000F28
:10A8E00009D0FF2D01D30020E4E7B94628466D1CAE
:10A8F00028F8107005E04FF6FF70874201D0002065
:10A90000D8E7761C0D2EE3D3207800F0400030B15C
:10A91000FF2D01D30020CDE7002028F815000120ED
:10A92000C8E700003C0301082DE9F041044600BFE0
:10A9300000BF00BF00BF00BF00BF00BF00BF208836
:10A9400000F040F80546AC4219D02879B8B91B4848
:10A950000068854213D01A480068A84201D11848FF
:10A960000460288820802888B0F5705F07D02046D2
:10A97000FFF766F90746288800F024F847806088CA
:10A9800000F020F80646A64215D0307998B90C4858
:10A990000068A04201D10A480660208830802088E3
:10A9A000B0F5705F07D03046FFF74AF907462088B8
:10A9B00000F008F84780BDE8F0810000B0000020FA
:10A9C000B8000020014602480068084470470000B3
:10A9D000AC0000202DE9F04704460D4616464FF026
:10A9E0000209022D77D3206BA84274D92078012860
:10A9F00006D002284BD0032861D004280DD15FE097
:10AA00002F4607EB5707E06B00EB57212046FFF777
:10AA100007FA8146B9F1000F00D079E038467F1C73
:10AA2000C0F3080104F1500001EB000805F001003B
:10AA300028B1F1B298F8000061F31F1000E0304631
:10AA400088F800000120E070E06B00EB5721204601
:10AA5000FFF7E6F98146B9F1000F00D058E0C7F3DF
:10AA6000080104F1500001EB000805F0010010B1ED
:10AA7000C6F3071006E098F8000000F0F000C6F3F7
:10AA80000321084388F800000120E07040E0E06BFB
:10AA900000EB15212046FFF7C3F98146B9F1000FFD
:10AAA00000D035E0B1B240F2FF1202EA450304F1F2
:10AAB0005002981800F061F90120E07028E000BF12
:10AAC000E06B00EBD5112046FFF7AAF98146B9F1FA
:10AAD000000F01D01CE01CE0207804280BD040F2CD
:10AAE000FF1101EA850204F150015018FEF7ADFB99
:10AAF00066F31B00064640F2FF1101EA850204F1ED
:10AB000050015018314600F0FEF80120E07000BFFF
:10AB100000BF4846BDE8F0872DE9F04707460C46E0
:10AB20001546984684F80D800F20E07200202073AF
:10AB3000002104F11A0000F020F9681E00EB8001EA
:10AB400001EBC00900200646824600BF4FF6FF70A9
:10AB5000864204D0484609F1010937F810600D49D2
:10AB600011F80A100819314600F007F90EB94FF62E
:10AB7000FF760AF1010082460D28E7D34FF6FF70F9
:10AB8000864202D037F8190008B945F04005257013
:10AB9000BDE8F0873C0301082DE9F05F06460F464B
:10ABA00090464FF000093568BA46BB46022F02D3E3
:10ABB000286BB84202D80220BDE8F09FB8F1000F20
:10ABC00011D02878042802D1F07902280BD04FF058
:10ABD000FF3241462846FFF7FDFE8146B9F1000FDE
:10ABE00001D04846E8E700BF39463046FCF774FD1F
:10ABF000044604B93EE0012C01D10220DCE7601CD0
:10AC000008B90120D8E7287804280AD0002239465C
:10AC10002846FFF7DFFE8146B9F1000F01D0484614
:10AC2000CAE7286B801EE969814206D2E869401CA8
:10AC3000E861287940F0010028710BF10100A04281
:10AC400001D1A34612E0287804280DD1ABEB0A000D
:10AC5000421C002351462846F9F747F98146B9F1CD
:10AC6000000F01D04846A7E7A346A2462746286B17
:10AC7000B842B9D800BF2878042830D1B8F1000F05
:10AC800002D10020F0712AE0F079D8B9B76811E05C
:10AC900039463046FCF720FD0446022C01D2022042
:10ACA0008AE7601C08B9012086E7781C844200D03E
:10ACB00002E07F1C4745EBD100BF47450FD1022082
:10ACC000F0710CE0F079032809D1B068404506D84E
:10ACD000B169B0680844404501D30220F0710020FA
:10ACE0006AE770B506460C461546A9B204F11A008B
:10ACF00000F043F83078032804D1290C04F1140043
:10AD000000F03BF870BD00F8011B090A00F8011BB8
:10AD1000090A00F8011B090A00F8011B704730B549
:10AD200000F8012B110A41EA03621B0A00F8012B0B
:10AD3000110A41EA03621B0A00F8012B110A41EAD9
:10AD400003621B0A00F8012B110A41EA03621B0A85
:10AD500000F8012B110A41EA03621B0A00F8012BDB
:10AD6000110A41EA03621B0A00F8012B110A41EAA9
:10AD700003621B0A00F8012B30BD00F8011B091209
:10AD800000F8011B70472DE9F04104462068056971
:10AD9000284604F02AFB80464146A81CFFF7EDFF39
:10ADA0006878471C2046E16CFAF795F8064618E0EB
:10ADB000A16B2068FFF734F8064606B113E02022A5
:10ADC0002946E06BFEF7D2FD01202168C870781E8D
:10ADD000071E00D107E0203500212046F9F778FE54
:10ADE0000646002EE4D000BF0EB1012E02D130463F
:10ADF000BDE8F0810220FBE730B5014600200B22C0
:10AE000000BF431003EBC01411F8015B6319D8B203
:10AE1000531E1A1EF5D130BD70B50446204600F011
:10AE200043F80546002D38D1207803282ED120790B
:10AE300001282BD14202002104F15000FEF7F6FE5A
:10AE40004AF6552104F24E20FFF797FF144904F10A
:10AE50005000FFF758FF134904F50D70FFF753FF3B
:10AE600004F50E70E169FFF74EFF04F50F70A1695C
:10AE7000FFF749FFA06B401CE0646078012304F1F8
:10AE80005001E26CFAF7F0F800202071607800229F
:10AE90001146FAF785F800B10125284670BD00007B
:10AEA000525261417272416170B504460025E078EA
:10AEB000E8B16078012304F15001E26CFAF7D4F8AC
:10AEC000A0B90020E070E16BE06C401A616B884231
:10AED0000DD2A07802280AD1636BE16CCA186078A1
:10AEE000012304F15001FAF7BFF800E001252846DC
:10AEF00070BD00002DE9F04104460E46154620685D
:10AF000008B90F4820604DB94FF0FF323146206834
:10AF1000F6F7E6FA90B90120BDE8F0814FF47A70B7
:10AF200068434FF47A71B0FBF1F73A463146206836
:10AF3000F6F7D6FA10B94FF0FF30EDE72846EBE709
:10AF40003CF5000870B504460D4604B90E4C00BF30
:10AF500000BF3DB94FF0FF312068F8F7A6FA01288D
:10AF60000ED170BD4FF47A7068434FF47A71B0FB24
:10AF7000F1F631462068F8F798FA012800D1F0E799
:10AF80004FF0FF30EDE700003CF500082DE9F041FF
:10AF900000F034F8074600BF0F4804680CB9BDE85C
:10AFA000F0816068381AB0F1004F01D3012000E051
:10AFB000002000B1F3E7084920680860A568E6684A
:10AFC00006496068086021460D20FEF7DDFE0DB1E0
:10AFD0003046A847E0E70000640200206802002035
:10AFE000704770B504460D46F6F76CFA206020688D
:10AFF00010B94FF0FF3070BD0020FCE710B5F6F738
:10B00000BFFC10BD70B504460D4600BF00BF4FF633
:10B01000FF712846F8F73BFA2060206810B94FF01E
:10B02000FF3070BD0020FCE710B5044604B9034CA6
:10B0300000BF00BF2068F8F75EFA10BD3CF50008BD
:10B040002DE9F04180460C4615461E46069FFAB291
:10B05000334629462046F6F7CDFBBDE8F0812DE9C1
:10B06000F04104460E46174600BF00BFFFF7C6FF7B
:10B0700005193A463146284600F002F8BDE8F0814D
:10B080002DE9F04106460F4690460D20FEF7B6FE2C
:10B0900004461CB900BF00BFBDE8F081002020605D
:10B0A000A760C4F80C8066601848006810B917489B
:10B0B0000460F1E71549606809684968401AB0F111
:10B0C000004F01D3012000E0002028B10F480068A4
:10B0D00020600E48046017E00C48056811E02868FD
:10B0E00050B1606829684968401AB0F1004F01D337
:10B0F000012000E0002018B1286820602C6002E0E8
:10B100002D68002DEBD100BF00BFC5E76402002011
:10B1100010B5012408E0064901EBC40251F83400DF
:10B120000449FFF79CFF641C042CF4D310BD0000FD
:10B1300004F500086997000810B50F48006810B9B9
:10B140004FF0FF3010BDFFF759FF04460A48006872
:10B150004068001BB0F1004F01D3012000E0002047
:10B1600008B10020EEE7044909684968081B00BFE0
:10B1700000BF00BFE6E70000640200202DE9F041B7
:10B180000646356815F8014B2046F9F7BBFA60B161
:10B1900015F8017B3846F9F7CFFA18B94FF0FF30B0
:10B1A000BDE8F08107EB042084B24CB14FF46A7122
:10B1B0002046FBF76FFD044614B94FF0FF30EFE770
:10B1C000A04635604046EBE72DE9FF5F04460E469A
:10B1D00000BF0CB9BDE8FF9F00BF00BF00BF207DCE
:10B1E0000A2807D12146334801F0FEFC204600F032
:10B1F000ADFB5CE04FF0000AD346276DD4F8248005
:10B20000D4F88C50D4F81090207DE8B9E08A38B397
:10B2100000BF29480068A04205D127480068C068DF
:10B22000254908600DE02449086806E0C168A1428C
:10B2300002D1E168C16002E0C0680028F6D100BF19
:10B2400000BF0020E0600BE0B246B4F816B000BFCB
:10B2500021461A4801F0C8FC01201949087000BFB6
:10B26000206F10B1206F02F001FDE06E10B1E06EB2
:10B2700002F0FCFCBAF1000F0CD000BF00BF208B25
:10B28000211D23464246CDE9001B02903946204647
:10B2900002F0A9FC207D0390204600F057FB00BF80
:10B2A0001DB16FF00C014846A84700BF00BF00BFAA
:10B2B00090E7000030020020240200202C02002031
:10B2C0003402002010B5044601212046FFF77CFF20
:10B2D00010BD28B1027D012A02D10246916100BF52
:10B2E000704770B505460C46164600BF00BF2046A5
:10B2F000FFF7E8FF6FF00C0070BD000070B5054669
:10B300000120FEF77BFD04465CBB00F09FFB00BF05
:10B3100000BF00F03BFF0120FEF770FD0446FCB9C2
:10B3200000BF00BF092000F009FF0120FEF766FD05
:10B330000446A4B900BF00BF082000F0FFFE0120B2
:10B34000FEF75CFD04464CB900BF00BF284600F084
:10B35000BFFE0120FEF752FD044600BF00BF00BF44
:10B3600000BF34B398212046F4F7D1FF1434657040
:10B3700040F66830A4F85000E082A082FF2004F874
:10B38000090C4FF40670E0830620A0856085C01F7D
:10B39000A0830120A08608480068E0600748007884
:10B3A000A07240F66830E0860548E0660548E06730
:10B3B000143C204670BD0000200200203602002010
:10B3C00049D9000800DD6D0000B10161704700003F
:10B3D0002DE9F04705460C4617464FF0040904B91D
:10B3E000254C00BF1DB96FF00F00BDE8F08700BF0E
:10B3F00000BF287D10B16FF00500F6E700BF37B938
:10B4000001F070F807460FBB6FF00100EDE74FF059
:10B41000000819E0194850F82800066810E0F08A82
:10B42000B8420CD146B1306830B12CB1206818B1A7
:10B4300030682168884202D16FF00700D5E7F668CE
:10B44000002EECD108F10108C845E3DB34B12068D7
:10B4500020B10CB9002000E020682860EF8200BF16
:10B4600007480068E8600648056002F07DFF00BFFD
:10B4700000BF00BF0020B8E728F50008F4F400087A
:10B480002402002010B5044600BF14B96FF00F006D
:10B4900010BD00BF00BF00BF207D012805D000BF48
:10B4A000608B40F01000608300BF0121204600F057
:10B4B00001F8EDE73EB504460D4600BF00BF002D84
:10B4C0004AD0207D042802D0207D072844D1606F17
:10B4D00020B9208D40F6683188423DD000BF00BFC2
:10B4E000208BE18A221DCDE90021029023462046CF
:10B4F000626A216D02F077FB204601F044FB00BF39
:10B5000000BF39480068A04205D137480068C068CC
:10B51000354908600DE03449086806E0C168A14279
:10B5200002D1E168C16002E0C0680028F6D100BF26
:10B5300000BF0020E06000BF01202C49087000BF60
:10B540002B480068A04202D102F094FF02E020469E
:10B5500000F0FCF900203EBD207D20B1012824D060
:10B5600002283AD12CE0E08AD8B100BF2148006817
:10B57000A04205D11F480068C0681E4908600DE060
:10B580001C49086806E0C168A14202D1E168C160B7
:10B5900002E0C0680028F6D100BF00BF0020E060D4
:10B5A00000BF204600F0D2F91BE0204600F00EFE5E
:10B5B0002146114801F018FB204600F019FA10E06E
:10B5C00000BF2146084801F00FFB01200749087021
:10B5D00000BF204600F0BAF903E0204600F00EF864
:10B5E000B9E700BF0020B6E72C020020340200209B
:10B5F00060020020240200202802002070B50546C9
:10B6000000BF00BF287D032804D004280AD00728E3
:10B6100018D10FE0284602F08FFB04460CB9052034
:10B62000287511E0284602F087FB04460CB9052076
:10B63000287509E0284602F07FFB04460CB9092072
:10B64000287501E0002070BD00BF1CB9284600F03D
:10B650008FFF09E0601C38B900BF688B40F008001C
:10B66000688300BF0020EEE72046ECE72DE9F05F9D
:10B6700080460F4691469A460A9D00BF00BF00BF14
:10B6800000BF05F0010008B1042000E0002005F033
:10B69000020109B1002100E00021084405F0080181
:10B6A00009B1002100E00021084405F0100109B1B2
:10B6B000002100E0002146180320FEF79FFB041E36
:10B6C00007D100BF00BF3846FEF740FF0020BDE8AD
:10B6D000F09F257300202060676000BF00BF38899D
:10B6E000801B20810020608114213846FEF725FD53
:10B6F00030B100BF00BF204602F0ABFA0020E6E701
:10B70000606840682061B8F81600FEF76AF82169A1
:10B710000880B8F81800FEF764F8216948805046A0
:10B72000FEF752F821694860B346F11706EB9171B4
:10B730008910491D4FF6FF7202EA013141EA090002
:10B74000FEF74FF821698881002021694882204650
:10B75000BDE770B50B46164600BF00BF03B970BD0C
:10B76000198C71B12822914202DD8D1AADB200E030
:10B7700000252C46A04201DA054600E02546284671
:10B7800000BF00BFEBE72DE9F84304460D46002754
:10B79000B94600BF00BF00BF00BF00BF00BF05F03B
:10B7A000020000B1012707F0010008B1042000E009
:10B7B000002007F0020109B1002100E00021084447
:10B7C00007F0080109B1002100E00021084407F05A
:10B7D000100109B1002100E0002100EB01094FF444
:10B7E000207249463620FEF7E6FCB0F1000809D188
:10B7F00000BF608B40F08000608300BF4FF0FF30DF
:10B80000BDE8F88300BF00BF00972A4641462046A6
:10B81000E36DFFF72BFF061E07D100BF608B40F0E2
:10B820008000608300BF701EEAE700BF00BF00BF5A
:10B8300000BF00BF00BFE06E08B9E66607E0E06E3B
:10B8400000E0006801680029FBD1066000BF00200D
:10B85000A4F8680005F0020010B905F0010010B16D
:10B86000E06D401CE06505F0010028B100BF608B71
:10B8700040F02000608300BF7068FEF7A8FDB4F8B8
:10B8800066100844A4F8660000BF00BFB4F8660064
:10B8900008B100BF00BF0020B2E718B100BF00BF71
:10B8A000C0F88C107047000070B525480078401C27
:10B8B0002349087000BF234804683DE0A07F204969
:10B8C0000978884237D01E480078A077A07E00F023
:10B8D000010088B100BF00BF00BF608B40F00200D4
:10B8E000608300BF204600F043FE00BF608B4FF630
:10B8F000FC710840608300BFA07E00F0080058B1D2
:10B9000000BF00BF00BF608B4FF6F7710840608337
:10B9100000BF2046FFF772FEE568606F48B1002067
:10B9200009490870204601F0AFFC0748007800B1D3
:10B93000C1E72C4600E0E468002CBFD170BD0000D8
:10B94000360200202C0200203402002010B50446EC
:10B9500000BF00BF21460120FEF716FA10BD00000F
:10B960002DE9F04706460C469046994620E000BF78
:10B9700000BF254624686868FEF729FD074600BF1A
:10B9800000BF00BF00BFB6F86600C01BA6F8660087
:10B99000288915490988084413490880284602F077
:10B9A00058F900BF00BFB6F8660008B100BF00BF7D
:10B9B000B4B121694868FDF707FF8246216988898B
:10B9C000FDF70FFF00F0030008B1012000E00020A8
:10B9D00021890844504405490968401A0028C6DDF9
:10B9E0002046BDE8F08700005402002050020020ED
:10B9F00010B5044600BF00BF21460220FEF7C4F97F
:10BA000010BD00000D4801880088401C0B4A1080C2
:10BA10000B48006818B10B480088814205DA0A48D3
:10BA2000006800F11402505C704706480078081A5C
:10BA3000C2B203480068805CF6E7000048020020BC
:10BA400044020020420200203C02002070B50C4855
:10BA5000046812E0E568A07E00F0080058B100BF5D
:10BA600000BF00BF608B4FF6F7710840608300BFD6
:10BA70002046FFF7C3FD2C4600BF002CEAD170BD65
:10BA80002C020020704700002DE9FE4F05468B4632
:10BA900000BF00BFFC49686808606889142802DAA2
:10BAA00000BF00BFA3E2F94A11685069FCF784FDAA
:10BAB00028B9F648007D00F0F000E02800D196E2B9
:10BAC000F248143000902A89031F06212846FDF70A
:10BAD000BBF98246BAF1000F02D000BF00BF86E278
:10BAE000E94909688889FDF77CFE00138700142F57
:10BAF00002DB2889B84202DA00BF00BF77E2A7F173
:10BB00001400E34908800020E24908606889B842CF
:10BB100008DBDF480088E049088039462846FEF700
:10BB2000E9FD2BE000BF00BF14212846FEF7E2FD2F
:10BB30006889D9490880D64800880988401A1FFAC0
:10BB400080FAD54801882846FEF7D4FD2868408948
:10BB5000504502DA00BF00BF49E228684068CD497D
:10BB6000086051462868FEF7C5FD2889A0EB0A0049
:10BB7000288100BF00BF00BF00BF00BFC2490968E5
:10BB80000888FDF72EFEC04909680880BE4909688B
:10BB90004888FDF726FEBC4909684880BA4909680B
:10BBA0004868FDF711FEB84909684860BB4908605C
:10BBB000B54909688868FDF707FEB34909688860D8
:10BBC000B7490860B0490968C889FDF70AFEAE495F
:10BBD0000968C881AC4909688889FDF702FE00F050
:10BBE0003F00B04908702889AF490880AD48007807
:10BBF00000F0030050B108460088401C08802889E6
:10BC00000988884202DD00BF00BFF0E14FF0000963
:10BC1000A64804683BE000BF00BF00BF00BF00BFF4
:10BC200000BF207A50B1217A9848406890F82C00E3
:10BC3000401CC0B2814201D0A14627E0208B92492E
:10BC40000968098888421FD1E08A8F4909684988B4
:10BC5000884219D18D4960680969884214D18B499D
:10BC60002068496988420FD100BF00BFB9F1000FB9
:10BC700007D0E068C9F80C008C480068E0608B4889
:10BC8000046000BF00BF04E0A14600BFE468002CD0
:10BC9000C1D100BF002C71D1854804682FE000BFDE
:10BCA00000BF207A48B1217A7848406890F82C008B
:10BCB000401CC0B2814200D020E0208B724909684C
:10BCC0000988884219D1E08A6F4909684988884201
:10BCD00013D16E496068096988420ED16B492068AA
:10BCE0004969884209D100BF00BF204602F058FBD5
:10BCF0002846FEF72BFCBDE8FE8F00BFE468002C51
:10BD0000CDD1A1466B4806681FE0307A50B1317A38
:10BD10005E48406890F82C00401CC0B2814201D0BF
:10BD2000B14611E0F08A584909684988884209D12A
:10BD3000564930684969884200D108E00EB1306840
:10BD400000B904E0B14600BFF668002EDDD100BFA7
:10BD50009EB1B9F1000F07D0F068C9F80C00554842
:10BD60000068F0605348066000BF00BF304600F036
:10BD700043FA2846FEF7EAFBBDE7FFE7002C71D047
:10BD800000204D49086028890881084645603E48E2
:10BD9000006808610020494908604949087049491C
:10BDA00008804048007800F0080018B1687B40F037
:10BDB00001006873606F80B1204601F065FA0D30B4
:10BDC00028B1606F48B138480088002805DD608DD3
:10BDD00010B9204601F056FFD3E03B4804602046EE
:10BDE00000F050FF804608F10D00002816D03448BE
:10BDF000007800F0080090B100BFD4F88C0028B1A2
:10BE00006FF00D01D4F88C202069904700BF2146C7
:10BE1000264800F0E9FE2046FFF798FDB0E04FF01D
:10BE2000000828480088002817DD2648B0F800A040
:10BE300000BFE06F30B152462146E36F206998475A
:10BE4000804601E04FF0000800BF08F10D0000B986
:10BE500097E000201B49088000BF204600F0DEF874
:10BE600008B18EE09DE01548006878B300BF00BFC0
:10BE7000A07E00F0100050B310480068FEF766FB8B
:10BE80002046FFF71FFA7CE03C020020F8A40020C7
:10BE90004002002044020020420200204C02002008
:10BEA0005002002058020020560200202C020020E0
:10BEB000300200202802002054F100205C02002003
:10BEC00059020020540200206002002023E0FFE716
:10BED00000BFD4F8800048B100234749D4F880C09F
:10BEE00020690A682146E047804607E0002342486F
:10BEF00021460268184601F027FD804600BF08F180
:10BF00000D0000B93DE0B8F1000F04D03A480068D8
:10BF1000606700BF00BF3948007800F0200020B300
:10BF2000606F30B1606F407B40F02000616F4873FC
:10BF30001BE0208D40F66831884202D0208D401CE5
:10BF4000208500BFD4F8800040B100231A46214666
:10BF5000D4F880C02069E047804601E04FF0000837
:10BF600000BF08F10D0000B90BE000202449086073
:10BF7000204600F053F800B103E0204600F0F8FA44
:10BF800000BF00201E4908601B4908601D4840682A
:10BF900050B31C494868FEF7D9FA00201949486097
:10BFA00022E000BF00BF184909688889FDF719FC25
:10BFB00000F00400A8B91448006800881249096814
:10BFC0004988124ACDE900210290114800681149C0
:10BFD000098842180D4B1B1D0F480168002001F015
:10BFE00002FE2846FEF7B2FA00BF00BF83E62846ED
:10BFF000FEF7ACFA00BF7EE65C020020590200208A
:10C000006002002054F100203C02002008A500201E
:10C010004C020020560200205002002010B50446B9
:10C0200000BF00BF0F48007800F01000B8B1A07E3C
:10C0300000F0100050B900BFD4F88C0028B16FF0A8
:10C040000E01D4F88C202069904700BF2146064895
:10C0500000F0CAFD2046FFF779FC012010BD00204A
:10C06000FCE70000590200202C0200202DE9F041DD
:10C070000446002600BF00BF00BF00BF00BF00BFD6
:10C0800000BF00BF00BF00BF216D481EFDF79CFB35
:10C090008046434600223146204600F0A7FB054675
:10C0A00025B900BF00BF701EBDE8F08133460022F5
:10C0B0002946204600F031FC231D22462946204611
:10C0C00000F0F1FB074600BF00BF3846ECE7000078
:10C0D0002DE9F04107467F2F01DD7F2000E0384643
:10C0E00006460EB9BDE8F081701EC6B24FF00008DA
:10C0F00000251048046813E0607DB04208DB607DD5
:10C10000B0420CD10C49206A0968081A404506D390
:10C110000949206A0968A1EB00082546667DE468A4
:10C12000002CE9D125B100BF00BF2846FFF7CAF8AF
:10C1300000BFD7E72C020020200200202DE9F041AB
:10C14000064600BF00BF002700250E4804680EE029
:10C15000207DB0420AD10C49206A0968081AB84209
:10C1600004D30949206A09680F1A2546E468002C9F
:10C17000EED12DB100BF00BF00212846FFF724F803
:10C18000BDE8F0812C0200202002002070B50026BE
:10C1900000250C4804680BE00B49206A0968081A5E
:10C1A000B04204D30849206A09680E1A2546E4689B
:10C1B000002CF1D125B100BF00BF2846FFF782F85F
:10C1C00070BD0000300200202002002070B505463E
:10C1D00000BF00BF00BF00BF012407E0054951F8C0
:10C1E00024100868294601F0FDFB641C042CF5D3DB
:10C1F00070BD0000F4F400082DE9FE4305465148E7
:10C20000007800F0040008B1BDE8FE8300BF00BF65
:10C210004C48007800F01000C0B100BF00BF4A4891
:10C2200000680088484909684988484ACDE90021E2
:10C23000029047480068474909884218434B1B1D34
:10C2400045480168284601F0CEFC79E03D48007879
:10C2500000F00200002873D000BF00BF687DFFF728
:10C260004DF8044684B900BF00BF00BFA86938B1CB
:10C270004FF0FF320021AB6928699847804601E002
:10C280006FF00F0800BFBFE73048103840692060EA
:10C290002E48103800696060E88AE0822A48006809
:10C2A000008820830320207529480068401C6062B4
:10C2B000606AE062204600F049F90646A6652665F8
:10C2C0006664E66522480068401E60652869206152
:10C2D000A567687A00F00C006072287A207200BFAF
:10C2E00000BF1E480068E0601C48046002F03CF893
:10C2F00000BF01201A49087000BF204600F0A4FBCF
:10C3000011480068C08924F8600F20886080603C74
:10C31000201DFCF74DFD8046608E221D4146FFF733
:10C3200018FA608612212046FFF72DFA074627B13A
:10C3300000212046FEF748FF66E7204600F018F986
:10C3400000BF61E7580200203C02002008A5002041
:10C350004C02002056020020500200202C02002037
:10C360003402002070B504460D46002229462046BE
:10C3700000F002F870BD00002DE9F0410446884647
:10C380001746002500BF14B96FF00F0656E000BF36
:10C3900000BF207D10B16FF00E064FE000BF207D82
:10C3A000012803D125466FF0080647E00220FDF77B
:10C3B00025FD054615B94FF0FF363FE0206928619D
:10C3C000E08AE88201202875607D6875607A68726D
:10C3D00000202872E07AE872A07AA87220682860AB
:10C3E000E08AD8B100BF18480068A04205D11648BD
:10C3F0000068C068144908600DE01349086806E049
:10C40000C168A14202D1E168C16002E0C0680028B1
:10C41000F6D100BF00BF0020E06000BF2046FFF75C
:10C4200095FA0A48A86100BF09480068E860084812
:10C43000056001F099FF00BF002600BF07B13E7004
:10C440002846BDE8F081000024020020E3B2000885
:10C450002802002070B506460D46D6B13068C0B13E
:10C460000C480168304600F01BF80B480168304664
:10C4700000F016F86DB1286858B10848046806E065
:10C4800020683168884201D128682060E468002C67
:10C49000F6D170BD2C0200202402002028020020CA
:10C4A0002DE9F04105460E46344600BF00BF0CE0C2
:10C4B00020682968884207D1E76800BF00BF20468E
:10C4C000FEF700FF3C4600E0E468002CF0D1BDE838
:10C4D000F08170B505464020FEF710FF0446204667
:10C4E00070BD000010B5002300BF16480088401C36
:10C4F000144C2080204600884FF6FF74A04203D1E0
:10C500004FF440400F4C2080002116E00E4850F8B8
:10C51000210002680DE0D08A0A4C2488A04207D18D
:10C52000581C83B2B3F5804F01DB002010BDDCE75F
:10C53000D268002AEFD1481CC1B20429E6DB0148C9
:10C540000088F3E71C020020F4F40008014600BF55
:10C5500000BF05480068054A12681044024A10608E
:10C5600010460068704700003802002020020020BA
:10C570002DE9F84F044600BF00BF00BF00BF9A4836
:10C580000068A04202D10020BDE8F88FB4F8600036
:10C59000B4F84810884202DAB4F8600001E0B4F858
:10C5A00048008146E56E65B900BF00BF00BF00BF0F
:10C5B000A07E00F0020018B1204601F063FBE3E723
:10C5C00008E100BF00BF221D2146204601F0FCFA11
:10C5D000074617B96FF00300D6E70CB1206858B9C9
:10C5E0000FB1381D00E00020014611B96FF00300C3
:10C5F000CAE70868206000BF29694868FDF7E4F8C9
:10C60000616C401A29890844484519D9B4F860007A
:10C6100048450CD1206F50B994F8950038B90020E6
:10C6200004F8940F012060700020A070943CA07E5C
:10C6300000F0020018B1204601F024FBA4E7C9E095
:10C64000002084F89500266F26B100E03668306837
:10C650000028FBD1ABE000BF29698889FDF7C1F84C
:10C6600000BF206FA0B1A07E00F0440080B9E06E52
:10C6700038B1E06E006858B9E06E0089618E88427A
:10C6800006DAB4F8640018B1B4F86600082801DBD3
:10C69000012000E0002020B9A07E00F0A00000B939
:10C6A00091E0207D022807D01020FDF79AF8296933
:10C6B00089890843296988813A462146284600F03D
:10C6C00039F90090009838B100BF608B40F08000CD
:10C6D000608300BF009857E7002068812868E06603
:10C6E000207D022806D000BF608B4FF6FC71084009
:10C6F000608300BF29694868FDF766F880462969AC
:10C700008889FDF76EF800F0030008B1012000E011
:10C7100000202989084408EB000A206DB0EB0A00CC
:10C7200001D5C4F850A029698889FDF75AF800F0AE
:10C73000030008B1012000E000202989084470B3FB
:10C7400000202860206F10B925672E462EE0296949
:10C750004868FDF739F8804631694868FDF734F8D4
:10C76000B8EB00001CD504F1700801E0D8F8008097
:10C77000D8F8000068B1D8F8001009694868FDF7DA
:10C7800023F8834629694868FDF71EF8BBEB0000D3
:10C79000ECD4D8F800002860C8F8005006E002E0A9
:10C7A0003560366802E0284601F053FAE56E55B16F
:10C7B00029694868FDF708F8616C401A298908441E
:10C7C00048457FF648AF00BFE06E10B90020A4F8DE
:10C7D000680000BF00BF608B4FF67F710840608328
:10C7E00000BF0020D0E60000600200202DE9FF41DC
:10C7F00004460E461746984600BF00BF608D1023C2
:10C80000218BE28ACDE901130092039043463A4618
:10C810003146606A00F00AF805461DB1618D606A14
:10C820000844E062284604B0BDE8F0812DE9F05FDD
:10C8300082460D4617469846DDF830B005F11400E3
:10C84000384481B24FF420722220FDF7B4FC064632
:10C8500036B300BF00BF74680A98FCF7C2FF20809F
:10C860000B98FCF7BEFF6080C4F804805046FCF7CC
:10C87000ABFFA060A946E91705EB91718910491D2E
:10C880004FF6FF7202EA013141EA0B00FCF7A9FF03
:10C89000A0810D98FCF7A5FFE08100202082608236
:10C8A0003046BDE8F09F2DE9FE4F04460D46174681
:10C8B000984600BF00BF42463946204601F084F941
:10C8C000064616B96FF0030921E068680290CDF8BA
:10C8D00000802A893B4606212846FCF7B5FA0299D2
:10C8E000088224B194F80BA094F80AB003E04FF04A
:10C8F000FF0A4FF0000B0620534642463946CDE969
:10C9000000B002962846FCF781F8814600BF284611
:10C91000FDF71CFE4846BDE8FE8FF0B504461546FF
:10C920001E46002300BF00BF486800F1140200BF8C
:10C9300000BFF0BD2DE9FE4F04460D46164600BF70
:10C9400000BF00BF00BF00BF00BF204600F070F86E
:10C9500020B100BF00BF0020BDE8FE8F686AFCF771
:10C9600033FF21698860688DFCF73BFF2169C8812E
:10C97000698D686A0844E862206900F11408207B28
:10C9800000F0010078B12A1D314640F2B450FEF7A4
:10C99000E0FE82464AF00170FCF716FFC8F800007E
:10C9A00008F1040800BFB5F93000002801DA0020C2
:10C9B0002886686B48B91D48006868632169486823
:10C9C000FCF702FFA86300BF00BF00BF00BF208AC2
:10C9D00061688988401A87B260684089C01B6168B5
:10C9E000488160680089C01B6168088161682069AE
:10C9F000486000202169088200BF00BF281D009008
:10CA000061680A8908462B460621FCF71DFA216950
:10CA100008820621A87A8DE84300EB7A2A1D294670
:10CA20006068FBF7F3FF8146484695E72002002047
:10CA3000014600BF00BF4868807B012801D001206B
:10CA400070470020FCE700002DE9F041064600BFDA
:10CA500000BF2A48008800284DD0002028490880BF
:10CA600043E0FEF7CFFF074627B1012F06D0022F84
:10CA700028D106E000BF00BFBDE8F08100BF00BFC5
:10CA800031E000BF00BFFEF7BDFF042806D11C48FF
:10CA90000088801C19490988884202DD00BF00BF58
:10CAA000EAE7FEF7AFFF0502FEF7ACFF054340F2F1
:10CAB000B450854200DC15B940F2B45000E028467D
:10CAC000708610E000BF00BFFEF79CFF0446022CFA
:10CAD00002DA00BF00BFCFE7A01E09490988084459
:10CAE0000749088000BF00BF00BF05480088034910
:10CAF00009888842B5DB00BFBEE700004002002085
:10CB0000480200202DE9F84F81460C46164698460B
:10CB1000DDE90BAB0A9F009400BF00BF00BF00BF60
:10CB2000B4421BDA0AF0020050B9B87E00F04000AF
:10CB3000A0B9BBF1000F03D0F86E08B9386F68B127
:10CB400004F2B75020F00300B04201D9304603E0B0
:10CB500004F2B75020F0030080B200904FF420722E
:10CB600048460099FDF727FB054615B90020BDE8AA
:10CB7000F88F00BF00BF6889001BA8F800002C8157
:10CB80006C812846F3E710B5044600BF04B910BD18
:10CB900000BF207D30B3207D0A2823D0207D0128CE
:10CBA00020D000BF00BF606F30B100BF00BF606F1A
:10CBB000FDF7CCFC00206067E06E08B100BF00BF4D
:10CBC000206F08B100BF00BF4FF0FF302086E06E3D
:10CBD00001F04CF8206F01F049F80020E066206772
:10CBE000A4F8680000BFD2E770B505460C4600BF48
:10CBF00000BF00BF00BF00BF2868A04203D1286863
:10CC0000C06828600CE0286806E0C168A14202D133
:10CC1000E168C16002E0C0680028F6D100BF00BF33
:10CC20000020E06000BF2046FFF7ADFF207D0A280E
:10CC30000FD0207D01280CD0A07E00F0010040B173
:10CC400000BF608B40F00200608300BF2046FFF70A
:10CC50008FFC207D012803D000BF00BF00BF00BFB4
:10CC600000202075E08200BF00BF70BD00BF00B98A
:10CC7000704700BF00BF00BFC0F88810427700BFF8
:10CC8000F6E700002DE9FE4304460027002600BF1A
:10CC900000BFFE48007800F0040000283FD0207D4F
:10CCA000022806D1FA49206D096888421BD1012764
:10CCB00019E0F849606A0968884201D1012712E049
:10CCC000F449606A0968081A0DD4218D606A084425
:10CCD000F0490968081A002805DC00BF608B40F0A5
:10CCE0000200608300BFA7B100BF00BF00BF00BF4C
:10CCF000E948007840F00800E749087000BF608B01
:10CD00004FF6FE710840608300BF6FF00D00BDE874
:10CD1000FE8300BF00BF00BF00BF0020F7E7DB4875
:10CD2000007800F0020068B1207D02280AD0207D42
:10CD3000032807D000BF608B40F00200608300BF73
:10CD40000020E4E7A07E00F0100010B9D34800688E
:10CD50002062002084F8970084F896002046FFF7B0
:10CD600073FE207D801E082877D2DFE800F004BB28
:10CD7000F6F5F4F3F2F100BF00BFC448007800F00C
:10CD8000100000286AD0C148007800F00200002896
:10CD9000F8D0606C401CBE49096888427DD1BD480E
:10CDA0000068401C6062606AE062B94800686064C4
:10CDB000BB480068C089A4F86000B4F86000A4F81B
:10CDC0006200B4480068401E606504202075201D84
:10CDD000FBF7EEFF8046608E221D4146FEF7B9FC50
:10CDE0006086608E8100400041F21C12904202D9A0
:10CDF000608E400001E041F21C10814202D2608E40
:10CE000080000AE0608E400041F21C11884202D985
:10CE1000608E400001E041F21C10A4F8480000BF01
:10CE200000BF00BF00BFB4F86600401EA4F8660053
:10CE300000BF00BF256F2DB9E56E00BF00BF286899
:10CE4000E06601E028682067284600F002FF206FB6
:10CE500028B94FF0FF30208605E005E21DE00020F4
:10CE6000208684F8420000BFD4F8840038B1002244
:10CE70002146D4F8843020699847064600E0002611
:10CE800000BF06F10D0010B96FF00C003FE700BFC6
:10CE9000608B40F00200608323E07C48007800F063
:10CEA0001000F0B17E48006800887D490968498813
:10CEB0007C4ACDE900210290764800687A490988C9
:10CEC0004218784B1B1D72480168204600F08BFE0B
:10CED00094F84200062804DA00202086204600F05C
:10CEE0000DFEC2E16948007800F0100000286ED005
:10CEF000606C401C66490968081A6AD46449206D50
:10CF00000968081A002864DC0420207500BF00BFEF
:10CF1000A06F10B96FF0050610E000BF00BF00BFA2
:10CF2000A06F806938B1A16F206900228B6921460A
:10CF30009847064601E06FF00F0600BF76B106F194
:10CF40000D0010B12046FEF7BDF96FF00C00DEE6D3
:10CF500072E130E163E0EEE073E061E0204600F072
:10CF6000E9F95248008820B150480088401E4F49D6
:10CF70000880608E8100400041F21C12904202D96C
:10CF8000608E400001E041F21C10814202D2608EAE
:10CF900080000AE0608E400041F21C11884202D9F4
:10CFA000608E400001E041F21C10A4F8480000BF70
:10CFB00000BF3948007800F0200000B300BF608B4C
:10CFC00040F00200608300BF0720207526E017E0D4
:10CFD000FFE7334800680088314909684988314AC9
:10CFE000CDE9002102902B4800682F49098842189A
:10CFF0002C4B1B1D26480168204600F0F4FD0DE077
:10D000002248007800F0020040B1606A401E2149C9
:10D010000968884202D1204600F0F2FC25E100BFF9
:10D02000204600F087F91C48007800F0200038B155
:10D0300000BF608B40F00200608300BF07202075B6
:10D0400013E1204600F076F91348007800F0200044
:10D0500080B30E48007800F0100060B30C49206DDA
:10D06000096888424FD1E06E28BB00BF00BF00BFF7
:10D07000608B40F00200608300BF2046FFF783FD15
:10D0800000BF00BF0A480068A04215E05802002017
:10D09000500200204C0200205902002020020020F3
:10D0A0003C02002008A50020560200205402002067
:10D0B0002C02002030E026E005D16D480068C068F1
:10D0C0006B4908600DE06A49086806E0C168A14242
:10D0D00002D1E168C16002E0C0680028F6D100BF5B
:10D0E00000BF0020E06000BF01206249087000BF5F
:10D0F0000A20207500BF60480068E0605E48046058
:10D1000001F032F916E000BF608B40F0020060834E
:10D1100000BF082020750DE05848007800F010008E
:10D1200040B15749206D0968884203D1E06E08B9C3
:10D130000620207599E0204600F0FCF85148007860
:10D1400000F02000B0B300BF00BF00BF608B40F014
:10D150000200608300BF2046FFF715FD00BF00BF3F
:10D1600043480068A04205D141480068C068404972
:10D1700008600DE03E49086806E0C168A14202D19E
:10D18000E168C16002E0C0680028F6D100BF00BFBE
:10D190000020E06000BF01203649087000BF0A206F
:10D1A000207500BF34480068E0603348046001F037
:10D1B000DBF800BF59E0204600F0BCF82F480078AB
:10D1C00000F01000B8B32E49206D0968884232D1B2
:10D1D000E06E80BB00BF00BF2046FFF7D4FC00BF5D
:10D1E00000BF23480068A04205D121480068C068FC
:10D1F0001F4908600DE01E49086806E0C168A142A9
:10D2000002D1E168C16002E0C0680028F6D100BF29
:10D2100000BF0020E06000BF01201649087000BF79
:10D220000A20207500BF14480068E06012480460BE
:10D2300001F09AF800BF18E0204600F07BF80F4894
:10D24000007800F0100070B10D49206D0968884227
:10D2500009D1E06E38B900BF00BF0A48007840F03D
:10D2600010000849087000E000BF00BF00204EE534
:10D270002C0200203402002030020020580200203E
:10D2800050020020590200202DE9F041044600BF61
:10D290001CB96FF00F00BDE8F08100BF606F477BE5
:10D2A000666F0020606700BF00BF00BFD4F8800039
:10D2B00040B1002332462146D4F880C02069E047BF
:10D2C000054606E0002332462146184600F03CFBA6
:10D2D000054600BFFDB907F0200040B3208D40F6A1
:10D2E0006831884202D0208D401C208500BFD4F8D0
:10D2F000800040B100231A462146D4F880C020693E
:10D30000E047054600E0002500BF05F10D0070B9BB
:10D310006FF00C00BFE705F10D0020B900BF00BFA2
:10D320006FF00C00B7E766676FF00400B3E700200A
:10D33000B1E700002DE9F05F04464FF0000A00BF9E
:10D3400000BF00BF00BFFC48007800F010000028BC
:10D3500072D0B4F86000A16D00EB0108F749606D70
:10D360000968401A15D4F549606D0968884204D1EE
:10D37000F349A06D0968401A0BD4F149A06D096802
:10D3800088421CD1EF480068C089B4F86010884218
:10D3900015D9EC480068C08924F8600F608834F81B
:10D3A0006019884203DAB4F86000A4F86200E34828
:10D3B00000686065E2480068A06500BF00BFE04902
:10D3C000606C0968081A00284ADCDF48008890BBB6
:10D3D000B4F86010A06D084440453AD1B4F930006B
:10D3E000002836DBD649606C0968884231D14FF09D
:10D3F000010A94F84300401CC0B294F843108842DC
:10D4000004DD94F84300401C84F8430094F8430082
:10D41000032817DD00BFB4F84800618E084480B2CD
:10D42000B4F84810884208DBB4F84800618E08441C
:10D43000A4F8480005E00CE035E14FF6FF70A4F8D1
:10D44000480000BF94F84300032802DB204600F0A8
:10D4500015FBBAF1000F02D1002084F84300F0E080
:10D46000606C401CB6490968081A6ED4B449206D36
:10D470000968081A002868DCA07E00F0040060B18A
:10D4800000BF608B4FF6FB710840608300BF4834DB
:10D490006088208000206084483C00202434A077ED
:10D4A000608BB4F9181000EBE10000B2A083208C6F
:10D4B000A3490988081A86B20020E077A0480068CE
:10D4C000206214F8100C243C042868DBB4F84800EF
:10D4D000B4F84A10884229DA628B02F400620AB179
:10D4E000012200E002221146628E4A4392B2B24209
:10D4F00001DD324602E0628E4A4392B2104600BF1E
:10D50000B4F84820024492B2B4F848309A4205DB9D
:10D51000B4F848200244A4F8482003E04FF6FF7214
:10D52000A4F8482000BF00BF00BF38E000BFB4F837
:10D530006A00304480B2B4F86A10884206DBB4F85E
:10D540006A003044A4F86A0004E077E04FF6FF7008
:10D55000A4F86A0000BFB4F86A00B4F84810884222
:10D560001BDB4834608C2188401A6084483C00BF33
:10D57000B4F84800618E084480B2B4F8481088427C
:10D5800006DBB4F84800618E0844A4F8480003E0C4
:10D590004FF6FF70A4F8480000BF00BF00BF00BFF7
:10D5A00000BF6AA22046D4E91B31FEF7D9F92067F3
:10D5B00068A22046D4E91B13FEF7D2F9E066206F7B
:10D5C00018B94FF0FF30208601E0002020860020AF
:10D5D0002077E06E10B90020A4F86800B4F8640069
:10D5E0005E4909880844A4F86400608B00F4006078
:10D5F00018B3206F88B9E06E40B1E16E09694868E0
:10D60000FCF7E2F8E16C081A002816DC00BF608B1A
:10D610004FF2FF71084060830FE0216F096948688D
:10D62000FCF7D2F8E16C081A002806DC00BF608B1A
:10D630004FF2FF710840608300BF02E0204600F017
:10D6400021FB00BF00BF606B68B33D49A06B096858
:10D65000401A28D5A08E42490988081A05B200BF91
:10D6600000BFB4F93C00A5EBE00005B2A08F284450
:10D6700000B2A087002D01DA684205B2B4F93E007D
:10D68000A5EBA00005B2E08F284400B2E087E08F50
:10D69000B4F93C1000EBE10000B2A4F8400000BF78
:10D6A00000BF002060632848008800287EDD207DC0
:10D6B00007287BDA2148616A0068401C081A53D4A5
:10D6C0001E48616A0068204A12881044401E081AE9
:10D6D000002849DC234846681849606A0968A0EBBD
:10D6E000010B00BF00BF00BF00BF1FFA8BF700BFD8
:10D6F00000BF1C480089C01B1A49088108464068C1
:10D700000089C01B1FFA80F907E07089381A87B2B8
:10D71000A6F808900020708136687089B842F4DB62
:10D7200039463046FCF7E6FF0449606A08600D4957
:10D730000969486025E00000580200204C020020E2
:10D74000500200203C02002056020020756E6163EA
:10D750006B656400756E73656E7400005402002082
:10D760002002002054F100206F49606A0968081AFD
:10D7700007D500BF00BF00BF608B40F00200608390
:10D7800000BF6949606A0968081A7DD4218D606A02
:10D790000844401E64490968081A002874DC62497C
:10D7A000606A0968884270D1604900E0A6E00969B2
:10D7B0008889FCF716F800F0030008B1012000E0AA
:10D7C00000205A490989084459490880208D098850
:10D7D000884243DA00BF00BF544909698889FCF7D1
:10D7E00000F800F0010098B1504909698889FBF7F9
:10D7F000F8FF00F03E063046FBF7F3FF4B4909699E
:10D8000089894CF2FF02114008434849096988811F
:10D81000208D4649088109698889FBF7E2FF00F0FD
:10D82000020020B141480089401E404908813F4A1A
:10D8300011895068FCF715FF3C4909698889FBF795
:10D84000D0FF00F0030008B1012000E000203749BC
:10D85000098908443649088000BF00BF3248006883
:10D86000334909880844606200BF00BF208D3049F9
:10D870000988401A2085204600F006FE2B484068A3
:10D880000089002809DD01E034E02FE027484068E6
:10D890002849086000202549486024490969888989
:10D8A000FBF79FFF00F0010038B100BF00BF224826
:10D8B000007840F020002049087000BFA07E00F0F2
:10D8C000010060B100BF608B4FF6FE7108406083BD
:10D8D00000BF00BF608B40F00200608305E000BF26
:10D8E000608B40F00100608300BF1BE0204600F029
:10D8F000C9F917E0204600F0C5F913E00A49606A4B
:10D900000968081A08D4218D606A0844401E064937
:10D910000968081A002805DD00BF608B40F002008E
:10D92000608300BFBDE8F09F4C02002054F100204E
:10D93000560200205C0200205902002018B100BFEE
:10D9400000BFC0F8801070472DE9F04107460D4632
:10D9500014461E4600BF1DB96FF00F00BDE8F081F0
:10D9600000BF3CB12189284600F00BF82046FCF7A7
:10D97000EDFD04E01EB92846FDF784FDEEE700202A
:10D98000ECE72DE9F04104460F4600BF0CB9BDE8B5
:10D99000F08100BF00BF00BF208D384485B240F643
:10D9A0006830854202DC208DA84205DD00BF00BF43
:10D9B00040F66830208500E02585204600F064FDB3
:10D9C000064640F2DA20864208D300BF608B40F062
:10D9D0000200608300BF2046FEF7CAFD00BF00BF03
:10D9E00000BFD4E7024600BF00BF104605E0836FCA
:10D9F0008B4201D100238367C0680028F7D17047AC
:10DA00002DE9F041044600BF00BF206F18B96FF048
:10DA10000500BDE8F081256F2846FFF709F820B121
:10DA200000BF00BF6FF00500F3E72868206704F12E
:10DA30006C0600E03668306858B13168096948689A
:10DA4000FBF7C2FE074629694868FBF7BDFE381A96
:10DA5000F0D4306828603560286810B90020A4F838
:10DA6000680094F84200FF2804DA94F84200401C51
:10DA700084F842000020606300BFCAE710B5044686
:10DA800000BF00BF206FC0B3A07E00F00400A0BBA9
:10DA900000BF00BF2046FFF7B3FF70BBB4F84810CB
:10DAA000B4F86020914202DAB4F8481001E0B4F80A
:10DAB0006010084601EBD071C1F34F01A4F84A1081
:10DAC000B4F84A00618E4900884206D200BF00BF08
:10DAD000608E4004000CA4F84A00B4F84A00618E3D
:10DAE000032202FB0100A4F8480000BF608B40F055
:10DAF0000400608300BF0020208610BD10B50446DE
:10DB000000BF00BF204600F016F810B9204600F014
:10DB100001F810BD10B5044600BF00BF94F84200E4
:10DB2000FF2804DA94F84200401C84F842002046A2
:10DB3000FEF71EFD10BD70B5044600BF00BF206F8C
:10DB400010B96FF0050070BD256F09E02846FEF79B
:10DB50006FFF20B100BF00BF6FF00500F3E72D6835
:10DB600028680028F2D12846FEF762FF20B100BFE6
:10DB700000BF6FF00500E6E7E06E2860E06E10B9C8
:10DB80006889A4F86800206FE0660020206700BF65
:10DB9000608B40F40060608300BF29694868FBF730
:10DBA00013FE064629698889FBF71BFE00F0030077
:10DBB00008B1012000E00020298908443044E064D5
:10DBC0000020606300BFBEE770B504460E461546F0
:10DBD0002CB1207A18B1207AFCF724FA70BD2846BF
:10DBE000FBF7E6F8FAE72DE9F04F85B082460E46DE
:10DBF00017469846DDF838B000BF00BF00BF00BF31
:10DC0000002546F60B093046FBF7DEFD1422049092
:10DC1000DDE90F018DE80702002229463846049B02
:10DC2000FEF704FE044624B900BF00BF05B0BDE8FE
:10DC3000F08F2B46002221465046FEF76EFE5B46D3
:10DC4000424621465046FEF72EFE00BF00BF00BFF1
:10DC5000ECE710B5044644B1606810B16068FCF7A9
:10DC600075FC21460320FCF78FF810BD70B5044603
:10DC700005E025682046FFF7ECFF2C4600BF002C8E
:10DC8000F7D170BD2DE9F04704460025A94600BF35
:10DC900000BF05F0010008B1042000E0002005F0FD
:10DCA000020109B1002100E00021084405F008014B
:10DCB00009B1002100E00021084405F0100109B17C
:10DCC000002100E0002100EB0108206DFBF77CFD46
:10DCD00082465346002241462046FEF787FD06460F
:10DCE0005EB900BF608B40F00300608300BF00BFDF
:10DCF00000BF6FF00100BDE8F0874B462A46314671
:10DD00002046FEF70AFE00BF00BF231D2246314613
:10DD10002046FEF7C8FD07462FB100BF608B40F0DC
:10DD20000300608306E000BF608B4FF6FC71084083
:10DD3000608300BF3846DEE770B5044600BF00BF11
:10DD4000E06EE8B1E56E00E02D6828680028FBD1A0
:10DD500029698889FBF745FD00F0070078B90120A3
:10DD6000FBF73FFD2969898908432969888100BF3C
:10DD7000608B40F02000608300BF002070BD00BFBA
:10DD800001212046FDF7FFFCF8E710B100BF00BFFE
:10DD9000C167704700BF00B9704700BF417500BF41
:10DDA000FAE700002DE9F04F85B04FF00009F9487F
:10DDB0000068401CF7490860F7480078401CF649A5
:10DDC000087000BF0025F54804680CB900BF00BF0B
:10DDD000B1E100BF00BF00BF00BF00BF00BF00BF78
:10DDE00000BFA07FEC490978884202D12546E4684B
:10DDF000A1E1E9480078A0770026B046207D0228FE
:10DE000007D194F84200062803DB701CC6B200BF9D
:10DE1000BFE094F842000C2803DB701CC6B200BFC0
:10DE2000B7E094F89500002845DD00BF00BF00BFB3
:10DE300000BF94F896000C2802DB701CC6B2A8E064
:10DE400094F89500401ED6490F5C94F89400B842AF
:10DE500004DA94F89400401C84F8940094F8940038
:10DE6000B84227DB4FF0010AB4F8600030B9204611
:10DE700000F0C8FD70B14FF0000A0BE0B4F860107C
:10DE8000204600F097F928B92046FEF771FB08B943
:10DE90004FF0000ABAF1000F0BD0002084F8940074
:10DEA00094F89500072804D294F89500401C84F853
:10DEB000950000BF6DE0B4F93000002809DBB4F92B
:10DEC000300047F6FF71884203DA208E401C00B212
:10DED0002086B4F93000B4F94010884259DB00BF05
:10DEE00000BF2046FFF727FE18B1206FF0BBE06EA1
:10DEF000E0B3207D02281ED094F842200C2A02D2E2
:10DF000094F8422000E00C221146B4F93E20B4F906
:10DF10003C3002EBE302A34B5B5C02FA03F047F6F2
:10DF2000FF72904201DA024601E047F6FF7212B238
:10DF3000A4F8402000BF00202086B4F84800B4F8C0
:10DF40006010884202DAB4F8480001E0B4F86000DA
:10DF5000049004984010A4F84A00B4F84A00618E76
:10DF60004FF6FF7202EA4101884200E011E005DA53
:10DF7000608E114601EA4000A4F84A00608EA4F8C1
:10DF8000480000BF00BF0020A4F86A002046FFF749
:10DF9000C1FD207D06280DD1A07E00F0100048B103
:10DFA0007C49206A0968081A282803D9701CC6B25F
:10DFB00000BF00BF607A00F00800F8B1207D04289F
:10DFC00002D0207D072839D17749D4F89000084441
:10DFD0004FF4FA71B0FBF1F06E4A216A1268511ADF
:10DFE00088420CD200BF00BF00BF00BF00BF00BF0F
:10DFF000701CC6B208F1010000F0FF081EE094F8A2
:10E00000970042F29F425043D4F8901001EBC000B9
:10E010004FF4FA71B0FBF1F05E4A216A1268511AAE
:10E0200088420BD22046FEF721F88146B9F1000F55
:10E0300004D194F89700401C84F89700207D0328B1
:10E0400009D15449206A0968081A282803D9701C84
:10E05000C6B200BF00BF207D092809D14D49206A02
:10E060000968081AF02803D9701CC6B200BF00BFA7
:10E07000BEB3D4F88CA02046FEF785FD25B100BFC5
:10E0800000BFE068E86004E000BF00BF4349E0680B
:10E090000860B8F1000F0BD0208BE18A221DCDE97A
:10E0A0000021029023462046626A216DFFF79BFD06
:10E0B000D4F810B0207D03902746E4683846FDF779
:10E0C00045FC00203949087000BFBAF1000F03D0A9
:10E0D0006FF00C015846D04700BF3448007808B1B3
:10E0E00070E600E026E02546E468287F401C28779B
:10E0F000287F697F88421DDB0020287700BF00BF92
:10E100002A49087000BFD5F8880030B12946D5F8F3
:10E11000882028699047814601E04FF0000900BF40
:10E120002248007800B14DE6B9F1000F02D128462F
:10E13000FEF71EFA00BF002C7FF44BAE00251C48F2
:10E14000046821E000BF00BF00261249206A096868
:10E15000081AF02801D9701CC6B29EB12046FEF7FD
:10E1600012FD25B100BF00BFE068E86004E000BF19
:10E1700000BF0F49E06808602746E4683846FDF7AD
:10E18000E5FB01E02546E468002CDBD105B0BDE8E5
:10E19000F08F000020020020360200202C02002018
:10E1A000EDF40008E0F40008B84C0A003402002046
:10E1B000300200202DE9F04F85B005460E464FF0A5
:10E1C000000A0024A34600BF00BFEC6E24B94FF044
:10E1D000FF3005B0BDE8F08F26B900BF00BF6FF07B
:10E1E0000500F6E72089B04201DC0020F1E700BF1E
:10E1F00000BF00BF00BF00BF00BF277B07F00100CA
:10E2000008B1042000E0002007F0020109B100215C
:10E2100000E00021084407F0080109B1002100E0F6
:10E220000021084407F0100109B1002100E000219D
:10E23000084404902089801B1FFA80F90498484400
:10E2400081B24FF420723620FBF7B5FF8346BBF155
:10E25000000F02D100BF00BF7AE060680089218909
:10E26000401A304480B20290DBF80430049A9918C6
:10E2700060684A46029BFCF729F9484502D000BF76
:10E2800000BF65E021698889FBF7ABFA00F03F0821
:10E290000020039008F0080028B128F0080803982F
:10E2A00040F00800039008F0010028B128F00108B0
:10E2B000039840F00100039021694868FBF784FA55
:10E2C00030440346CDE9007059462846039AFDF7CD
:10E2D000CDF98246BAF1000F02D100BF00BF37E08E
:10E2E0006068FCF774F835F8661F081A28806268C1
:10E2F0001289A2EB090291B26068FCF7B2F9208999
:10E30000A0EB090020814046FBF76BFA216989895F
:10E31000084321698881002060816068FCF757F814
:10E32000298808442880DAF80400FCF750F8298886
:10E33000084425F866092068CAF80000C4F800A05F
:10E34000DAF8000010B90020A5F86800002040E7C6
:10E3500000BF00BFBBF1000F02D05846FCF7F6F833
:10E360004FF0FF3035E7000010B50948006868B984
:10E370000848006810B90848006838B1012004490D
:10E38000086000220549FA20FCF769FE10BD000074
:10E390006C0200202C02002030020020BDEB00089F
:10E3A0003EB504462348007800F0040000B13EBDAD
:10E3B00000BF00BF1F48007800F0020018B31E49DC
:10E3C000606A0968081A26D4218D606A08441A49CF
:10E3D0000968081A00281EDC1848006800881749D8
:10E3E00009684988164ACDE9002102901248006860
:10E3F000144909884218124B1B1D13480168204616
:10E40000FFF7F1FBD3E70B48007800F0010010B1F3
:10E410000E48006820620B480088002808DD00BF15
:10E42000608B40F00200608300BF2046FEF7A0F83A
:10E4300000BFBCE7580200204C0200203C02002034
:10E4400008A50020560200205002002020020020D3
:10E4500010B5FDF729FA06480078401CC0B20449FF
:10E46000087000F0010008B1FFF79CFC10BD00002F
:10E47000350200200348007840F010000149087080
:10E48000704700005902002010B5014600BF00BFD0
:10E490000B8D486AC218488E40F2B454CB6AA04231
:10E4A00001DD204600E0488E1844101A04D4088D7F
:10E4B0004885C86A101A10BDCB6A486AC01A00287D
:10E4C00002DD0020488506E04C6ACB6A181B00BFBD
:10E4D00000BF488500BF0020EDE72DE9FF4F91B058
:10E4E00005468B46174600201090002482460F9068
:10E4F0000E9000260B900A9080460990089000BF6D
:10E5000025B96FF00F0015B0BDE8F08F00BFB5F86A
:10E51000621001EBD17252106B8E9A4201DD6A8E4D
:10E5200004E0B5F8620000EBD072521092B206928D
:10E53000069A0AB1069800E0688E069000BF00BFF8
:10E5400000BFBBF1000F02D16FF00F00DBE700BF8F
:10E550003946284600F016FA0790079808B1079840
:10E56000D1E7B5F866000D9000200C90E86E002809
:10E570007DD0EC6E00E0246820680028FBD1207B71
:10E5800000F0010008B1042000E00020217B01F030
:10E59000020109B1002100E000210844217B01F0C3
:10E5A000080109B1002100E000210844217B01F0AD
:10E5B000100109B1002100E000210844059000BFCE
:10E5C00000BF2189059801440698401A1FFA80F976
:10E5D00000BF00BFB5F868000A90BDF82800002809
:10E5E00024DD00BF00BFA246BDF82800B84202DA11
:10E5F000BDF8280000E03846484501DD484607E000
:10E60000BDF82800B84202DABDF8280000E038461C
:10E61000804606EB080086B2BDF82800A0EB080093
:10E6200080B20A90A9EB08001FFA80F900BF00BF72
:10E63000BE426ADAB9F1000F67DD2089002864DD87
:10E64000B81B484501DD484600E0B81B80B2049085
:10E65000A246149800F0010018B3012114980AABE7
:10E660004A46CDE9005002910020049900E04DE0B7
:10E67000FEF748FA109010B900BF00BF68E1BDF87E
:10E68000280009900BEB0601109A5068049AF1F7E4
:10E6900017FE1098FBF79BFE0D99084480B20D9071
:10E6A0002FE06068039002E00398006803900398ED
:10E6B00000680028F8D10398007B00F0C00050B932
:10E6C0000398416840890844584504D100BF00BF01
:10E6D0000498089014E0012200200499FBF76BFDD8
:10E6E000109010B900BF00BF32E10BEB060110988B
:10E6F00041601098FBF76BFE0D99084480B20D90B5
:10E7000000BF0498304486B200BF01E000BF00BFE4
:10E710008EE0B81B80B205900C990698401A80B222
:10E720000490DDE90410884201DA059800E00498BD
:10E730000390149800F0010018B30E9808B9012155
:10E7400000E000211498CDE9005002910C9A039842
:10E75000104481B20AAB3620069AFEF7D3F9B0F125
:10E76000000902D100BF00BFF2E000BF00BF0BEB09
:10E770000601D9F804300C9A9818039AF1F7A0FD15
:10E7800023E000BF00BF012236200399FBF713FDF1
:10E79000029010B900BF00BFDAE00BEB060102984F
:10E7A00041604FF4207236200C99FBF704FDB0F164
:10E7B000000905D10298FBF7C9FE00BF00BFC7E002
:10E7C00048460299FBF7DAFD00BF4846FBF7FFFD1C
:10E7D0000D99084480B20D900D98082805D900BF06
:10E7E00000BF4846FBF7B2FEB2E00B980090E86D20
:10E7F0008319002249462846FCF738FFB0F1000A89
:10E8000000D1A5E0BDF82800AAF80A000E9810B9BA
:10E81000CDF838A004E000BF00BF0F98C0F800A0FA
:10E82000CDF83CA000BF00BF0398304486B200BFC3
:10E83000BE42FFF66EAF2CB1099818B161890998F4
:10E8400008446081B8F1000F27DDD4F8049017E088
:10E85000B9F808004044A9F80800D9F8000068B9E0
:10E86000B9F80A20D9F80410881842465946F1F739
:10E8700027FDB9F80A004044A9F80A00D9F8009029
:10E88000B9F1000FE4D120894044208100BF00BFCE
:10E890006089A0EB0800608100BFBDF82800A5F8E2
:10E8A0006800109858B100BF00BF60681099FBF76E
:10E8B00065FD218910980089084420811BE0089893
:10E8C000002818DD00BF00BF606804E002890899D5
:10E8D00011440181006801680029F7D10289089973
:10E8E0001144018142890899114441812289089982
:10E8F0001144218100BF14B90E98E86601E00E981A
:10E90000206055F85C0F384428602889C01B288196
:10E910000D9868815C3D00BF00BFB5F8660008B186
:10E9200000BF00BFBAF1000F10D0DAF8100068B1D4
:10E93000149800F0020048B90820FAF752FFDAF8FC
:10E94000101089890843DAF8101088810020DAE570
:10E9500000BF688B40F08000688300BF109810B142
:10E960001098FBF7F3FD0E9810B10E98FFF77EF9A3
:10E97000B5F8660008B100BF00BF00BF00BF4FF090
:10E98000FF30C0E5024600BF00BF107D04280DD057
:10E99000107D07280AD0107D022807D0107D03289B
:10E9A00004D000BF00BF6FF00A00704709B9002013
:10E9B000FBE7B2F8640088420ADA00BF00BF00BF7C
:10E9C000508B40F08000508300BF4FF0FF30ECE7E9
:10E9D00000BF00BFB2F8660008280AD300BF00BF1E
:10E9E00000BF508B40F08000508300BF4FF0FF30DD
:10E9F000DBE7B2F8660008B100BF01E000BF00BF6E
:10EA00000020D2E72DE9FC5F04464FF0000A00BF6A
:10EA100000BF00BF00BF00BF00BF00BF00BF00BFFE
:10EA200000BFE56E15B90020BDE8FC9F94F8960084
:10EA3000FF2804DA94F89600401C84F896002969AF
:10EA40008889FAF7CEFE00F0010018B1288908B9CC
:10EA5000012000E000208146B9F1000F01D1012022
:10EA600000E000208346286943685A465146204604
:10EA7000FDF7BCFE064626B900BF00BF4FF0FF30D1
:10EA8000D2E77768B9F1000F09D01120FAF7A9FE93
:10EA9000B9894CF2FF0211400843B8810DE070685B
:10EAA00014300090696809892A89891A8BB2012279
:10EAB00068680099FBF70AFD00BF29694868FAF702
:10EAC00083FE00F10108206DB0EB080001D5C4F809
:10EAD00050805346002231462046FDF71EFF231D7D
:10EAE000224631462046FDF7DEFE019000BF00BF02
:10EAF000019899E738B504460D46FAF778FE0E48B6
:10EB000004600E48056020210D48FCF76AFA08B140
:10EB100000BF00BF01210B48FCF774FA08B100BF29
:10EB200000BF06204FF4007300220749009007A0A1
:10EB3000FCF786FA38BD0000840000208800002021
:10EB40008C00002090000020F5EB000874637069D1
:10EB5000705F746872656164000000002DE9F04127
:10EB600006460F46144600BF00BF00210648FCF7CA
:10EB7000E9F939463046A04705460348FCF754FA00
:10EB80002846BDE8F08100009000002070B50546E1
:10EB90000C4694F8290000F0180028B1054A2146D7
:10EBA0002846FFF7DBFF70BD034A21462846FFF7E2
:10EBB000D5FFF8E7A1610008E587000810B5044615
:10EBC000FFF746FC0748006810B90748006828B1FD
:10EBD00000220649FA20FCF742FA02E0002004492C
:10EBE000086010BD2C02002030020020BDEB0008A0
:10EBF0006C02002008B500210D48FCF7A3F90D4870
:10EC0000006820B10C4800680A49096888470EE08E
:10EC100069460A4800F032F8009820B900BF00BFEA
:10EC200000BF00BF03E0009800F00AF800BFEFE764
:10EC30009000002084000020880000208C0000202C
:10EC400010B50446207810B1012810D109E000BFAA
:10EC500000BFD4E90110884721460820FBF794F84B
:10EC60000AE000BF00BFD4E90110884704E000BFFC
:10EC700000BF00BF00BF00BF00BF10BD2DE9F041C5
:10EC800006460F4600BFFCF757FA0446601C68B9F9
:10EC90001248FCF7C9F9002239463046FCF72AF938
:10ECA00000210E48FCF74EF9BDE8F08114B9FCF7DD
:10ECB0006DF9E8E70948FCF7B7F9224639463046CE
:10ECC000FCF718F9054600210448FCF73BF9681CDD
:10ECD00010B9FCF75BF9D6E700BFE5E7900000202C
:10ECE00010B586B00446012144F20500F2F744FF56
:10ECF0004FF40070ADF8140003208DF816001820B2
:10ED00008DF8170005A91C48F2F79CFA4FF48060B3
:10ED1000ADF8140004208DF8170005A91648F2F785
:10ED200091FA25208DF8000000208DF801008DF863
:10ED3000020001208DF803006846F2F765FC01949B
:10ED40000020ADF80800ADF80A00ADF80C00ADF8F1
:10ED500010000C20ADF80E0001A90848F4F78CFD56
:10ED6000012240F225510548F4F760FD01210348D6
:10ED7000F4F726FD06B010BD000801400038014040
:10ED80002DE9F04105460E46174606B92A4E00BF4A
:10ED90001DB96FF00F00BDE8F08100BF00BF00BFDC
:10EDA00000BF00BF00BF00BF4FF000082348046849
:10EDB00005E0A54202D14FF0010802E0E468002C12
:10EDC000F7D100BF47B900F085F90746F7B900BF92
:10EDD00000BF6FF00700DEE71848046814E0A542A2
:10EDE00011D0608AB8420ED120683168884205D0BF
:10EDF00026B1306810B10CB1206820B900BF00BF47
:10EE00006FF00700C7E7E468002CE8D10EB90020D6
:10EE100000E0306828606F82B8F1000F04D1074825
:10EE20000068E8600548056000BF00BF00BF00BF84
:10EE300000BF00BF0020AEE728F5000874020020E4
:10EE4000704700002DE9FE4F05460F460020019057
:10EE500000BF00BF00BF00BF6889082805DA00BFF7
:10EE600000BF2846FBF772FBC5E0D5F80480664A70
:10EE700011685069F9F7A0FB064600BF00BFB8F85B
:10EE80000000FAF7AEFC8346B8F80200FAF7A9FCD6
:10EE9000029000BF00BF00BF00BF00BF00BF00BFA7
:10EEA00000BF00BF00BF0024A146A2465748046827
:10EEB00043E000BF00BF00BF00BF00BF00BF00BFF6
:10EEC00000BF00BF00BF618A0298814233D1324641
:10EED0003946204600F09CF868B3207C00F004001E
:10EEE00098B9BAF1000F01D1A2460EE06EB14648C2
:10EEF0004069401C48B9DAF800007968884204D0BB
:10EF000020687968884200D1A246A08A584512D16B
:10EF1000606820B13C496068096988420BD1B9F149
:10EF2000000F07D0E068C9F80C0038480068E060BE
:10EF30003648046003E0A146E468002CB9D100BF64
:10EF400004B9544614B10120019008E02E497868B4
:10EF50004969884201D1012000E000200190019818
:10EF6000F0B300BF00BFB8F8060050B12648143017
:10EF700000902A89031F11212846F9F765FF00B187
:10EF80003BE008212846FBF7B5FB28B100BF00BFD6
:10EF90002846FBF7DBFA2EE07CB1A06948B1CDF83A
:10EFA00000B0194B10332A462146D4E906C0E04789
:10EFB00020E02846FBF7CAFA1DE000BF00BF96B963
:10EFC0001148007D00F0F000E0280CD00E48808948
:10EFD000083001B22846FBF706FB0321284600E073
:10EFE00005E0F9F76DF82846FBF7B0FA02E028468D
:10EFF000FBF7ACFA00BFBDE8FE8F00BF00BF28469C
:10F00000FBF7A4FA00BFF6E7F8A400207402002082
:10F0100030B5034600BF00BF00BF00BF187A50B133
:10F020001C7A1448406890F82C00401CC0B28442FE
:10F0300001D0002030BD8AB173B1186860B10D48AD
:10F040004069401C40B118688C682040094C6469D4
:10F050008D682C40A0420BD10120EBE733B118683A
:10F0600020B1044C18686469A04201D10120E1E795
:10F070000020DFE7F8A4002010B5024682B1136833
:10F0800073B169B10B685BB1064B186806E00368A1
:10F090001468A34201D10B680360C0680028F6D150
:10F0A00010BD00007402002010B50020FAF7A6FE83
:10F0B00004462CB120212046F1F729F9FF20E07207
:10F0C000204610BD70B50546FFF7EEFF044620460A
:10F0D00070BD000010B5002200BF124803880088F0
:10F0E000401C104C20804FF6FF70834203D14FF438
:10F0F0004040234618800C4801680EE0488A094BBE
:10F100001B88984208D1501C80B20246B0F5804F4F
:10F1100001DB002010BDE0E7C9680029EED10148FD
:10F120000088F7E7700200207402002000BF00B9D9
:10F13000704700BF8161C26100BFF9E72DE9F84364
:10F1400005460F461646984600BF1DB96FF00F00E2
:10F15000BDE8F88300BF00BF17B96FF00F00F7E7F5
:10F1600000BF00BF16B96FF00F00F1E700BF00BF8E
:10F1700000BF287A20B1287AFAF754FF044603E04A
:10F180003046F9F715FE044644B900BF00BF00BF82
:10F1900000BF00BF00BF6FF00300D9E7434632460F
:10F1A00039462846009400F001F8D1E72DE9FC47E4
:10F1B00004460F46904699460A9D00BF1CB96FF061
:10F1C0000F00BDE8FC8700BF00BF17B96FF00F004C
:10F1D000F7E700BF00BFB8F1000F02D16FF00F00DA
:10F1E000EFE700BF00BF15B96FF00F00E9E700BF00
:10F1F00034B1206820B1207800F0F000E02801D17F
:10F200002E1D07E020686968884202D06FF0030075
:10F21000D7E726464B46424639462046CDE90056BA
:10F2200000F001F8CDE72DE9FF4F85B004460D460B
:10F230009046DDF84C9000BF24B96FF00F0009B084
:10F24000BDE8F08F00BF00BF15B96FF00F00F6E703
:10F2500000BF00BFB8F1000F02D16FF00F00EEE762
:10F2600000BF00BFB9F1000F02D16FF00F00E6E759
:10F2700000BF00BF129810B96FF00F00DFE700BFAA
:10F28000608A70B900BF00BF628A21462046FFF73E
:10F2900077FD8246BAF1000F03D000BF00BF504691
:10F2A000CDE72889083080B22989884202DA4FF0F8
:10F2B000FF30C4E708212846FAF73FFFA0B14FF41A
:10F2C000207208212220FAF776FF064626B900BFF1
:10F2D00000BF4FF0FF30B2E7288918B12946304609
:10F2E000FBF768F800BF02E02E4600BF00BF00BF7A
:10F2F00000BF7768608AFAF774FA38800898FAF7DE
:10F3000070FA78800020F88000BF00BF00BF00BF07
:10F310003089FAF766FAB880207C00F0010080B9E5
:10F32000CDF8008032894B4611213046F9F78CFD2B
:10F330008346BBF1000F01D14FF6FF7BA7F806B063
:10F3400000BF11200490E07A039000BF00BF00BF0F
:10F3500000BFA27A04991298CDE90021029042469A
:10F3600049463046039BF9F76DFB8246AE4203D017
:10F370003046FBF7EBF80026504660E770B50546CF
:10F380000C4645B10C2C06D00B2C04D00F2C02D00F
:10F390006869F7F7B3FC70BD70B504460D460926E1
:10F3A000E4B12068D0B120680078B8B1A0882168A5
:10F3B000C988884212D12068FAF731F868B121680B
:10F3C0004878F5F74EFE00F0010008B9002605E088
:10F3D00000212068FFF7D2FF00E00F260EB9206859
:10F3E00000E000202860304670BD30B502465478F9
:10F3F000641C630100242046214610E0022901D14B
:10F40000491C0BE000F0010414B14FF4004400E08B
:10F41000002404EB6004555C2C44A0B2491C9942C2
:10F42000ECD330BD70B5064600241BE02846F7F744
:10F43000ADFC85B204F0010010B14FF4004000E0D3
:10F44000002000EB6400E9B2084484B204F001003B
:10F4500010B14FF4004000E0002000EB640000EB2E
:10F46000252084B236F8021B0D1EDFD1204670BD68
:10F47000C0000020D4000020E8000020FC00002094
:10F480001001002024010020380100204C01002040
:10F490006001002074010020880100209C010020F0
:10F4A000B0010020C4010020D8010020EC010020A0
:10F4B0000002002010B00308D0AF030850B00308CA
:10F4C00018B0030804B00308ECAF0308F8AF030852
:10F4D00044B0030824B003082CB0030838B0030874
:10F4E0000102030405060707070707070703060CC1
:10F4F0001830607828020020240200202C0200200E
:10F5000030020020FA00000051E40008E803000087
:10F51000C9910008E8030000DD5F0008E80300006F
:10F52000A35700080400000000000000FFFFFFFFD9
:10F53000FFFFFFFFFFFF000000000000FFFFFFFFD5
:10F540002F696D672F736963732E6769660000000A
:10F55000485454502F312E3020323030204F4B0D34
:10F560000A5365727665723A206C7749502F322EB5
:10F57000302E33642028687474703A2F2F736176AC
:10F58000616E6E61682E6E6F6E676E752E6F72673C
:10F590002F70726F6A656374732F6C776970290DB1
:10F5A0000A436F6E74656E742D4C656E6774683AAD
:10F5B000203732340D0A436F6E74656E742D5479A2
:10F5C00070653A20696D6167652F6769660D0A0D80
:10F5D0000A47494638396146002200A50000D92B68
:10F5E000396A6A6ABFBFBF9393930F0F0FB0B0B071
:10F5F000A6A6A68080807676761E1E1E9D9D9D2ED8
:10F600002E2E4949495454548A8A8A606060C6A69D
:10F6100099BDB5B2C2ABA1D94140D56755C0B0AA1A
:10F62000D55E4ED65045CC937DC8A190CE8B76D278
:10F630007B65D1846DC999863A3A3A000000B8B822
:10F64000B8FFFFFFFFFFFFFFFFFFFFFFFFFFFFFF11
:10F65000FFFFFFFFFFFFFFFFFFFFFFFFFFFFFFFFBA
:10F66000FFFFFFFFFFFFFFFFFFFFFFFFFFFFFFFFAA
:10F67000FFFFFFFFFFFFFFFFFFFFFFFFFFFFFFFF9A
:10F68000FFFFFFFFFFFFFFFFFFFFFFFFFFFFFFFF8A
:10F69000FFFFFFFFFFFFFFFFFFFFFFFFFFFF2C004C
:10F6A000000000460022000006FE409070482C1A20
:10F6B0008FC8A472C96C3A9FD0A8744AAD5AAFD80B
:10F6C000AC76A94004BE83E2603C50200D8E6F00F2
:10F6D00031281C0D07B5C36075243EF8FC87110660
:10F6E000E93D46070B7A7A7C43061E84780B076E49
:10F6F00051018A84087E79808789917A930A0499D6
:10F7000078964F039E7901949F439CA3A40577A309
:10F71000A04E98790B1E83A4A61F96059DAA78017A
:10F720000784041E1EBBB851840E43050777A57FCE
:10F7300042B1B20163080DBB010C7A0D440ED8AF83
:10F740004C057A04470707B780A2E17D4405010410
:10F7500001D0EA87934FE09A49CED8790466201504
:10F76000101011922980B6C09115451E901971464E
:10F77000A85C040E00224EE840249F3E0406A758D1
:10F78000D493A01C913FE8F08803B121A24900194D
:10F7900086FC5244E0019D2921152550F767251E5E
:10F7A00006FD4E9AB490AC15FACB52531E8CF2F86B
:10F7B00007922D083A4D12499549DB1404C414856B
:10F7C00029AAE70108A449011451E05391D529065B
:10F7D0001A6402F4C7819E05202264A530AEAB9E58
:10F7E0009753D8B9FD50EF9302427434E89C20211E
:10F7F000C9016878E6552920564F4C40517182C0A6
:10F8000070212285BE4B1C4405EAA401BF22B5F03D
:10F810001C0651388FE022EC18AC3922D4D6934420
:10F82000013282C8FC61B301450C2E8330D00E1723
:10F83000240F708594EE0505534B321B3F98D31D62
:10F840002981B0AE1E8C7E68E0605A548FB0786912
:10F850007306A2006B57CA3D1150BD04304B3AD419
:10F86000AB5F1F9B3D137427883C25E017BE7A7958
:10F87000450D0CB08BDA90CA80065D17601C224CD7
:10F88000D85722062000980708E45680801CC5B788
:10F89000C5820C36E8E083104628E184145668A13E
:10F8A000104100003B2F3430342E68746D6C000022
:10F8B00000485454502F312E3020343034204669C3
:10F8C0006C65206E6F7420666F756E640D0A5365EB
:10F8D000727665723A206C7749502F322E302E3373
:10F8E000642028687474703A2F2F736176616E6E8D
:10F8F00061682E6E6F6E676E752E6F72672F7072F5
:10F900006F6A656374732F6C776970290D0A436F92
:10F910006E74656E742D4C656E6774683A2035366A
:10F92000350D0A436F6E74656E742D547970653AA7
:10F9300020746578742F68746D6C0D0A0D0A3C682C
:10F94000746D6C3E0D0A3C686561643E3C7469747C
:10F950006C653E6C774950202D2041204C696768CA
:10F9600074776569676874205443502F4950205359
:10F970007461636B3C2F7469746C653E3C2F6865E1
:10F9800061643E0D0A3C626F6479206267636F6C4C
:10F990006F723D2277686974652220746578743DC2
:10F9A00022626C61636B223E0D0A0D0A202020202A
:10F9B0003C7461626C652077696474683D22313003
:10F9C0003025223E0D0A2020202020203C74722069
:10F9D00076616C69676E3D22746F70223E3C746480
:10F9E0002077696474683D223830223E0920200D5A
:10F9F0000A0920203C6120687265663D22687474A3
:10FA0000703A2F2F7777772E736963732E73652F74
:10FA1000223E3C696D67207372633D222F696D67DA
:10FA20002F736963732E676966220D0A09202062AD
:10FA30006F726465723D22302220616C743D2253E6
:10FA4000494353206C6F676F22207469746C653D65
:10FA50002253494353206C6F676F223E3C2F613E17
:10FA60000D0A093C2F74643E3C7464207769647409
:10FA7000683D22353030223E0920200D0A09202021
:10FA80003C68313E6C774950202D2041204C6967FD
:10FA90006874776569676874205443502F49502013
:10FAA000537461636B3C2F68313E0D0A0920203C82
:10FAB00068323E343034202D2050616765206E6FEF
:10FAC0007420666F756E643C2F68323E0D0A092003
:10FAD000203C703E0D0A0920202020536F7272795D
:10FAE0002C20746865207061676520796F752061CE
:10FAF00072652072657175657374696E67207761D0
:10FB000073206E6F7420666F756E64206F6E207444
:10FB10006869730D0A09202020207365727665726A
:10FB20002E200D0A0920203C2F703E0D0A093C2F83
:10FB300074643E3C74643E0D0A092020266E627394
:10FB4000703B0D0A093C2F74643E3C2F74723E0DCD
:10FB50000A2020202020203C2F7461626C653E0D1D
:10FB60000A3C2F626F64793E0D0A3C2F68746D6CFD
:10FB70003E0D0A2F696E6465782E68746D6C0048BE
:10FB80005454502F312E3020323030204F4B0D0A3C
:10FB90005365727665723A206C7749502F322E3059
:10FBA0002E33642028687474703A2F2F7361766145
:10FBB0006E6E61682E6E6F6E676E752E6F72672F38
:10FBC00070726F6A656374732F6C776970290D0AA0
:10FBD000436F6E74656E742D4C656E6774683A2061
:10FBE000313735310D0A436F6E74656E742D54795B
:10FBF00070653A20746578742F68746D6C0D0A0D09
:10FC00000A3C68746D6C3E0D0A3C686561643E3C5C
:10FC10007469746C653E6C774950202D2041204CEE
:10FC200069676874776569676874205443502F4921
:10FC30005020537461636B3C2F7469746C653E3C57
:10FC40002F686561643E0D0A3C626F6479206267CB
:10FC5000636F6C6F723D22776869746522207465EA
:10FC600078743D22626C61636B223E0D0A0D0A209E
:10FC70002020203C7461626C652077696474683D63
:10FC80002231303025223E0D0A2020202020203C29
:10FC900074722076616C69676E3D22746F70223ECB
:10FCA0003C74642077696474683D223830223E09D0
:10FCB00020200D0A0920203C6120687265663D22E3
:10FCC000687474703A2F2F7777772E736963732E69
:10FCD00073652F223E3C696D67207372633D222F4E
:10FCE000696D672F736963732E676966220D0A0950
:10FCF0002020626F726465723D22302220616C7434
:10FD00003D2253494353206C6F676F2220746974FE
:10FD10006C653D2253494353206C6F676F223E3C14
:10FD20002F613E0D0A093C2F74643E3C74642077B9
:10FD3000696474683D22353030223E0920200D0A66
:10FD40000920203C68313E6C774950202D2041200D
:10FD50004C69676874776569676874205443502FED
:10FD6000495020537461636B3C2F68313E0D0A0982
:10FD700020203C703E0D0A09202020205468652078
:10FD8000776562207061676520796F7520617265A3
:10FD9000207761746368696E67207761732073658B
:10FDA0007276656420627920612073696D706C657C
:10FDB000207765620D0A0920202020736572766520
:10FDC000722072756E6E696E67206F6E20746F7030
:10FDD000206F6620746865206C6967687477656950
:10FDE000676874205443502F495020737461636BCB
:10FDF000203C610D0A0920202020687265663D22A2
:10FE0000687474703A2F2F7777772E736963732E27
:10FE100073652F7E6164616D2F6C7769702F223E50
:10FE20006C7749503C2F613E2E0D0A0920203C2F53
:10FE3000703E0D0A0920203C703E0D0A092020204A
:10FE4000206C77495020697320616E206F70656E59
:10FE500020736F7572636520696D706C656D656E7A
:10FE6000746174696F6E206F6620746865205443F6
:10FE7000502F49500D0A092020202070726F746F96
:10FE8000636F6C2073756974652074686174207782
:10FE90006173206F726967696E616C6C792077722B
:10FEA000697474656E206279203C610D0A09202016
:10FEB0002020687265663D22687474703A2F2F772F
:10FEC00077772E736963732E73652F7E6164616D1E
:10FED0002F6C7769702F223E4164616D2044756EEE
:10FEE0006B656C730D0A09202020206F66207468F2
:10FEF00065205377656469736820496E737469740B
:10FF0000757465206F6620436F6D7075746572201F
:10FF1000536369656E63653C2F613E206275742092
:10FF20006E6F772069730D0A0920202020626569B1
:10FF30006E67206163746976656C792064657665A7
:10FF40006C6F7065642062792061207465616D203A
:10FF50006F6620646576656C6F706572730D0A0953
:10FF6000202020206469737472696275746564204E
:10FF7000776F726C642D776964652E2053696E63A8
:10FF80006520697427732072656C656173652C2028
:10FF90006C774950206861730D0A09202020207376
:10FFA0007075727265642061206C6F74206F6620BA
:10FFB000696E74657265737420616E642068617324
:10FFC000206265656E20706F7274656420746F20A6
:10FFD0007365766572616C0D0A0920202020706CB3
:10FFE0006174666F726D7320616E64206F706572EC
:10FFF0006174696E672073797374656D732E206CFC
:020000040801F1
:100000007749502063616E206265207573656420B6
:100010006569746865720D0A09202020207769746B
:1000200068206F7220776974686F757420616E2024
:10003000756E6465726C79696E67204F532E0D0A78
:100040000920203C2F703E0D0A0920203C703E0DF7
:100050000A092020202054686520666F637573208C
:100060006F6620746865206C774950205443502F88
:10007000495020696D706C656D656E746174696F4F
:100080006E20697320746F207265647563650D0A54
:1000900009202020207468652052414D207573612D
:1000A0006765207768696C65207374696C6C20687B
:1000B0006176696E6720612066756C6C2073636180
:1000C0006C65205443502E20546869730D0A092032
:1000D0002020206D616B6573206C7749502073750B
:1000E000697461626C6520666F7220757365206942
:1000F0006E20656D626564646564207379737465F0
:100100006D7320776974682074656E730D0A092019
:100110002020206F66206B696C6F62797465732094
:100120006F6620667265652052414D20616E6420C5
:10013000726F6F6D20666F722061726F756E6420D2
:100140003430206B696C6F62797465730D0A092015
:100150002020206F6620636F646520524F4D2E0D66
:100160000A0920203C2F703E0D0A0920203C703ED9
:100170000D0A09202020204D6F726520696E666F80
:10018000726D6174696F6E2061626F7574206C7737
:1001900049502063616E20626520666F756E642031
:1001A000617420746865206C7749500D0A0920201D
:1001B0002020686F6D6570616765206174203C6107
:1001C0000D0A0920202020687265663D226874743B
:1001D000703A2F2F736176616E6E61682E6E6F6E4E
:1001E000676E752E6F72672F70726F6A65637473B6
:1001F0002F6C7769702F223E687474703A2F2F73BA
:100200006176616E6E61682E6E6F6E676E752E6FB1
:1002100072672F70726F6A656374732F6C77697081
:100220002F3C2F613E0D0A09202020206F72206193
:100230007420746865206C7749502077696B692059
:100240006174203C610D0A092020202068726566D7
:100250003D22687474703A2F2F6C7769702E77691D
:100260006B69612E636F6D2F223E687474703A2F34
:100270002F6C7769702E77696B69612E636F6D2FB4
:100280003C2F613E2E0D0A0920203C2F703E0D0AA6
:10029000093C2F74643E3C74643E0D0A09202026FC
:1002A0006E6273703B0D0A093C2F74643E3C2F74E0
:1002B000723E0D0A2020202020203C2F7461626CA9
:1002C000653E0D0A3C2F626F64793E0D0A3C2F6833
:1002D000746D6C3E0D0A0D0A0000000040F5000828
:1002E00050F500085503000003000000D802010883
:1002F000A5F80008B1F80008C202000003000000E1
:10030000EC02010873FB00087FFB0008590700009E
:100310000300000074B00308010000005CB0030893
:100320000100000090B003080100000068B003085D
:100330000000000084B0030800000000010305076E
:10034000090E10121416181C1E81FE0000407E803B
:10035000FE00002B2E2C3B3D5B5D2F5C222A3A3C9D
:100360003E3F7C7F000001000400100040000001BF
:10037000000200000100020004000800100020003C
:100380000000A400E8A1A700ECA1A800A7A1B0006C
:10039000E3A1B100C0A1B700A4A1D700C1A1E000B2
:1003A000A4A8E100A2A8E800A8A8E900A6A8EA007D
:1003B000BAA8EC00ACA8ED00AAA8F200B0A8F3001F
:1003C000AEA8F700C2A1F900B4A8FA00B2A8FC00D8
:1003D000B9A80101A1A81301A5A81B01A7A82B0179
:1003E000A9A84401BDA84801BEA84D01ADA86B0154
:1003F000B1A8CE01A3A8D001ABA8D201AFA8D40167
:10040000B3A8D601B5A8D801B6A8DA01B7A8DC010F
:10041000B8A85102BBA86102C0A8C702A6A1C90220
:10042000A5A1CA0240A8CB0241A8D90242A89103C3
:10043000A1A69203A2A69303A3A69403A4A6950340
:10044000A5A69603A6A69703A7A69803A8A6990310
:10045000A9A69A03AAA69B03ABA69C03ACA69D03E0
:10046000ADA69E03AEA69F03AFA6A003B0A6A103B0
:10047000B1A6A303B2A6A403B3A6A503B4A6A6037C
:10048000B5A6A703B6A6A803B7A6A903B8A6B10345
:10049000C1A6B203C2A6B303C3A6B403C4A6B503E0
:1004A000C5A6B603C6A6B703C7A6B803C8A6B903B0
:1004B000C9A6BA03CAA6BB03CBA6BC03CCA6BD0380
:1004C000CDA6BE03CEA6BF03CFA6C003D0A6C10350
:1004D000D1A6C303D2A6C403D3A6C503D4A6C6031C
:1004E000D5A6C703D6A6C803D7A6C903D8A60104B4
:1004F000A7A71004A1A71104A2A71204A3A713047D
:10050000A4A71404A5A71504A6A71604A8A7170452
:10051000A9A71804AAA71904ABA71A04ACA71B041F
:10052000ADA71C04AEA71D04AFA71E04B0A71F04EF
:10053000B1A72004B2A72104B3A72204B4A72304BF
:10054000B5A72404B6A72504B7A72604B8A727048F
:10055000B9A72804BAA72904BBA72A04BCA72B045F
:10056000BDA72C04BEA72D04BFA72E04C0A72F042F
:10057000C1A73004D1A73104D2A73204D3A73304D2
:10058000D4A73404D5A73504D6A73604D8A7370492
:10059000D9A73804DAA73904DBA73A04DCA73B045F
:1005A000DDA73C04DEA73D04DFA73E04E0A73F042F
:1005B000E1A74004E2A74104E3A74204E4A74304FF
:1005C000E5A74404E6A74504E7A74604E8A74704CF
:1005D000E9A74804EAA74904EBA74A04ECA74B049F
:1005E000EDA74C04EEA74D04EFA74E04F0A74F046F
:1005F000F1A75104D7A710205CA9132043A8142009
:10060000AAA1152044A81620ACA11820AEA119203B
:10061000AFA11C20B0A11D20B1A1252045A82620F6
:10062000ADA13020EBA13220E4A13320E5A135209B
:1006300046A83B20F9A1AC2080000321E6A10521BA
:1006400047A8092148A81621EDA1212159A9602117
:10065000F1A26121F2A26221F3A26321F4A264213A
:10066000F5A26521F6A26621F7A26721F8A268210A
:10067000F9A26921FAA26A21FBA26B21FCA27021D6
:10068000A1A27121A2A27221A3A27321A4A274210A
:10069000A5A27521A6A27621A7A27721A8A27821DA
:1006A000A9A27921AAA29021FBA19121FCA19221CA
:1006B000FAA19321FDA1962149A897214AA8982142
:1006C0004BA899214CA80822CAA10F22C7A1112228
:1006D000C6A115224DA81A22CCA11D22D8A11E22E6
:1006E000DEA11F224EA82022CFA123224FA825221F
:1006F000CEA12722C4A12822C5A12922C9A12A222C
:10070000C8A12B22D2A12E22D3A13422E0A13522CE
:10071000DFA13622C3A13722CBA13D22D7A1482297
:10072000D6A14C22D5A1522250A86022D9A1612283
:10073000D4A16422DCA16522DDA1662251A8672232
:1007400052A86E22DAA16F22DBA1952292A89922EB
:10075000D1A1A522CDA1BF2253A81223D0A16024EC
:10076000D9A26124DAA26224DBA26324DCA264247D
:10077000DDA26524DEA26624DFA26724E0A268244D
:10078000E1A26924E2A27424C5A27524C6A276243B
:10079000C7A27724C8A27824C9A27924CAA27A243D
:1007A000CBA27B24CCA27C24CDA27D24CEA27E240D
:1007B000CFA27F24D0A28024D1A28124D2A28224DD
:1007C000D3A28324D4A28424D5A28524D6A28624AD
:1007D000D7A28724D8A28824B1A28924B2A28A24CD
:1007E000B3A28B24B4A28C24B5A28D24B6A28E24ED
:1007F000B7A28F24B8A29024B9A29124BAA29224BD
:10080000BBA29324BCA29424BDA29524BEA296248C
:10081000BFA29724C0A29824C1A29924C2A29A245C
:10082000C3A29B24C4A20025A4A90125A5A9022531
:10083000A6A90325A7A90425A8A90525A9A90625D0
:10084000AAA90725ABA90825ACA90925ADA90A25A0
:10085000AEA90B25AFA90C25B0A90D25B1A90E2570
:10086000B2A90F25B3A91025B4A91125B5A9122540
:10087000B6A91325B7A91425B8A91525B9A9162510
:10088000BAA91725BBA91825BCA91925BDA91A25E0
:10089000BEA91B25BFA91C25C0A91D25C1A91E25B0
:1008A000C2A91F25C3A92025C4A92125C5A9222580
:1008B000C6A92325C7A92425C8A92525C9A9262550
:1008C000CAA92725CBA92825CCA92925CDA92A2520
:1008D000CEA92B25CFA92C25D0A92D25D1A92E25F0
:1008E000D2A92F25D3A93025D4A93125D5A93225C0
:1008F000D6A93325D7A93425D8A93525D9A9362590
:10090000DAA93725DBA93825DCA93925DDA93A255F
:10091000DEA93B25DFA93C25E0A93D25E1A93E252F
:10092000E2A93F25E3A94025E4A94125E5A94225FF
:10093000E6A94325E7A94425E8A94525E9A94625CF
:10094000EAA94725EBA94825ECA94925EDA94A259F
:10095000EEA94B25EFA9502554A8512555A852259D
:1009600056A8532557A8542558A8552559A85625A3
:100970005AA857255BA858255CA859255DA85A2573
:100980005EA85B255FA85C2560A85D2561A85E2543
:1009900062A85F2563A8602564A8612565A8622513
:1009A00066A8632567A8642568A8652569A86625E3
:1009B0006AA867256BA868256CA869256DA86A25B3
:1009C0006EA86B256FA86C2570A86D2571A86E2583
:1009D00072A86F2573A8702574A8712575A8722553
:1009E00076A8732577A8812578A8822579A88325FC
:1009F0007AA884257BA885257CA886257DA88725BF
:100A00007EA8882580A8892581A88A2582A88B258B
:100A100083A88C2584A88D2585A88E2586A88F255A
:100A200087A8932588A8942589A895258AA8A02514
:100A3000F6A1A125F5A1B225F8A1B325F7A1BC2502
:100A40008BA8BD258CA8C625F4A1C725F3A1CB256D
:100A5000F0A1CE25F2A1CF25F1A1E2258DA8E325B5
:100A60008EA8E4258FA8E52590A80526EFA10626E7
:100A7000EEA1092691A84026E2A14226E1A100307C
:100A8000A1A10130A2A10230A3A10330A8A1053089
:100A9000A9A1063065A9073096A90830B4A109308C
:100AA000B5A10A30B6A10B30B7A10C30B8A10D30FA
:100AB000B9A10E30BAA10F30BBA11030BEA11130C8
:100AC000BFA1123093A81330FEA11430B2A115308B
:100AD000B3A11630BCA11730BDA11D3094A81E30A3
:100AE00095A8213040A9223041A9233042A92430C1
:100AF00043A9253044A9263045A9273046A92830E6
:100B000047A9293048A94130A1A44230A2A44330CA
:100B1000A3A44430A4A44530A5A44630A6A44730DD
:100B2000A7A44830A8A44930A9A44A30AAA44B30AD
:100B3000ABA44C30ACA44D30ADA44E30AEA44F307D
:100B4000AFA45030B0A45130B1A45230B2A453304D
:100B5000B3A45430B4A45530B5A45630B6A457301D
:100B6000B7A45830B8A45930B9A45A30BAA45B30ED
:100B7000BBA45C30BCA45D30BDA45E30BEA45F30BD
:100B8000BFA46030C0A46130C1A46230C2A463308D
:100B9000C3A46430C4A46530C5A46630C6A467305D
:100BA000C7A46830C8A46930C9A46A30CAA46B302D
:100BB000CBA46C30CCA46D30CDA46E30CEA46F30FD
:100BC000CFA47030D0A47130D1A47230D2A47330CD
:100BD000D3A47430D4A47530D5A47630D6A477309D
:100BE000D7A47830D8A47930D9A47A30DAA47B306D
:100BF000DBA47C30DCA47D30DDA47E30DEA47F303D
:100C0000DFA48030E0A48130E1A48230E2A483300C
:100C1000E3A48430E4A48530E5A48630E6A48730DC
:100C2000E7A48830E8A48930E9A48A30EAA48B30AC
:100C3000EBA48C30ECA48D30EDA48E30EEA48F307C
:100C4000EFA49030F0A49130F1A49230F2A493304C
:100C5000F3A49B3061A99C3062A99D3066A99E30A7
:100C600067A9A130A1A5A230A2A5A330A3A5A43055
:100C7000A4A5A530A5A5A630A6A5A730A7A5A830F0
:100C8000A8A5A930A9A5AA30AAA5AB30ABA5AC30C0
:100C9000ACA5AD30ADA5AE30AEA5AF30AFA5B03090
:100CA000B0A5B130B1A5B230B2A5B330B3A5B43060
:100CB000B4A5B530B5A5B630B6A5B730B7A5B83030
:100CC000B8A5B930B9A5BA30BAA5BB30BBA5BC3000
:100CD000BCA5BD30BDA5BE30BEA5BF30BFA5C030D0
:100CE000C0A5C130C1A5C230C2A5C330C3A5C430A0
:100CF000C4A5C530C5A5C630C6A5C730C7A5C83070
:100D0000C8A5C930C9A5CA30CAA5CB30CBA5CC303F
:100D1000CCA5CD30CDA5CE30CEA5CF30CFA5D0300F
:100D2000D0A5D130D1A5D230D2A5D330D3A5D430DF
:100D3000D4A5D530D5A5D630D6A5D730D7A5D830AF
:100D4000D8A5D930D9A5DA30DAA5DB30DBA5DC307F
:100D5000DCA5DD30DDA5DE30DEA5DF30DFA5E0304F
:100D6000E0A5E130E1A5E230E2A5E330E3A5E4301F
:100D7000E4A5E530E5A5E630E6A5E730E7A5E830EF
:100D8000E8A5E930E9A5EA30EAA5EB30EBA5EC30BF
:100D9000ECA5ED30EDA5EE30EEA5EF30EFA5F0308F
:100DA000F0A5F130F1A5F230F2A5F330F3A5F4305F
:100DB000F4A5F530F5A5F630F6A5FC3060A9FD30B8
:100DC00063A9FE3064A90531C5A80631C6A807315C
:100DD000C7A80831C8A80931C9A80A31CAA80B3167
:100DE000CBA80C31CCA80D31CDA80E31CEA80F3137
:100DF000CFA81031D0A81131D1A81231D2A8133107
:100E0000D3A81431D4A81531D5A81631D6A81731D6
:100E1000D7A81831D8A81931D9A81A31DAA81B31A6
:100E2000DBA81C31DCA81D31DDA81E31DEA81F3176
:100E3000DFA82031E0A82131E1A82231E2A8233146
:100E4000E3A82431E4A82531E5A82631E6A8273116
:100E5000E7A82831E8A82931E9A82032E5A2213203
:100E6000E6A22232E7A22332E8A22432E9A2253206
:100E7000EAA22632EBA22732ECA22832EDA22932D6
:100E8000EEA231325AA9A33249A98E334AA98F332F
:100E90004BA99C334CA99D334DA99E334EA9A13338
:100EA0004FA9C43350A9CE3351A9D13352A9D2335B
:100EB00053A9D53354A9004EBBD2014EA1B6024E60
:100EC0004081034EDFC6044E4181054E4281064EED
:100ED0004381074EF2CD084EC9D5094EFDC80A4ED2
:100EE000CFC90B4EC2CF0C4EA2D80D4EBBB20E4E88
:100EF000EBD30F4E4481104EA4D8114EF3B3124ED3
:100F00004581134EA8D7144ED2C7154EA7D8164EFA
:100F1000C0CA174E4681184EF0C7194EFBB11A4E83
:100F2000B5D21B4ED4B41C4EABB61D4EBFCB1E4E1D
:100F3000A9D81F4E4781204E4881214E4981224E1B
:100F4000AAB6234E4A81244EBDC1254ECFD1264E8E
:100F50004B81274EA5C9284EADD8294E4C812A4E2B
:100F6000F6B82B4EBED12C4EDCE32D4ED0D62E4EF5
:100F70004D812F4E4E81304EE1B7314E4F81324E72
:100F8000AEB4334E5081344ED9C1354E5181364EB8
:100F9000BCD8374E5281384EE8CD394EA4B53A4EC2
:100FA000AACE3B4EF7D63C4E53813D4EF6C03E4E48
:100FB000D9BE3F4EAFD8404E5481414E5581424E2E
:100FC0005681434ECBC4444E5781454EC3BE464E18
:100FD0005881474EB1D8484EB4C3494EE5D24A4E27
:100FE00059814B4EAED64C4EDACE4D4EA7D54E4E15
:100FF000F5BA4F4EA6B7504ED6C0514E5A81524EFA
:10100000B9C6534ED2C5544EC7C7554E5B81564ED6
:10101000D4B9574E5C81584ECBB3594ED2D25A4EAA
:101020005D815B4E5E815C4EBFD85D4EC5BE5E4E3F
:10103000F2C65F4EB2D2604EB0CF614EE7CF624E85
:101040005F81634E6081644E6181654E6281664E50
:10105000E9CA674E6381684E6481694EC0D86A4EA2
:1010600065816B4E66816C4E67816D4E68816E4EF8
:1010700069816F4E6A81704EF2C2714ED2C2724E59
:101080006B81734EE9C8744E6C81754E6D81764EDE
:101090006E81774E6F81784E7081794E71817A4E74
:1010A00072817B4E73817C4E74817D4E75817E4E44
:1010B000ACC77F4E7681804E7781814E7881824E9B
:1010C0007981834E7A81844E7B81854E7C81864EE8
:1010D000CBC1874E7D81884EE8D3894EF9D58A4EA3
:1010E0007E818B4EC2CA8C4EFEB68D4EA1D88E4EDE
:1010F000DAD38F4EF7BF904E8081914EC6D4924E78
:10110000A5BB934EC1D8944EE5CE954EAEBE964E3D
:101110008181974E8281984EA8D8994E83819A4EAC
:10112000C7D19B4EA9D09C4E84819D4E85819E4EF9
:1011300086819F4EBDD8A04EEFD9A14EF6CDA24ECE
:10114000BABFA34E8781A44EBBBDA54EA5BAA64E7D
:10115000E0D2A74EFAB2A84EE0BAA94EB6C4AA4E43
:101160008881AB4EEDCFAC4EA9BEAD4EA4CDAE4EF8
:10117000C1C1AF4E8981B04E8A81B14E8B81B24ED2
:10118000D7C7B34EF1D9B44E8C81B54EF4D9B64E13
:101190008D81B74E8E81B84E8F81B94E9081BA4EF7
:1011A000CBC8BB4EE9D8BC4E9181BD4E9281BE4E9C
:1011B0009381BF4EDAD2C04EB2CAC14ECAC8C24E27
:1011C000ECD8C34EEAD8C44EC6D8C54EF6BDC64EFE
:1011D000CDC6C74EF0B3C84E9481C94EEBD8CA4EA7
:1011E000F1BDCB4EE9BDCC4E9581CD4ED4C8CE4E8F
:1011F000D3B4CF4E9681D04E9781D14ED8C2D24E25
:101200009881D34ED6B2D44ED0D7D54ECBCAD64E77
:10121000FBCBD74ECCD5D84EB6B8D94EC9CFDA4EC7
:101220009981DB4E9A81DC4E9B81DD4EDAD9DE4E10
:10123000F0D8DF4EAAC7E04E9C81E14EEED8E24ED8
:101240009D81E34EFAB4E44EEEC1E54ED4D2E64EB3
:101250009E81E74E9F81E84EEDD8E94EA081EA4E8F
:10126000C7D2EB4EEFD8EC4EC7C3ED4EA181EE4E88
:10127000A281EF4EA381F04EF6D1F14EA481F24E41
:10128000D9D6F34EF2D8F44EA581F54EF5D8F64EE8
:10129000FEBCF74EDBBCF84EA681F94EA781FA4E94
:1012A000A881FB4ECEC8FC4EA981FD4EDDB7FE4E97
:1012B000AA81FF4EC2B7004FAB81014FF3C6024F68
:1012C000AC81034FAD81044FAE81054FAF81064F16
:1012D000B081074FB181084FB281094FF8D80A4F4A
:1012E000C1D20B4FB3810C4FB4810D4FE9CE0E4FDD
:1012F000BFBC0F4FFCB7104FA5B7114FDDD0124F39
:10130000B581134FB681144FB781154FB881164F71
:10131000B981174FDAD6184FC5D3194FEFBB1A4F03
:10132000E1BB1B4FF1D81C4FBA811D4FBB811E4F33
:10133000A1C91F4FB0CE204FABB4214FBC81224F6B
:10134000F3D8234FBD81244FCBC9254FF6D8264F64
:10135000D7C2274FF7D8284FBE81294FBF812A4FC8
:10136000B1CE2B4FF9D82C4FC0812D4FC1812E4FBC
:10137000C2812F4FAEB2304FC0B9314FC381324F0F
:10138000A3D9334FC481344FE9B0354FC581364FAF
:10139000E6C1374FC681384FECC9394FC7813A4F44
:1013A000C5CB3B4FC8813C4FC6CB3D4FA4D93E4F28
:1013B000C9813F4FCA81404FCB81414FCC81424FC1
:1013C000CD81434FE8B5444FCE81454FCF81464F45
:1013D000ABB5474FD081484FD181494FD2814A4F59
:1013E000D3814B4FD4814C4FD5814D4FBBCE4E4F07
:1013F000CDB54F4FA1D7504FF4D7514FD3D3524F04
:10140000D681534FE5CC544FD781554FCEBA564F66
:10141000D881574FA2D9584FDCD9594FE0D35A4FF2
:10142000FDD85B4FF0B75C4FF7D75D4FFED85E4FEE
:10143000FAD85F4FA1D9604FE3C4614FD981624FA1
:10144000DA81634FB6D3644FF4D8654FDDD9664F68
:10145000DB81674FFBD8684FDC81694FE5C56A4F78
:10146000DD816B4FDE816C4FD0C06D4FDF816E4FE1
:10147000E0816F4FF0D1704FDBB0714FE181724F5F
:10148000E281734FD1BC744FA6D9754FE381764F7B
:10149000A5D9774FE481784FE581794FE6817A4F7E
:1014A000E7817B4FACD97C4FAED97D4FE8817E4F31
:1014B000ABD97F4FB9CA804FE981814FEA81824F12
:1014C000EB81834FA9D9844FB6D6854FEC81864FE7
:1014D000ED81874FEE81884FDEB3894FA8D98A4FBF
:1014E000EF818B4FFDC08C4FF0818D4FCCCA8E4F5A
:1014F000F1818F4FAAD9904FF281914FA7D9924F86
:10150000F381934FF481944FB0D9954FF581964F65
:10151000F681974FB1B6984FF781994FF8819A4F5E
:10152000F9819B4FA9B99C4FFA819D4FC0D29E4F24
:10153000FB819F4FFC81A04FC0CFA14FFD81A24FE7
:10154000FE81A34FC2C2A44F4082A54FC4BDA64F87
:10155000ECD5A74FE0B2A84FC8C7A94FEBBFAA4F21
:10156000ADD9AB4F4182AC4FAFD9AD4F4282AE4FF8
:10157000EACEAF4FEEBAB04F4382B14F4482B24F82
:101580004582B34F4682B44F4782B54FD6C7B64F58
:101590004882B74F4982B84F4A82B94F4B82BA4FFF
:1015A0004C82BB4F4D82BC4F4E82BD4F4F82BE4FCF
:1015B0005082BF4FE3B1C04F5182C14F5282C24FE0
:1015C0005382C34FD9B4C44FEDB6C54FB4D9C64F3B
:1015D0005482C74F5582C84F5682C94F5782CA4F4F
:1015E000A1BFCB4F5882CC4F5982CD4F5A82CE4F9C
:1015F000DED9CF4FCEC7D04FFEC0D14FB8D9D24FD2
:101600005B82D34F5C82D44F5D82D54F5E82D64FD2
:101610005F82D74FD7CBD84FFDB7D94F6082DA4F13
:10162000B5D9DB4F6182DC4FB7D9DD4FA3B1DE4FB7
:10163000E1D3DF4FB9D9E04F6282E14FC5D0E24F2D
:101640006382E34FB6D9E44F6482E54F6582E64F8B
:10165000B1D9E74F6682E84FB2D9E94FA9C1EA4F45
:10166000B3D9EB4F6782EC4F6882ED4FF3BCEE4F7E
:10167000DED0EF4FA9B8F04F6982F14FE3BEF24FD1
:101680006A82F34FBDD9F44F6B82F54F6C82F64FEF
:101690006D82F74F6E82F84FBAD9F94F6F82FA4FC9
:1016A000B3B0FB4F7082FC4F7182FD4F7282FE4FD0
:1016B000C2D9FF4F7382005074820150758202506C
:1016C00076820350778204507882055079820650E2
:1016D0007A8207507B8208507C8209507D820A50B2
:1016E0007E820B5080820C50C4D90D50B6B10E5082
:1016F00081820F50BFD910508282115083821250C4
:10170000B9B5135084821450F3BE1550858216501B
:101710008682175087821850C8CC1950F2BA1A50D6
:10172000D0D21B5088821C50C3D91D5089821E50B4
:101730008A821F50E8BD20508B822150ABB32250CB
:101740008C8223508D8224508E822550C5D92650FC
:10175000EBBE27508F822850C6D92950BBD92A50BA
:10176000DFC42B5090822C50BED92D50C1D92E50A1
:10177000C0D92F5091823050928231509382325092
:1017800094823350958234509682355097823650E9
:1017900098823750998238509A8239509B823A50B9
:1017A000AED53B509C823C50B5D63D509D823E50BC
:1017B000E3C73F509E8240509F824150A0824250DA
:1017C000A1824350C8D94450A2824550A3824650BA
:1017D000A4824750D9BC4850CAD94950A5824A5022
:1017E000A6824B50A7824C50BCD94D50A8824E5077
:1017F000CBD94F50ABC65050A9825150AA825250FB
:10180000AB825350AC825450AD825550C9D956501A
:10181000AE825750AF825850B0825950B1825A5060
:10182000F6D75B50B2825C50A3CD5D50B3825E5060
:10183000B4825F50B5826050B6826150B782625008
:10184000B8826350B9826450BA826550A1BD6650B7
:10185000BB826750BC826850BD826950BE826A50AC
:10186000BF826B50C0826C50CCD96D50C1826E501B
:10187000C2826F50C3827050C4827150C582725050
:10188000C6827350C7827450C8827550C982765020
:10189000BCC57750B5CD7850CA827950CB827A508A
:1018A000CC827B50CDD97C50CD827D50CE827E5073
:1018B000C7D97F50A5B38050FEBF8150CF828250E0
:1018C000D0828350D1828450D2828550B5B8865060
:1018D000D3828750D4828850FCC08950D5828A50E8
:1018E000D6828B50D7828C50D8828D50F8B08E50D3
:1018F000D9828F50DA829050DB829150DC829250F4
:10190000DD829350DE829450DF829550E0829650C3
:10191000E1829750E2829850E3829950E4829A5093
:10192000E5829B50E6829C50E7829D50E8829E5063
:10193000E9829F50EA82A050EB82A150EC82A25033
:10194000ED82A350F6B4A450EE82A550CED9A65095
:10195000EF82A750CFD9A850A2B4A950D0D9AA508D
:10196000F082AB50F182AC50DFB4AD50F282AE5099
:10197000F382AF50F482B050F582B150F682B2508B
:10198000C1B0B350F782B450F882B550F982B65066
:10199000FA82B750FB82B850FC82B950FD82BA502F
:1019A000D1D9BB50B5C9BC50FE82BD504083BE509A
:1019B0004183BF504283C0504383C1504483C250CF
:1019C0004583C3504683C4504783C5504883C6509F
:1019D0004983C7504A83C8504B83C9504C83CA506F
:1019E0004D83CB504E83CC504F83CD505083CE503F
:1019F0005183CF50F1CFD0505283D1505383D25026
:101A00005483D3505583D4505683D5505783D650E2
:101A1000D2D9D7505883D8505983D9505A83DA50E5
:101A2000C5C1DB505B83DC505C83DD505D83DE50E1
:101A30005E83DF505F83E0506083E1506183E2505A
:101A40006283E3506383E4506483E5506583E6502A
:101A5000D6D9E750AEC9E8506683E9506783EA50AB
:101A60006883EB506983EC50D5D9ED50D4D9EE5052
:101A7000D7D9EF506A83F0506B83F1506C83F250EA
:101A80006D83F350DBCBF4506E83F550A9BDF65057
:101A90006F83F7507083F8507183F9507283FA5056
:101AA0007383FB50A7C6FC507483FD507583FE50B2
:101AB0007683FF50778300517883015179830251F7
:101AC0007A8303517B8304517C8305517D830651C6
:101AD000D3D90751D8D908517E83095180830A513F
:101AE00081830B51D9D90C5182830D5183830E51BF
:101AF00084830F518583105186831151878312513E
:101B0000E5C8135188831451898315518A8316516E
:101B10008B8317518C8318518D8319518E831A51E1
:101B20008F831B5190831C5191831D5192831E51B1
:101B300093831F519483205195832151DCC02251FE
:101B40009683235197832451988325519983265155
:101B50009A8327519B8328519C8329519D832A5125
:101B60009E832B519F832C51A0832D51A1832E51F5
:101B7000A2832F51A3833051A4833151A5833251C5
:101B8000A6833351A7833451A8833551A983365195
:101B9000AA833751AB833851AC833951AD833A5165
:101BA000AE833B51AF833C51B0833D51B1833E5135
:101BB000B2833F51F9B64051A3D84151CAD44251E2
:101BC000B3834351AAD44451D6D04551E4B34651CE
:101BD000D7D54751B4834851C8CF4951E2B94A518A
:101BE000B5834B51CBBF4C51B6834D51E2C34E51DF
:101BF000B7834F51B8835051B9835151D2B6525126
